:100000000C942A000C9447000C9447000C94470071
:100010000C9447000C9447000C9447000C94F10C8E
:100020000C9447000C9447000C9447000C94470034
:100030000C9447000C9447000C9447000C94470024
:100040000C9447000C9447000C9447000C94470014
:100050000C94470011241FBECFE5D8E0DEBFCDBF12
:1000600010E0A0E6B0E0E4EDF7E402C005900D92E8
:10007000AE37B107D9F715E0AEE7B0E001C01D9289
:10008000A731B107E1F70E94EB220C94E8230C940E
:100090000000EF92FF920F931F937B018C0120E0F1
:1000A00030E040E05FE40E94490388238CF0C801FF
:1000B000B70120E030E040E05FE40E94C1010E940F
:1000C000A9039B01AC01205030404040504806C07D
:1000D000C801B7010E94A9039B01AC01B901CA0183
:1000E0001F910F91FF90EF900895A0E0B0E0EBE733
:1000F000F0E00C949223DC012B01FA019C919230E8
:1001000008F439C1EB018881823008F433C194309E
:1001100069F4843009F02FC111969C91119789815F
:10012000981709F428C1A3E7B0E025C1843009F489
:1001300021C18230A9F4923009F01DC19A01AD01AC
:1001400088E0EA010990AE01E90109929E0181501F
:10015000C1F7E201898111969C918923818308C1AD
:10016000923009F407C112962D903C901397EB0141
:100170008A819B811496AD90BD90CD90DC901797AD
:10018000EC80FD800E811F819101281B390BB90184
:1001900037FF04C066277727621B730B6032710537
:1001A0000CF061C0121613066CF537014801062EDB
:1001B00004C096948794779467940A94D2F721E0C8
:1001C00030E040E050E004C0220F331F441F551FB1
:1001D0006A95D2F721503040404050402E213F21B7
:1001E00040235123211531054105510521F021E01E
:1001F00030E040E050E079018A01E628F72808293C
:1002000019293CC0232BD1F1260E371E350146019A
:10021000062E04C096948794779467940A94D2F734
:1002200021E030E040E050E004C0220F331F441FC3
:10023000551F6A95D2F721503040404050402A2146
:100240003B214C215D21211531054105510521F04E
:1002500021E030E040E050E059016A01A628B728CB
:10026000C828D9280BC0821593052CF01C01AA249C
:10027000BB24650103C0EE24FF24870111969C91E5
:10028000D20111968C91981709F445C0992339F041
:10029000A80197012A193B094C095D0906C0A6016E
:1002A00095012E193F09400B510B57FD08C01182D3
:1002B0003382228224833583468357831DC081E0A5
:1002C00081833382228288279927DC01821B930B4A
:1002D000A40BB50B84839583A683B7830DC0220F2F
:1002E000331F441F551F24833583468357838281E0
:1002F000938101979383828324813581468157813D
:10030000DA01C9010197A109B1098F5F9F4FAF4F72
:10031000BF4328F30BC0918333822282EA0CFB1C7B
:100320000C1D1D1DE482F5820683178383E0808304
:10033000248135814681578157FF1AC0C901AA27F8
:1003400097FDA095BA2F81709070A070B0705695EF
:10035000479537952795822B932BA42BB52B848318
:100360009583A683B7838281938101969383828349
:10037000DF0101C0D201CD01CDB7DEB7E2E10C94BF
:10038000AE23A0E2B0E0E7ECF1E00C949E23698399
:100390007A838B839C832D833E834F835887E9E048
:1003A000EE2EF12CEC0EFD1ECE010196B7010E943F
:1003B000D2048E010F5E1F4FCE010596B8010E9438
:1003C000D2048A8991E089278A8BC701B801AE01DE
:1003D000475E5F4F0E9475000E94FD03A096E6E015
:1003E0000C94BA23A0E2B0E0E8EFF1E00C949E2375
:1003F00069837A838B839C832D833E834F835887C5
:10040000F9E0EF2EF12CEC0EFD1ECE010196B701A6
:100410000E94D2048E010F5E1F4FCE010596B801D7
:100420000E94D204C701B801AE01475E5F4F0E942F
:1004300075000E94FD03A096E6E00C94BA23A0E2AA
:10044000B0E0E5E2F2E00C94922369837A838B8337
:100450009C832D833E834F835887CE010196BE0136
:10046000675F7F4F0E94D204CE010596BE016F5E8A
:100470007F4F0E94D2049985923088F0898982301A
:10048000C8F0943019F4823051F404C0843029F457
:10049000923081F483E790E0C6C0923049F420E0C6
:1004A0009A858A89981321E02A87CE010996BBC0D4
:1004B000823049F420E09A858A89981321E02A8BBA
:1004C000CE014196B0C02D843E844F8458886D88FB
:1004D0007E888F88988CEE24FF248701AA24BB2471
:1004E000650140E050E060E070E0E0E0F0E0C10174
:1004F00081709070892BE9F0E60CF71C081D191D1E
:100500009A01AB012A0D3B1D4C1D5D1D80E090E062
:10051000A0E0B0E0E614F7040805190520F481E036
:1005200090E0A0E0B0E0BA01A901480F591F6A1F8E
:100530007B1FAA0CBB1CCC1CDD1C97FE08C081E0F5
:1005400090E0A0E0B0E0A82AB92ACA2ADB2A3196B6
:10055000E032F10549F0660C771C881C991C569412
:10056000479437942794C3CFFA85EA892B893C892D
:100570008B859C85280F391F2E5F3F4F17C0CA01FE
:1005800081709070892B61F016950795F794E79428
:1005900080E090E0A0E0B0E8E82AF92A0A2B1B2BC3
:1005A00076956795579547952F5F3F4F77FDE7CF36
:1005B0000CC0440F551F661F771F17FD4160EE0CDE
:1005C000FF1C001F111F21503040403090E05907A0
:1005D00090E0690790E4790760F32B8F3C8FDB0193
:1005E000CA018F779070A070B07080349105A1051A
:1005F000B10561F447FD0AC0E114F10401051105DC
:1006000029F0405C5F4F6F4F7F4F40781A8EFE1786
:1006100011F081E08A8F4D8F5E8F6F8F78A383E01A
:10062000898FCE0149960E94FD03A096E2E10C94C9
:10063000AE23A8E1B0E0EFE1F3E00C949E236983E0
:100640007A838B839C832D833E834F83588789E0F5
:10065000E82EF12CEC0EFD1ECE010196B7010E9492
:10066000D2048E010F5E1F4FCE010596B8010E9485
:10067000D2048985823040F08989823028F0C70110
:10068000B8010E944A0501C08FEF6896E6E00C941D
:10069000BA23A8E1B0E0EFE4F3E00C949E23698371
:1006A0007A838B839C832D833E834F83588789E095
:1006B000E82EF12CEC0EFD1ECE010196B7010E9432
:1006C000D2048E010F5E1F4FCE010596B8010E9425
:1006D000D2048985823040F08989823028F0C701B0
:1006E000B8010E944A0501C08FEF6896E6E00C94BD
:1006F000BA23A8E1B0E0EFE7F3E00C949E2369830E
:100700007A838B839C832D833E834F83588789E034
:10071000E82EF12CEC0EFD1ECE010196B7010E94D1
:10072000D2048E010F5E1F4FCE010596B8010E94C4
:10073000D2048985823040F08989823028F0C7014F
:10074000B8010E944A0501C081E06896E6E00C9479
:10075000BA23ACE0B0E0EFEAF3E00C94A2236983A3
:100760007A838B839C83CE010196BE016B5F7F4FA2
:100770000E94D2048D81823061F1823050F1843048
:1007800021F48E81882351F12EC02F81388537FDC9
:1007900020C06E812F3131051CF06623F9F023C093
:1007A0008EE190E0821B930B29853A854B855C8511
:1007B00004C056954795379527958A95D2F76623B5
:1007C000B1F050954095309521953F4F4F4F5F4F79
:1007D0000EC020E030E040E050E009C02FEF3FEFD6
:1007E0004FEF5FE704C020E030E040E050E8B9019F
:1007F000CA012C96E2E00C94BE23DF92EF92FF92A6
:100800000F931F93FC01E480F58006811781D1804E
:100810008081823048F480E090E0A0E1B0E0E82AF6
:10082000F92A0A2B1B2BA5C0843009F49FC0823003
:1008300021F4EE24FF24870105C0E114F104010531
:10084000110519F4E0E0F0E096C0628173819FEF3A
:10085000623879070CF05BC022E83FEF261B370BAC
:100860002A3131052CF020E030E040E050E02AC091
:10087000B801A701022E04C0769567955795479554
:100880000A94D2F781E090E0A0E0B0E004C0880FC5
:10089000991FAA1FBB1F2A95D2F70197A109B10979
:1008A0008E219F21A023B1230097A105B10521F03E
:1008B00081E090E0A0E0B0E09A01AB01282B392B59
:1008C0004A2B5B2BDA01C9018F779070A070B07052
:1008D00080349105A105B10539F427FF09C0205CDA
:1008E0003F4F4F4F5F4F04C0215C3F4F4F4F5F4F13
:1008F000E0E0F0E02030A0E03A07A0E04A07A0E402
:100900005A0710F0E1E0F0E079018A0127C0603871
:10091000710564F5FB01E158FF4FD801C7018F77DE
:100920009070A070B07080349105A105B10539F4C4
:10093000E7FE0DC080E490E0A0E0B0E004C08FE3EB
:1009400090E0A0E0B0E0E80EF91E0A1F1B1F17FFA1
:1009500005C016950795F794E794319687E01695AC
:100960000795F794E7948A95D1F705C0EE24FF2404
:100970008701EFEFF0E06E2F679566276795902F60
:100980009F77D794DD24D7948E2F8695492F462BB9
:10099000582F5D29B701CA011F910F91FF90EF9069
:1009A000DF900895FC01DB01408151812281622F9B
:1009B0006F7770E0221F2227221F9381892F880FD3
:1009C000822B282F30E0991F9927991F11969C930D
:1009D000119721153105A9F54115510561057105DD
:1009E00011F482E037C082E89FEF13969C938E93B8
:1009F00012979A01AB0167E0220F331F441F551F66
:100A00006A95D1F783E08C930DC0220F331F441FEA
:100A1000551F12968D919C911397019713969C9355
:100A20008E931297203080E0380780E0480780E4FA
:100A3000580758F314962D933D934D935C93179755
:100A400008952F3F310579F4411551056105710570
:100A500019F484E08C93089564FF03C081E08C93C3
:100A600012C01C9210C02F57304013963C932E9307
:100A7000129783E08C9387E0440F551F661F771F02
:100A80008A95D1F7706414964D935D936D937C9322
:100A9000179708951F93DC01FB019C91923008F495
:100AA00047C08081823008F443C0943051F41196DD
:100AB0001C91843099F58181682F70E0611B710968
:100AC0003FC0843021F0923031F48230B9F181811D
:100AD000882389F12DC011961C9111978230F1F075
:100AE00081811817D9F412962D913C911397828128
:100AF00093818217930794F028173907BCF0149656
:100B00008D919D910D90BC91A02D248135814681C0
:100B10005781281739074A075B0718F4112341F05A
:100B20000AC082179307A407B50740F4112319F0F0
:100B300061E070E005C06FEF7FEF02C060E070E041
:100B4000CB011F910895DF93CF93CDB7DEB72797E1
:100B50000FB6F894DEBF0FBECDBF9D838C836E832E
:100B60004F838AE190E00E947B089A838983898180
:100B70009A81009709F46FC080917E0090917F0068
:100B8000009741F489819A8190937F0080937E0041
:100B90000E940A088E81823010F081E08E83E98104
:100BA000FA81118E108EE981FA818E81868BE9811E
:100BB000FA818F81878BE981FA818C819D81918374
:100BC000808389819A8102960E94110989819A8184
:100BD0000C960E941109E981FA8189819A81918795
:100BE0008087E981FA8189819A81938B828B8E81BA
:100BF000282F30E086E090E0821B930BE981FA8198
:100C000095878487E981FA81968980918000891788
:100C100028F4E981FA81868980938000E981FA814C
:100C20008689282F30E0C901880F991F880F991FE6
:100C3000880F991F820F931FAC0149575F4F89811D
:100C40009A819C012E5F3F4FCA01B9010E94210980
:100C500081E08B8302C08FEF8B838B8127960FB649
:100C6000F894DEBF0FBECDBFCF91DF910895DF9323
:100C7000CF9300D000D000D0CDB7DEB79C838B835C
:100C80007E836D8320918100309182008B819C81D5
:100C9000820F931F9A83898380917E0090917F00B9
:100CA00002960E94D909E0917E00F0917F0089812F
:100CB0009A8193838283209181003091820089817F
:100CC0009A818217930770F48091AD009091AE00E5
:100CD00020917E0030917F002E5F3F4FB9010E942E
:100CE0006D090DC08091AB009091AC0020917E0009
:100CF00030917F002E5F3F4FB9010E946D098D81B9
:100D00009E81009761F080917E0090917F009C0110
:100D1000245F3F4F8D819E81B9010E946D09269607
:100D20000FB6F894DEBF0FBECDBFCF91DF9108950F
:100D3000DF93CF9300D0CDB7DEB73AC0F894E091FF
:100D4000B400F091B500868197819A838983898167
:100D50009A810C960E94D909789489819A81029689
:100D60000E94D909E981FA819689809180008917CA
:100D700028F4E981FA81868980938000E981FA81EB
:100D80008689282F30E0C901880F991F880F991F85
:100D9000880F991F820F931FAC0149575F4F8981BC
:100DA0009A819C012E5F3F4FCA01B9010E9421091F
:100DB0008091AF00882309F0C1CF0F900F90CF91A1
:100DC000DF910895DF93CF9300D000D0CDB7DEB789
:100DD0000E94C5152091830030918400821B930BE3
:100DE000909386008093850085C0809181009091CA
:100DF000820001969093820080938100809185000B
:100E00009091860001979093860080938500809151
:100E1000810090918200009709F064C08091AB003E
:100E20009091AC009A8389838091AD009091AE003F
:100E30009093AC008093AB0089819A819093AE002F
:100E40008093AD004FC0E091AB00F091AC00058005
:100E5000F681E02D868197819C838B83EB81FC81D9
:100E600022813381809181009091820082179307C3
:100E700008F440C0F8948B819C8102960E94D909A5
:100E8000EB81FC8184899589009729F08B819C8175
:100E90000C960E94D9097894EB81FC819689809107
:100EA0008000891728F4EB81FC818689809380007B
:100EB000EB81FC818689282F30E0C901880F991FBA
:100EC000880F991F880F991F820F931FAC014957F4
:100ED0005F4F8B819C819C012E5F3F4FCA01B901FE
:100EE0000E942109E091AB00F091AC008081882341
:100EF00009F0A9CF8091850090918600009709F0B4
:100F000074CF8091810090918200909384008093AF
:100F100083000F900F900F900F90CF91DF91089565
:100F2000DF93CF9300D0CDB7DEB70E9498060E9422
:100F3000E2060AC080918000882309F466C080918F
:100F4000800081508093800080918000282F30E0C5
:100F5000C901880F991F880F991F880F991F820F49
:100F6000931FFC01E957FF4F8081882319F380917B
:100F70008000282F30E0C901880F991F880F991F22
:100F8000880F991F820F931F89579F4F9A838983D8
:100F9000E981FA810180F281E02D82819381E981EA
:100FA000FA8192838183E981FA8121813281898169
:100FB0009A8103962817390759F4E981FA8101804B
:100FC000F281E02D82819381E981FA81928381838C
:100FD000E981FA810180F281E02D868197819093E9
:100FE0007F0080937E00E0917E00F0917F00408141
:100FF000518180917E0090917F00E0917E00F09180
:101000007F002789622FFA0109950F900F90CF91E9
:10101000DF910895DF93CF930F92CDB7DEB719829A
:1010200013C08981282F30E0C901880F991F880FCC
:10103000991F880F991F820F931F89579F4F0E94F6
:10104000E70889818F5F89838981823050F389E93C
:1010500090E00E94E70882EA90E00E94E7088FEAA9
:1010600090E00E94E70889E990E09093AC008093BB
:10107000AB0082EA90E09093AE008093AD000F90B9
:10108000CF91DF910895DF93CF9300D000D00F92DE
:10109000CDB7DEB79D838C83EC81FD810580F68121
:1010A000E02D868197819B838A838A819B810C9620
:1010B0000E94D9098A819B819C01245F3F4F8FEA5E
:1010C00090E0B9010E942109EA81FB819689E091B3
:1010D0007E00F0917F008689981718F081E089835F
:1010E00001C0198289810F900F900F900F900F907F
:1010F000CF91DF910895DF93CF9300D000D0CDB78B
:10110000DEB79C838B831A8219820E942F158091EF
:10111000B8009091B9002B813C81820F931F23E08E
:10112000883E920718F52091B8003091B9008B8164
:101130009C81280F391F8091B8009091B9008217C7
:101140009307A0F48091B8009091B90086549F4F06
:101150009A8389832091B8003091B9008B819C815A
:10116000820F931F9093B9008093B8000E943B15A3
:1011700089819A810F900F900F900F90CF91DF91FE
:101180000895DF93CF9300D0CDB7DEB79A838983DC
:101190000F900F90CF91DF910895DF93CF93CDB74C
:1011A000DEB71092B9001092B800CF91DF91089588
:1011B000DF93CF93CDB7DEB72091B8003091B9005F
:1011C00088EE93E0821B930BCF91DF910895DF931C
:1011D000CF9300D0CDB7DEB79A83898389819A8176
:1011E0000396E981FA8192838183E981FA818FEF05
:1011F0009FEF9483838389819A810396E981FA81A1
:101200009683858389819A810396E981FA81908703
:101210008783E981FA8110820F900F90CF91DF913F
:101220000895DF93CF9300D0CDB7DEB79A8389833B
:10123000E981FA81118610860F900F90CF91DF918E
:101240000895DF93CF9300D000D000D0CDB7DEB7A4
:101250009C838B837E836D83EB81FC818181928172
:101260009A838983E981FA8182819381ED81FE816C
:1012700093838283EB81FC8181819281ED81FE8168
:1012800095838483E981FA810280F381E02D8D8149
:101290009E81958384838D819E81E981FA819383E8
:1012A00082838D819E81EB81FC8192838183ED819C
:1012B000FE818B819C8191878087EB81FC8180817D
:1012C0008F5FEB81FC81808326960FB6F894DEBF9A
:1012D0000FBECDBFCF91DF910895DF93CF93CDB7F0
:1012E000DEB728970FB6F894DEBF0FBECDBF9E8342
:1012F0008D8378876F83EF81F885808191819A83D0
:10130000898389819A812FEF8F3F920739F4ED818C
:10131000FE81878190859C838B8318C08D819E81FF
:1013200003969C838B8306C0EB81FC818281938131
:101330009C838B83EB81FC810280F381E02D2081F3
:10134000318189819A818217930770F7EB81FC8143
:1013500082819381EF81F88593838283EF81F88581
:101360000280F381E02D8F81988595838483EF81BE
:10137000F8858B819C81958384838F819885EB810F
:10138000FC8193838283EF81F8858D819E81918793
:101390008087ED81FE8180818F5FED81FE8180837A
:1013A00028960FB6F894DEBF0FBECDBFCF91DF9168
:1013B0000895DF93CF9300D000D0CDB7DEB79C83E4
:1013C0008B83EB81FC81A281B381EB81FC818481E1
:1013D000958115969C938E931497EB81FC81A48143
:1013E000B581EB81FC818281938113969C938E93CE
:1013F0001297EB81FC81808591859A838983E981AD
:10140000FA81218132818B819C812817390741F42F
:10141000EB81FC8184819581E981FA8192838183CA
:10142000EB81FC8111861086E981FA8180818150EF
:10143000E981FA8180830F900F900F900F90CF91E8
:10144000DF910895DF93CF93CDB7DEB728970FB61E
:10145000F894DEBF0FBECDBF9C838B837E836D83EC
:1014600058874F83EB81FC8181E180838B819C8154
:1014700001979C838B83EB81FC8182E280838B814B
:101480009C8101979C838B83EB81FC8183E3808328
:101490008B819C8101979C838B838D819E819A8314
:1014A00089838981EB81FC8180838B819C81019779
:1014B0009C838B8389819A81892F99279A83898339
:1014C0008981EB81FC8180838B819C8101979C8346
:1014D0008B83EB81FC8110828B819C8101979C83A3
:1014E0008B83EB81FC8180E880838B819C810197D9
:1014F0009C838B83EB81FC8110828B819C81019783
:101500009C838B83EB81FC8182E080838B819C8137
:1015100001979C838B83EB81FC8183E080838B81AB
:101520009C8101979C838B83EB81FC8184E0808389
:101530008B819C8101979C838B83EB81FC8185E06F
:1015400080838B819C8101979C838B83EB81FC81C1
:1015500086E080838B819C8101979C838B83EB81C8
:10156000FC8187E080838B819C8101979C838B83A6
:10157000EB81FC8188E080838B819C8101979C8337
:101580008B83EB81FC8189E080838B819C81019737
:101590009C838B83EB81FC8180E180838B819C81A8
:1015A00001979C838B83EB81FC8181E180838B811C
:1015B0009C8101979C838B83EB81FC8182E18083FA
:1015C0008B819C8101979C838B83EB81FC8183E1E0
:1015D00080838B819C8101979C838B83EB81FC8131
:1015E00084E180838B819C8101979C838B83EB8139
:1015F000FC8185E180838B819C8101979C838B8317
:10160000EB81FC8186E180838B819C8101979C83A7
:101610008B83EB81FC8187E180838B819C810197A7
:101620009C838B83EB81FC8188E180838B819C810F
:1016300001979C838B83EB81FC8189E180838B8183
:101640009C8101979C838B83EB81FC8180E280836A
:101650008B819C8101979C838B83EB81FC8181E250
:1016600080838B819C8101979C838B83EB81FC81A0
:1016700082E280838B819C8101979C838B83EB81A9
:10168000FC8183E280838B819C8101979C838B8387
:101690008F8198859A8389838981EB81FC818083FE
:1016A0008B819C8101979C838B8389819A81892F6F
:1016B00099279A8389838981EB81FC8180838B813F
:1016C0009C8101979C838B83EB81FC8186E28083E4
:1016D0008B819C8101979C838B83EB81FC8187E2CA
:1016E00080838B819C8101979C838B83EB81FC8120
:1016F00088E280838B819C8101979C838B83EB8123
:10170000FC8189E280838B819C8101979C838B8300
:10171000EB81FC8180E380838B819C8101979C839A
:101720008B83EB81FC8181E380838B819C8101979A
:101730009C838B838B819C8128960FB6F894DEBFA7
:101740000FBECDBFCF91DF910895DF93CF93CDB77B
:10175000DEB70E94950CA091A204B091A304CD9194
:10176000CDBFDD91DEBFFF91EF91DF91CF91BF91B2
:10177000AF919F918F917F916F915F914F913F9129
:101780002F911F910F91FF90EF90DF90CF90BF901E
:10179000AF909F908F907F906F905F904F903F9011
:1017A0002F901F900F900FBE0F90089581E0CF9162
:1017B000DF910895DF93CF93CDB7DEB7CF91DF915F
:1017C00008950F920FB6F8940F921F9211242F9242
:1017D0003F924F925F926F927F928F929F92AF92C1
:1017E000BF92CF92DF92EF92FF920F931F932F93AE
:1017F0003F934F935F936F937F938F939F93AF9399
:10180000BF93CF93DF93EF93FF93A091A204B09186
:10181000A3040DB60D920EB60D920E94CF16A091A4
:10182000A204B091A304CD91CDBFDD91DEBFFF91A5
:10183000EF91DF91CF91BF91AF919F918F917F9168
:101840006F915F914F913F912F911F910F91FF9059
:10185000EF90DF90CF90BF90AF909F908F907F9050
:101860006F905F904F903F902F901F900F900FBE02
:101870000F9008950F920FB6F8940F921F921124B3
:101880002F923F924F925F926F927F928F929F9290
:10189000AF92BF92CF92DF92EF92FF920F931F937E
:1018A0002F933F934F935F936F937F938F939F9368
:1018B000AF93BF93CF93DF93EF93FF93A091A204D5
:1018C000B091A3040DB60D920EB60D920E94FA15BA
:1018D0000E94CF16A091A204B091A304CD91CDBFD8
:1018E000DD91DEBFFF91EF91DF91CF91BF91AF917D
:1018F0009F918F917F916F915F914F913F912F9128
:101900001F910F91FF90EF90DF90CF90BF90AF901D
:101910009F908F907F906F905F904F903F902F900F
:101920001F900F900FBE0F900895DF93CF9300D0BC
:1019300000D000D0CDB7DEB780E49FE1A0E0B0E0FA
:101940008B839C83AD83BE838B819C81AD81BE8163
:10195000689415F8B695A795979587951694D1F73D
:101960008B839C83AD83BE838B819C81AD81BE8143
:101970000197A109B1098B839C83AD83BE838B81C1
:1019800089838B819C81AD81BE81892F9A2FAB2F5A
:10199000BB278B839C83AD83BE838B818A83EBE4DF
:1019A000F0E08A818083EAE4F0E0898180838BE043
:1019B0008983EEE4F0E089818083E9E5F0E08081CD
:1019C0008983898180618983E9E5F0E08981808369
:1019D00026960FB6F894DEBF0FBECDBFCF91DF9134
:1019E00008950E943A0C1895DF93CF93CDB7DEB7D8
:1019F00028970FB6F894DEBF0FBECDBF8F836887E0
:101A00001A8219828F81882309F48CC08FE190E0BB
:101A10000E947B089E838D838D819E81009709F4AF
:101A200081C08F81282F30E08885882F90E0AC011D
:101A3000249FC001259F900D349F900D1124019685
:101A40009C838B838B819C810E947B08ED81FE812E
:101A500091838083ED81FE8180819181009709F4DB
:101A60005DC0ED81FE81408151818F81282F30E062
:101A70008885882F90E0BC01269FC001279F900D8C
:101A8000369F900D1124840F951FED81FE81938365
:101A90008283ED81FE81128EED81FE8180819181B4
:101AA000ED81FE8195838483ED81FE8140815181AA
:101AB0008F81882F90E09C01215030408885882FAD
:101AC00090E0BC01269FC001279F900D369F900D8E
:101AD0001124840F951FED81FE8197838683ED810C
:101AE000FE818F81838FED81FE818885848FED81DA
:101AF000FE818FEF858FED81FE818FEF868F8D8147
:101B00009E8108960E94E7088D819E8141960E94E1
:101B1000E7088D819E819A83898304C08D819E818F
:101B20000E94C10889819A8128960FB6F894DEBF79
:101B30000FBECDBFCF91DF910895DF93CF9300D03B
:101B400000D0CDB7DEB78B836C838B8160E00E94C1
:101B5000F40C9A83898389819A81009721F0E98125
:101B6000FA818C81828F89819A810F900F900F90DA
:101B70000F90CF91DF910895DF93CF93CDB7DEB76C
:101B80002C970FB6F894DEBF0FBECDBF9E838D831A
:101B900078876F835A8749872B8719820FB6F89405
:101BA0000F92ED81FE81928DED81FE81838D9817DC
:101BB000D8F48D819E812F813885B9014B850E9493
:101BC000F70FED81FE818189882349F08D819E8107
:101BD00041960E947E17813011F40E94E10B0F9014
:101BE0000FBE81E08C875CC089859A85009721F4BF
:101BF0000F900FBE1C8654C08981882331F4CE011A
:101C000002960E94E61781E089830F900FBE0E9422
:101C10002F150FB6F8940F92ED81FE81858D8F3FC1
:101C200019F4ED81FE81158EED81FE81868D8F3F49
:101C300019F4ED81FE81168E0F900FBECE01029633
:101C40009E01275F3F4FB9010E94FF17882309F5C6
:101C50008D819E810E945B118823A1F08D819E81E0
:101C6000089629853A85B9010E9435178D819E8194
:101C70000E94D4100E943B15882309F08FCF0E9448
:101C8000E10B8CCF8D819E810E94D4100E943B1568
:101C900085CF8D819E810E94D4100E943B151C86A9
:101CA0008C852C960FB6F894DEBF0FBECDBFCF91BA
:101CB000DF910895DF93CF93CDB7DEB729970FB6A5
:101CC000F894DEBF0FBECDBF9C838B837E836D8374
:101CD00058874F8329871982EB81FC81928DEB8194
:101CE000FC81838D981740F58B819C812D813E81ED
:101CF000B90149850E94F70FEB81FC81868D8F3FEA
:101D000089F4EB81FC818189882399F08B819C8106
:101D100041960E947E17882361F0EF81F88581E06B
:101D2000808307C0EB81FC81868D8F5FEB81FC8116
:101D3000868F81E08A8301C01A828A8129960FB634
:101D4000F894DEBF0FBECDBFCF91DF910895DF9332
:101D5000CF93CDB7DEB72E970FB6F894DEBF0FBE88
:101D6000CDBF98878F837A8769875C874B872D875C
:101D70001B820FB6F8940F92EF81F885828D88232D
:101D800009F43FC0EF81F885868197819A83898322
:101D90008F81988529853A85B9010E948C108D859F
:101DA0008823B1F4EF81F885828D8150EF81F88529
:101DB000828FEF81F88580858823F1F08F81988567
:101DC00008960E947E178130B9F40E94E10B14C07E
:101DD000EF81F88589819A8197838683EF81F885E1
:101DE0008189882349F08F81988541960E947E17CA
:101DF000882311F00E94E10B0F900FBE81E08E87C7
:101E00005CC08B859C85009721F40F900FBE1E86C9
:101E100054C08B81882331F4CE0104960E94E617CA
:101E200081E08B830F900FBE0E942F150FB6F894A0
:101E30000F92EF81F885858D8F3F19F4EF81F8853A
:101E4000158EEF81F885868D8F3F19F4EF81F88527
:101E5000168E0F900FBECE0104969E01255F3F4F58
:101E6000B9010E94FF17882309F58F8198850E9488
:101E700028118823A1F08F81988541962B853C8578
:101E8000B9010E9435178F8198850E94D4100E9455
:101E90003B15882309F06DCF0E94E10B6ACF8F813B
:101EA00098850E94D4100E943B1563CF8F8198853E
:101EB0000E94D4100E943B151E868E852E960FB66A
:101EC000F894DEBF0FBECDBFCF91DF910895DF93B1
:101ED000CF93CDB7DEB728970FB6F894DEBF0FBE0D
:101EE000CDBF9C838B837E836D8358874F831982FC
:101EF000EB81FC81828D882371F18B819C812D8106
:101F00003E81B9010E948C10EB81FC81828D815051
:101F1000EB81FC81828FEB81FC81858D8F3F89F481
:101F2000EB81FC818085882399F08B819C810896C8
:101F30000E947E17882361F0EF81F88581E080831D
:101F400007C0EB81FC81858D8F5FEB81FC81858FE4
:101F500081E08A8301C01A828A8128960FB6F8949C
:101F6000DEBF0FBECDBFCF91DF910895DF93CF933A
:101F700000D00F92CDB7DEB79B838A830FB6F8945B
:101F80000F92EA81FB81828D89830F900FBE898138
:101F90000F900F900F90CF91DF910895DF93CF9323
:101FA00000D00F92CDB7DEB79B838A83EA81FB8195
:101FB000828D898389810F900F900F90CF91DF914F
:101FC0000895DF93CF9300D0CDB7DEB79A8389838E
:101FD000E981FA81808191810E94C10889819A8179
:101FE0000E94C1080F900F90CF91DF910895DF9369
:101FF000CF9300D000D00F92CDB7DEB79A838983FC
:102000007C836B834D83E981FA81848D882309F475
:1020100074C08D81882399F5E981FA816481758185
:10202000E981FA81848D482F50E02B813C81CB01DE
:10203000B9010E94C923E981FA8124813581E981AE
:10204000FA81848D882F90E0820F931FE981FA81B5
:1020500095838483E981FA8124813581E981FA813C
:10206000828193812817390708F447C0E981FA81F2
:1020700080819181E981FA81958384833EC0E981E1
:10208000FA8166817781E981FA81848D482F50E059
:102090002B813C81CB01B9010E94C923E981FA81DE
:1020A00026813781E981FA81848D882F90E090958F
:1020B00081959F4F820F931FE981FA8197838683D1
:1020C000E981FA8126813781E981FA8180819181D4
:1020D0002817390790F4E981FA8122813381E98157
:1020E000FA81848D882F90E0909581959F4F820F83
:1020F000931FE981FA8197838683E981FA81828D32
:102100008F5FE981FA81828F0F900F900F900F906F
:102110000F90CF91DF910895DF93CF9300D000D03F
:10212000CDB7DEB79A8389837C836B83E981FA819B
:1021300080819181009789F1E981FA812681378137
:10214000E981FA81848D882F90E0820F931FE981C5
:10215000FA8197838683E981FA8126813781E98133
:10216000FA81828193812817390740F0E981FA8149
:1021700080819181E981FA8197838683E981FA815F
:1021800046815781E981FA81848D282F30E08B8147
:102190009C81BA01A9010E94C9230F900F900F9052
:1021A0000F90CF91DF910895DF93CF9300D0CDB7FB
:1021B000DEB79A8389830FB6F8940F9215C0E98130
:1021C000FA8181898823A9F089819A8141960E94A8
:1021D0007E17882311F00E946618E981FA81868DA6
:1021E0008150E981FA81868FE981FA81868D1816FE
:1021F00034F3E981FA818FEF868F0F900FBE0FB60F
:10220000F8940F9215C0E981FA8180858823A9F09E
:1022100089819A8108960E947E17882311F00E9476
:102220006618E981FA81858D8150E981FA81858F6F
:10223000E981FA81858D181634F3E981FA818FEFEF
:10224000858F0F900FBE0F900F90CF91DF91089563
:10225000DF93CF9300D00F92CDB7DEB79B838A83F5
:102260000FB6F8940F92EA81FB81828D1982882340
:1022700011F481E089830F900FBE89810F900F9038
:102280000F90CF91DF910895DF93CF9300D00F92FD
:10229000CDB7DEB79B838A83EA81FB81828D198269
:1022A000882311F481E0898389810F900F900F902A
:1022B000CF91DF910895DF93CF9300D00F92CDB7E8
:1022C000DEB79B838A830FB6F8940F92EA81FB8175
:1022D000928DEA81FB81838D1982981711F481E038
:1022E00089830F900FBE89810F900F900F90CF912F
:1022F000DF910895DF93CF9300D00F92CDB7DEB773
:102300009B838A83EA81FB81928DEA81FB81838DA5
:102310001982981711F481E0898389810F900F90B9
:102320000F90CF91DF910895AF92BF92CF92DF923D
:10233000EF92FF920F931F93DF93CF93CDB7DEB74A
:1023400064970FB6F894DEBF0FBECDBF9F838E8318
:10235000798768875B874A873D872C870E87F88A4D
:10236000EF86DA8AC98ABC8AAB8A8A859B852989E5
:102370003A89B9010E9499199C838B838B819C8136
:10238000009709F499C0EB81FC812789308D8A85FB
:102390009B850197820F931F9A8389838B819C81F0
:1023A00028853985EB89FC89AA85BB85B9014E85CD
:1023B0009F018D010E947A1889819A812E813F8127
:1023C0004C855D85B9010E94220AEB81FC819183D5
:1023D00080838F859889009731F0EF85F8898B810C
:1023E0009C81918380830FB6F8940F928091A5040D
:1023F0008F5F8093A5048091A2049091A30400971D
:1024000069F48B819C819093A3048093A2048091B2
:10241000A5048130A9F40E94D11812C08091AA04A9
:10242000882371F4E091A204F091A30496898E852B
:10243000891730F08B819C819093A3048093A20430
:10244000EB81FC8196898091A804891728F4EB819F
:10245000FC8186898093A8048091AF048F5F80936C
:10246000AF04EB81FC8196898091A904891728F437
:10247000EB81FC8186898093A904EB81FC818689AC
:10248000282F30E0C901880F991F880F991F880FE6
:10249000991F820F931FAC0140555B4F8B819C812C
:1024A0009C012E5F3F4FCA01B9010E94210981E0C2
:1024B0008D830F900FBE02C08FEF8D838D81813091
:1024C00071F48091AA04882351F0E091A204F09164
:1024D000A30496898E85981710F40E94E10B8D81D4
:1024E00064960FB6F894DEBF0FBECDBFCF91DF91DB
:1024F0001F910F91FF90EF90DF90CF90BF90AF9022
:102500000895DF93CF9300D000D000D0CDB7DEB7D1
:102510009C838B830FB6F8940F922091A204309184
:10252000A3048B819C818217930711F41C821B8268
:102530008B819C81009739F48091A2049091A3042F
:102540009E838D8304C08B819C819E838D838D812E
:102550009E819A83898389819A8102960E94D909F2
:10256000E981FA8184899589009729F089819A8186
:102570000C960E94D90989819A819C012E5F3F4F58
:1025800085E095E0B9010E9421098091A4048F5F44
:102590008093A4048091AF048F5F8093AF040F9069
:1025A0000FBE8091AA04882331F08B819C81009713
:1025B00011F40E94E10B26960FB6F894DEBF0FBE11
:1025C000CDBFCF91DF910895DF93CF93CDB7DEB725
:1025D00028970FB6F894DEBF0FBECDBF9E838D83C4
:1025E00078876F8319820E942F15ED81FE812081EB
:1025F00031818F819885820F931F9C838B83ED811E
:10260000FE81208131818091A6049091A7048217D8
:102610009307A8F4ED81FE81208131818B819C811B
:102620008217930700F52091A6043091A7048B81AF
:102630009C8128173907B8F481E0898314C0ED81A3
:10264000FE81208131818B819C818217930748F024
:102650002091A6043091A7048B819C81281739070B
:1026600010F481E08983ED81FE818B819C819183CF
:1026700080838981882359F08091A2049091A304DA
:1026800002960E94D9098B819C810E9450190E9458
:102690003B158A838A81882311F40E94E10B2896D6
:1026A0000FB6F894DEBF0FBECDBFCF91DF91089576
:1026B000DF93CF9300D000D00F92CDB7DEB79D83CC
:1026C0008C8319828C819D810097D1F00E942F15F7
:1026D0002091A6043091A7048C819D81820F931FC5
:1026E0009B838A838091A2049091A30402960E9406
:1026F000D9098A819B810E9450190E943B158983C8
:102700008981882311F40E94E10B0F900F900F90A4
:102710000F900F90CF91DF910895DF93CF9300D06A
:1027200000D000D0CDB7DEB79C838B830FB6F89472
:102730000F922091A2043091A3048B819C81821777
:10274000930711F41C821B828B819C81009739F4C2
:102750008091A2049091A3049E838D8304C08B81F9
:102760009C819E838D838D819E819A8389838981BB
:102770009A8102960E94D909E981FA818489958912
:10278000009729F089819A810C960E94D909898144
:102790009A819C012E5F3F4F8EE095E0B9010E9427
:1027A00021090F900FBE8B819C810097A1F480912D
:1027B000AA04882319F00E94E10B0DC090910E0528
:1027C0008091A504981729F41092A3041092A204F2
:1027D00002C00E94CF1626960FB6F894DEBF0FBE39
:1027E000CDBFCF91DF910895DF93CF9300D000D07C
:1027F0000F92CDB7DEB79D838C831B828C819D8128
:102800009A838983E981FA818285938525E08E30D8
:10281000920781F4E981FA818489958924E08C3FCB
:10282000920741F0E981FA8184899589009711F432
:1028300081E08B838B810F900F900F900F900F9002
:10284000CF91DF910895DF93CF9300D000D0CDB723
:10285000DEB79C838B838B819C819A83898389815A
:102860009A81009709F44CC02091A2043091A304EE
:1028700089819A818217930709F442C00FB6F894B0
:102880000F9289819A810E94F4138130B9F5898170
:102890009A8102960E94D909E981FA8196898091EC
:1028A000A904891728F4E981FA8186898093A9040B
:1028B000E981FA818689282F30E0C901880F991FA4
:1028C000880F991F880F991F820F931FAC014055E5
:1028D0005B4F89819A819C012E5F3F4FCA01B901EC
:1028E0000E942109E981FA819689E091A204F09180
:1028F000A3048689981710F00E94E10B0F900FBE79
:102900000F900F900F900F90CF91DF910895DF936C
:10291000CF9300D000D00F92CDB7DEB79D838C83CC
:102920001B828C819D819A83898389819A810E94EF
:10293000F413813009F047C08091AB048823C9F5B6
:10294000E981FA819689E091A204F091A304868935
:102950001B82981710F081E08B8389819A810296FF
:102960000E94D909E981FA8196898091A904891781
:1029700028F4E981FA8186898093A904E981FA81A2
:102980008689282F30E0C901880F991F880F991F69
:10299000880F991F820F931FAC0140555B4F8981AF
:1029A0009A819C012E5F3F4FCA01B9010E94210903
:1029B0000AC089819A819C01245F3F4F8CEF94E08B
:1029C000B9010E9421098B810F900F900F900F90F9
:1029D0000F90CF91DF910895AF92BF92CF92DF9287
:1029E000EF92FF920F93DF93CF930F92CDB7DEB7A5
:1029F00020E630E080E798E1B9014AEF50E020E0BE
:102A000030E000E0EE24FF24CC24DD24AA24BB2403
:102A10000E94941189838981813051F4F89481E076
:102A20008093AA041092A7041092A6040E94A50BFA
:102A30000F90CF91DF910F91FF90EF90DF90CF90AB
:102A4000BF90AF900895DF93CF93CDB7DEB7F894E2
:102A50001092AA040E94DA0BCF91DF910895DF93C0
:102A6000CF93CDB7DEB78091AB048F5F8093AB047B
:102A7000CF91DF910895DF93CF9300D000D0CDB7F1
:102A8000DEB71A820FB6F8940F928091AB04815092
:102A90008093AB048091AB04882309F06CC08091D3
:102AA000A504882309F467C0198241C0E09101059B
:102AB000F0910205868197819C838B838B819C8119
:102AC0000C960E94D9098B819C8102960E94D9099B
:102AD000EB81FC8196898091A904891728F4EB8108
:102AE000FC8186898093A904EB81FC818689282F4B
:102AF00030E0C901880F991F880F991F880F991F0F
:102B0000820F931F80559B4F2B813C812E5F3F4F3F
:102B1000B9010E942109EB81FC819689E091A20410
:102B2000F091A3048689981710F081E08983809141
:102B3000FC04882309F0BACF8091AC04882371F09B
:102B400007C00E94FA158091AC0481508093AC04B8
:102B50008091AC048823A9F781E089838981813041
:102B600021F08091AD04813031F481E08A831092AC
:102B7000AD040E94E10B0F900FBE8A810F900F9061
:102B80000F900F90CF91DF910895DF93CF9300D0F6
:102B9000CDB7DEB70FB6F8940F928091A60490914E
:102BA000A7049A8389830F900FBE89819A810F9021
:102BB0000F90CF91DF910895DF93CF9300D00F92C4
:102BC000CDB7DEB719828091A6049091A7049B83AC
:102BD0008A838A819B810F900F900F90CF91DF9114
:102BE0000895DF93CF93CDB7DEB78091A504CF9141
:102BF000DF910895DF93CF9300D000D000D0CDB700
:102C0000DEB78091AB04882309F0BBC08091A60495
:102C10009091A70401969093A7048093A6048091B5
:102C2000A6049091A7040097D1F58091F8049091A3
:102C3000F9049C838B838091FA049091FB04909318
:102C4000F9048093F8048B819C819093FB0480931A
:102C5000FA048091AE048F5F8093AE04E091F80493
:102C6000F091F9048081882339F48FEF9FEF9093DE
:102C70007C0080937B0013C0E091F804F091F9048C
:102C80000580F681E02D868197819E838D83ED817D
:102C9000FE818281938190937C0080937B002091C0
:102CA000A6043091A70480917B0090917C002817A6
:102CB000390708F46BC0E091F804F091F9048081C1
:102CC000882339F48FEF9FEF90937C0080937B00F3
:102CD0005DC0E091F804F091F9040580F681E02DE3
:102CE000868197819E838D83ED81FE818281938190
:102CF0009A8389832091A6043091A70489819A81BF
:102D00002817390738F489819A8190937C00809341
:102D10007B003CC08D819E8102960E94D909ED8185
:102D2000FE8184899589009729F08D819E810C967A
:102D30000E94D909ED81FE8196898091A9048917A5
:102D400028F4ED81FE8186898093A904ED81FE81BE
:102D50008689282F30E0C901880F991F880F991F95
:102D6000880F991F820F931FAC0140555B4F8D81D7
:102D70009E819C012E5F3F4FCA01B9010E9421092B
:102D80009ACF8091AC048F5F8093AC0426960FB6E7
:102D9000F894DEBF0FBECDBFCF91DF910895DF93D2
:102DA000CF9300D0CDB7DEB78091AB04882349F034
:102DB00081E08093AD0454C08091A9048150809338
:102DC000A9048091A904282F30E0C901880F991F18
:102DD000880F991F880F991F820F931FFC01E055E0
:102DE000FB4F8081882341F38091A904282F30E094
:102DF000C901880F991F880F991F880F991F820F8B
:102E0000931F80559B4F9A838983E981FA810180C2
:102E1000F281E02D82819381E981FA81928381831D
:102E2000E981FA812181328189819A81039628176B
:102E3000390759F4E981FA810180F281E02D82811C
:102E40009381E981FA8192838183E981FA8101800A
:102E5000F281E02D868197819093A3048093A20450
:102E60000F900F90CF91DF910895DF93CF9300D013
:102E700000D000D0CDB7DEB79C838B837E836D837B
:102E80004B815C818091A2049091A3049C01245FFA
:102E90003F4FCA01B9010E946D098091A20490912F
:102EA000A30402960E94D9098D819E812FEF8F3F46
:102EB000920769F48091A2049091A3049C012E5F73
:102EC0003F4F8EE095E0B9010E9421090EC020918C
:102ED000A6043091A7048D819E81820F931F9A834F
:102EE000898389819A810E94501926960FB6F89499
:102EF000DEBF0FBECDBFCF91DF910895DF93CF939B
:102F000000D000D00F92CDB7DEB79D838C83EC81CB
:102F1000FD810580F681E02D868197819B838A83E0
:102F20008A819B810C960E94D9098091AB048823E9
:102F300061F58A819B8102960E94D909EA81FB8111
:102F400096898091A904891728F4EA81FB818689F2
:102F50008093A904EA81FB818689282F30E0C9018A
:102F6000880F991F880F991F880F991F820F931F31
:102F7000AC0140555B4F8A819B819C012E5F3F4F86
:102F8000CA01B9010E9421090AC08A819B819C0162
:102F9000245F3F4F8CEF94E0B9010E942109EA8140
:102FA000FB819689E091A204F091A3048689981789
:102FB00018F081E0898301C0198289810F900F90F8
:102FC0000F900F900F90CF91DF910895DF93CF93E3
:102FD00000D0CDB7DEB79A8389838091AE04E981B2
:102FE000FA8180838091A6049091A704E981FA81F7
:102FF000928381830F900F90CF91DF910895DF939B
:10300000CF9300D000D00F92CDB7DEB79B838A83D9
:103010007D836C830FB6F8940F92EC81FD818081E3
:1030200091812FEF8F3F920711F4198244C0EA81FA
:10303000FB8190818091AE04981771F0EA81FB8149
:10304000218132818091A6049091A7048217930771
:1030500018F081E089832FC02091A6043091A70445
:10306000EA81FB8181819281281B390BEC81FD81F2
:103070008081918128173907E0F4EC81FD8140813E
:103080005181EA81FB81218132818091A604909156
:10309000A704B901681B790BCB01840F951FEC8144
:1030A000FD81918380838A819B810E94E61719822A
:1030B00002C081E089830F900FBE89810F900F902D
:1030C0000F900F900F90CF91DF910895DF93CF93E2
:1030D000CDB7DEB781E08093AD04CF91DF91089545
:1030E000DF93CF9300D0CDB7DEB79A8389830E9458
:1030F0001219FDCF0F931F93DF93CF93CDB7DEB798
:1031000029970FB6F894DEBF0FBECDBF9A8389838F
:103110007C836B834D833F832E8319870887898146
:103120009A8149962B813C81B90148E050E00E9488
:10313000D923E981FA8110A28D81863010F085E0D3
:103140008D83E981FA818D81868B89819A810296AE
:103150000E94110989819A810C960E941109E981C6
:10316000FA8189819A81918780878D81282F30E02B
:1031700086E090E0821B930BE981FA819587848732
:10318000E981FA8189819A81938B828B29960FB686
:10319000F894DEBF0FBECDBFCF91DF911F910F918D
:1031A0000895DF93CF930F92CDB7DEB7198213C086
:1031B0008981282F30E0C901880F991F880F991F36
:1031C000880F991F820F931F80559B4F0E94E7081D
:1031D00089818F5F89838981863050F386EE94E000
:1031E0000E94E7088FEE94E00E94E7088CEF94E0DD
:1031F0000E94E70885E095E00E94E7088EE095E0F0
:103200000E94E70886EE94E09093F9048093F80416
:103210008FEE94E09093FB048093FA040F90CF918B
:10322000DF910895DF93CF9300D00F92CDB7DEB733
:103230008091A404882371F10E942F1580910505C7
:103240001B82882311F481E08B830E943B158B81C4
:10325000882301F50FB6F8940F92E0910A05F091DA
:103260000B05868197819A83898389819A81029649
:103270000E94D9098091A50481508093A504809172
:10328000A40481508093A4040F900FBE89819A8179
:103290000E94E9190F900F900F90CF91DF91089540
:1032A000DF93CF9300D0CDB7DEB79A838983E091C7
:1032B000A204F091A30489819A819383828320914F
:1032C000A6043091A70489819A818217930770F42C
:1032D0008091FA049091FB042091A2043091A30400
:1032E0002E5F3F4FB9010E946D091EC04091F80446
:1032F0005091F9048091A2049091A3049C012E5F47
:103300003F4FCA01B9010E946D0920917B003091A5
:103310007C0089819A818217930730F489819A8190
:1033200090937C0080937B000F900F90CF91DF9162
:103330000895DF93CF93CDB7DEB728970FB6F894F3
:10334000DEBF0FBECDBF9C838B837E836D8381E206
:1033500090E00E947B089A83898389819A810097F3
:1033600069F18D819E81009739F48B819C810E9447
:103370007B0898878F8304C08D819E8198878F8377
:10338000E981FA818F819885908F878BE981FA8115
:103390008789908D009739F489819A810E94C108AC
:1033A0001A8219820BC0E981FA818789908D2B815D
:1033B0003C8165EA70E0A9010E94D22389819A814B
:1033C00028960FB6F894DEBF0FBECDBFCF91DF9128
:1033D0000895DF93CF9300D0CDB7DEB79A8389836A
:1033E000E981FA818789908D0E94C10889819A813B
:1033F0000E94C1080F900F90CF91DF910895DF9345
:10340000CF93CDB7DEB727970FB6F894DEBF0FBEC8
:10341000CDBF89836A834B838B81813009F06FC074
:103420008981282F30E03F832E838E819F818130D8
:10343000910549F12E813F81223031052CF48E8196
:103440009F81009761F0D2C02E813F8122303105EB
:1034500071F18E819F8183309105E9F1C7C0ABE3A3
:10346000B0E0EBE3F0E08081482F8A81282F30E044
:1034700081E090E0022E02C0880F991F0A94E2F7C3
:10348000842B8C93B3C0A8E3B0E0E8E3F0E0808144
:10349000482F8A81282F30E081E090E0022E02C080
:1034A000880F991F0A94E2F7842B8C939FC0A5E3A1
:1034B000B0E0E5E3F0E08081482F8A81282F30E0FA
:1034C00081E090E0022E02C0880F991F0A94E2F773
:1034D000842B8C938BC0A2E3B0E0E2E3F0E0808128
:1034E000482F8A81282F30E081E090E0022E02C030
:1034F000880F991F0A94E2F7842B8C9377C08B81F5
:10350000882309F073C08981282F30E03D832C8304
:103510008C819D818130910559F12C813D81223032
:1035200031052CF48C819D81009769F05FC02C815E
:103530003D812230310589F18C819D818330910557
:1035400009F440C053C0ABE3B0E0EBE3F0E08081AE
:10355000482F8A81282F30E081E090E0022E02C0BF
:10356000880F991F0A94E2F7809584238C933EC0BC
:10357000A8E3B0E0E8E3F0E08081482F8A81282FBB
:1035800030E081E090E0022E02C0880F991F0A947B
:10359000E2F7809584238C9329C0A5E3B0E0E5E3AE
:1035A000F0E08081482F8A81282F30E081E090E090
:1035B000022E02C0880F991F0A94E2F78095842397
:1035C0008C9314C0A2E3B0E0E2E3F0E08081482FE6
:1035D0008A81282F30E081E090E0022E02C0880F1F
:1035E000991F0A94E2F7809584238C9327960FB64F
:1035F000F894DEBF0FBECDBFCF91DF910895DF936A
:10360000CF93CDB7DEB727970FB6F894DEBF0FBEC6
:10361000CDBF89836A834B838B81813009F06FC072
:103620008981282F30E03F832E838E819F818530D2
:10363000910551F12E813F812630310534F48E8180
:103640009F818430910561F05AC02E813F812630E0
:10365000310571F18E819F8187309105E9F14FC06D
:10366000AAE3B0E0EAE3F0E08081482F8A81282FC6
:1036700030E081E090E0022E02C0880F991F0A948A
:10368000E2F7842B8C933BC0A7E3B0E0E7E3F0E0E4
:103690008081482F8A81282F30E081E090E0022E3F
:1036A00002C0880F991F0A94E2F7842B8C9327C0DD
:1036B000A4E3B0E0E4E3F0E08081482F8A81282F82
:1036C00030E081E090E0022E02C0880F991F0A943A
:1036D000E2F7842B8C9313C0A1E3B0E0E1E3F0E0C8
:1036E0008081482F8A81282F30E081E090E0022EEF
:1036F00002C0880F991F0A94E2F7842B8C938B8168
:10370000882309F074C08981282F30E03D832C8301
:103710008C819D818530910561F12C813D81263020
:10372000310534F48C819D818430910569F05FC04E
:103730002C813D812630310589F18C819D81873036
:10374000910509F440C053C0AAE3B0E0EAE3F0E019
:103750008081482F8A81282F30E081E090E0022E7E
:1037600002C0880F991F0A94E2F7809584238C93F6
:103770003EC0A7E3B0E0E7E3F0E08081482F8A8114
:10378000282F30E081E090E0022E02C0880F991FC0
:103790000A94E2F7809584238C9329C0A4E3B0E0D7
:1037A000E4E3F0E08081482F8A81282F30E081E037
:1037B00090E0022E02C0880F991F0A94E2F78095CC
:1037C00084238C9314C0A1E3B0E0E1E3F0E08081B6
:1037D000482F8A81282F30E081E090E0022E02C03D
:1037E000880F991F0A94E2F7809584238C9327967B
:1037F0000FB6F894DEBF0FBECDBFCF91DF91089515
:10380000DF93CF9300D000D00F92CDB7DEB78A837D
:103810006B838A81282F30E03D832C834C815D812E
:103820004130510541F18C819D818230910534F404
:103830002C813D812115310561F052C04C815D81A3
:103840004230510551F18C819D8183309105B9F150
:1038500047C0E9E3F0E08081282F30E08B81882F9A
:1038600090E0A90102C0559547958A95E2F7CA01F3
:103870008170898335C0E6E3F0E08081282F30E055
:103880008B81882F90E0A90102C0559547958A95B4
:10389000E2F7CA018170898323C0E3E3F0E080810D
:1038A000282F30E08B81882F90E0A90102C0559528
:1038B00047958A95E2F7CA018170898311C0E0E3D8
:1038C000F0E08081282F30E08B81882F90E0A901E3
:1038D00002C0559547958A95E2F7CA0181708983A0
:1038E00089810F900F900F900F900F90CF91DF91E3
:1038F0000895DF93CF9300D000D000D0CDB7DEB7CE
:1039000089836A838981282F30E03E832D838D81CE
:103910009E8185309105D9F02D813E81263031057B
:1039200034F48D819E818430910561F01EC02D811B
:103930003E812630310581F08D819E818730910551
:1039400081F013C0EAE3F0E08A8180830EC0E7E3F0
:10395000F0E08A81808309C0E4E3F0E08A8180831B
:1039600004C0E1E3F0E08A8180838981282F30E080
:103970003C832B838B819C8185309105D9F02B81F1
:103980003C812630310534F48B819C818430910553
:1039900061F01EC02B813C812630310581F08B8186
:1039A0009C818730910581F013C0EAE3F0E08A81C1
:1039B00080830EC0E7E3F0E08A81808309C0E4E3FE
:1039C000F0E08A81808304C0E1E3F0E08A818083B3
:1039D00026960FB6F894DEBF0FBECDBFCF91DF9114
:1039E0000895DF93CF9300D000D0CDB7DEB78983A1
:1039F0006A838981282F30E03C832B838B819C81D3
:103A000081309105D1F02B813C81223031052CF49D
:103A10008B819C81009761F01EC02B813C812230FC
:103A2000310581F08B819C818330910581F013C039
:103A3000EBE3F0E08A8180830EC0E8E3F0E08A8166
:103A4000808309C0E5E3F0E08A81808304C0E2E37B
:103A5000F0E08A8180830F900F900F900F90CF91AC
:103A6000DF9108950F931F93DF93CF93CDB7DEB708
:103A7000C654D0400FB6F894DEBF0FBECDBFFE01D6
:103A8000ED5BFF4F80E090E0A0E2B2E480839183A1
:103A9000A283B3838E01015C1F4FFE01ED5BFF4FDC
:103AA000608171818281938120E030E04AEF54E4AB
:103AB0000E941F02DC01CB01F80180839183A28365
:103AC000B383FE01FF96608171818281938120E042
:103AD00030E040E85FE30E94790388232CF481E022
:103AE00090E09EAF8DAF46C0FE01FF966081718170
:103AF0008281938120E03FEF4FE757E40E94190352
:103B0000181664F5FE01ED5BFF4F608171818281C3
:103B1000938120E030E040E251E40E941F02DC018A
:103B2000CB01BC01CD010E944900DC01CB019EAF5D
:103B30008DAF0FC088EC90E09CAF8BAF8BAD9CAD90
:103B40000197F1F79CAF8BAF8DAD9EAD01979EAF06
:103B50008DAF8DAD9EAD009769F716C0FE01FF9643
:103B600060817181828193810E944900DC01CB01D7
:103B70009EAF8DAF8DAD9EAD9AAF89AF89AD9AAD39
:103B80000197F1F79AAF89AF88E30E94A41F80E004
:103B900090E0A0E8BFE38DAB9EABAFABB8AF6DA933
:103BA0007EA98FA998AD20E030E04AEF54E40E944E
:103BB0001F02DC01CB0189AB9AABABABBCAB69A9F3
:103BC0007AA98BA99CA920E030E040E85FE30E943D
:103BD000790388232CF481E090E098AB8FA73FC055
:103BE00069A97AA98BA99CA920E03FEF4FE757E488
:103BF0000E94190318164CF56DA97EA98FA998ADDE
:103C000020E030E040E251E40E941F02DC01CB01E1
:103C1000BC01CD010E944900DC01CB0198AB8FA70C
:103C20000FC088EC90E09EA78DA78DA59EA501975B
:103C3000F1F79EA78DA78FA598A9019798AB8FA79D
:103C40008FA598A9009769F714C069A97AA98BA9CB
:103C50009CA90E944900DC01CB0198AB8FA78FA5DE
:103C600098A99CA78BA78BA59CA50197F1F79CA76A
:103C70008BA78CE00E94A41F80E090E0A0E8BFE347
:103C80008FA398A7A9A7BAA76FA178A589A59AA578
:103C900020E030E04AEF54E40E941F02DC01CB0137
:103CA0008BA39CA3ADA3BEA36BA17CA18DA19EA160
:103CB00020E030E040E85FE30E94790388232CF4A1
:103CC00081E090E09AA389A33FC06BA17CA18DA164
:103CD0009EA120E03FEF4FE757E40E94190318161A
:103CE0004CF56FA178A589A59AA520E030E040E2C7
:103CF00051E40E941F02DC01CB01BC01CD010E94F6
:103D00004900DC01CB019AA389A30FC088EC90E0A5
:103D100098A38F8F8F8D98A10197F1F798A38F8F1C
:103D200089A19AA101979AA389A389A19AA1009731
:103D300069F714C06BA17CA18DA19EA10E944900CE
:103D4000DC01CB019AA389A389A19AA19E8F8D8FB3
:103D50008D8D9E8D0197F1F79E8F8D8F81E00E9452
:103D6000A41F80E090E0A0E0B0E4898F9A8FAB8F31
:103D7000BC8F698D7A8D8B8D9C8D20E030E04AEF71
:103D800054E40E941F02DC01CB018D8B9E8BAF8B14
:103D9000B88F6D897E898F89988D20E030E040E86A
:103DA0005FE30E94790388232CF481E090E09C8BF0
:103DB0008B8B3FC06D897E898F89988D20E03FEF86
:103DC0004FE757E40E94190318164CF5698D7A8D58
:103DD0008B8D9C8D20E030E040E251E40E941F0278
:103DE000DC01CB01BC01CD010E944900DC01CB010B
:103DF0009C8B8B8B0FC088EC90E09A8B898B898988
:103E00009A890197F1F79A8B898B8B899C89019705
:103E10009C8B8B8B8B899C89009769F714C06D896B
:103E20007E898F89988D0E944900DC01CB019C8B93
:103E30008B8B8B899C89988B8F878F85988901972D
:103E4000F1F7988B8F878AE00E94A41F80E090E0B2
:103E5000A0E8BFE38B879C87AD87BE876B857C8599
:103E60008D859E8520E030E04AEF54E40E941F02D9
:103E7000DC01CB018F839887A987BA876F8178850A
:103E800089859A8520E030E040E85FE30E9479036D
:103E900088232CF481E090E09E838D833FC06F8166
:103EA000788589859A8520E03FEF4FE757E40E94A7
:103EB000190318164CF56B857C858D859E8520E051
:103EC00030E040E251E40E941F02DC01CB01BC0162
:103ED000CD010E944900DC01CB019E838D830FC080
:103EE00088EC90E09C838B838B819C810197F1F718
:103EF0009C838B838D819E8101979E838D838D8191
:103F00009E81009769F714C06F81788589859A85AD
:103F10000E944900DC01CB019E838D838D819E81AF
:103F20009A83898389819A810197F1F79A8389839A
:103F3000CA5BDF4F0FB6F894DEBF0FBECDBFCF9187
:103F4000DF911F910F910895DF93CF93CDB7DEB727
:103F50006D970FB6F894DEBF0FBECDBF8D8F81E099
:103F600062E040E00E94FF1981E060E040E00E94D2
:103F7000FF1981E061E040E00E94FF1980E06D8D53
:103F80000E94F11C80E090E0A0E8BFE3898F9A8F47
:103F9000AB8FBC8F698D7A8D8B8D9C8D20E030E04E
:103FA0004AEF54E40E941F02DC01CB018D8B9E8BF3
:103FB000AF8BB88F6D897E898F89988D20E030E036
:103FC00040E85FE30E94790388232CF481E090E0CD
:103FD0009C8B8B8B3FC06D897E898F89988D20E06B
:103FE0003FEF4FE757E40E94190318164CF5698D0F
:103FF0007A8D8B8D9C8D20E030E040E251E40E9470
:104000001F02DC01CB01BC01CD010E944900DC0193
:10401000CB019C8B8B8B0FC088EC90E09A8B898BAB
:1040200089899A890197F1F79A8B898B8B899C8969
:1040300001979C8B8B8B8B899C89009769F714C0A7
:104040006D897E898F89988D0E944900DC01CB01A2
:104050009C8B8B8B8B899C89988B8F878F8598897C
:104060000197F1F7988B8F8781E062E041E00E9431
:10407000FF1980E090E0A0E8BFE38B879C87AD87C5
:10408000BE876B857C858D859E8520E030E04AEF7C
:1040900054E40E941F02DC01CB018F839887A9871B
:1040A000BA876F81788589859A8520E030E040E87D
:1040B0005FE30E94790388232CF481E090E09E83E3
:1040C0008D833FC06F81788589859A8520E03FEF99
:1040D0004FE757E40E94190318164CF56B857C8551
:1040E0008D859E8520E030E040E251E40E941F0271
:1040F000DC01CB01BC01CD010E944900DC01CB01F8
:104100009E838D830FC088EC90E09C838B838B8192
:104110009C810197F1F79C838B838D819E81019710
:104120009E838D838D819E81009769F714C06F8176
:10413000788589859A850E944900DC01CB019E83A0
:104140008D838D819E819A83898389819A8101974C
:10415000F1F79A83898381E062E040E00E94FF19D1
:104160006D960FB6F894DEBF0FBECDBFCF91DF9135
:104170000895DF93CF93CDB7DEB76D970FB6F89460
:10418000DEBF0FBECDBF8D8F81E062E040E00E94B8
:10419000FF1981E060E041E00E94FF1981E061E0E9
:1041A00040E00E94FF1980E06D8D0E94F11C80E0CC
:1041B00090E0A0E8BFE3898F9A8FAB8FBC8F698DA9
:1041C0007A8D8B8D9C8D20E030E04AEF54E40E9484
:1041D0001F02DC01CB018D8B9E8BAF8BB88F6D895D
:1041E0007E898F89988D20E030E040E85FE30E946F
:1041F000790388232CF481E090E09C8B8B8B3FC06B
:104200006D897E898F89988D20E03FEF4FE757E4D5
:104210000E94190318164CF5698D7A8D8B8D9C8D33
:1042200020E030E040E251E40E941F02DC01CB01BB
:10423000BC01CD010E944900DC01CB019C8B8B8B22
:104240000FC088EC90E09A8B898B89899A890197B5
:10425000F1F79A8B898B8B899C8901979C8B8B8B2F
:104260008B899C89009769F714C06D897E898F8935
:10427000988D0E944900DC01CB019C8B8B8B8B8934
:104280009C89988B8F878F8598890197F1F7988BF8
:104290008F8781E062E041E00E94FF1980E090E0BA
:1042A000A0E8BFE38B879C87AD87BE876B857C8545
:1042B0008D859E8520E030E04AEF54E40E941F0285
:1042C000DC01CB018F839887A987BA876F817885B6
:1042D00089859A8520E030E040E85FE30E94790319
:1042E00088232CF481E090E09E838D833FC06F8112
:1042F000788589859A8520E03FEF4FE757E40E9453
:10430000190318164CF56B857C858D859E8520E0FC
:1043100030E040E251E40E941F02DC01CB01BC010D
:10432000CD010E944900DC01CB019E838D830FC02B
:1043300088EC90E09C838B838B819C810197F1F7C3
:104340009C838B838D819E8101979E838D838D813C
:104350009E81009769F714C06F81788589859A8559
:104360000E944900DC01CB019E838D838D819E815B
:104370009A83898389819A810197F1F79A83898346
:1043800081E062E040E00E94FF196D960FB6F8945C
:10439000DEBF0FBECDBFCF91DF910895DF93CF93E6
:1043A00000D0CDB7DEB789836A838981882F90E0FA
:1043B0000024969587950794969587950794982F4E
:1043C000802D982F8A81890F80680E94A41F0F90EA
:1043D0000F90CF91DF910895DF93CF93CDB7DEB7E4
:1043E00027970FB6F894DEBF0FBECDBF9C838B839B
:1043F0006D834E832F838D81882F90E0880F991FC6
:10440000880F991F880F991F8983898180640E9472
:10441000A41F1A820EC08A81282F30E08B819C81D4
:10442000FC01E20FF31F80810E94B9208A818F5F17
:104430008A838A81883078F38E816F810E94CE21B1
:104440008D810E94B92027960FB6F894DEBF0FBE6B
:10445000CDBFCF91DF910895DF93CF93CDB7DEB776
:104460002E970FB6F894DEBF0FBECDBF98878F830F
:104470002DB73EB73E872D878DB79EB79A87898720
:104480001C828F8198859A8389830DC089819A8146
:104490002AE030E0B9010E947E23CB019A83898310
:1044A0008C818F5F8C8389819A81009779F78C81C9
:1044B000882F90E02DB73EB7281B390B0FB6F89424
:1044C0003EBF0FBE2DBF8DB79EB701969C878B87D1
:1044D0008B859C8500969C878B872B853C853E83AE
:1044E0002D838C818B8320C08B81882F90E0FC01F1
:1044F00031978F8198852AE030E0B9010E947E23B0
:10450000282F205D8D819E81E80FF91F20838F81E8
:1045100098852AE030E0B9010E947E23CB0198877C
:104520008F838B8181508B838B818823E9F61B825B
:104530000EC08B81282F30E08D819E81FC01E20F1F
:10454000F31F80810E94B9208B818F5F8B839B81B9
:104550008C81981770F389859A850FB6F8949EBF61
:104560000FBE8DBF2D853E850FB6F8943EBF0FBEA2
:104570002DBF2E960FB6F894DEBF0FBECDBFCF91E4
:10458000DF910895DF93CF9300D00F92CDB7DEB7C0
:104590009B838A8319820EC08981282F30E08A810B
:1045A0009B81FC01E20FF31F80810E94B920898169
:1045B0008F5F89838981282F30E08A819B81FC016C
:1045C000E20FF31F8081882339F70F900F900F902F
:1045D000CF91DF910895AF92BF92CF92DF92EF9289
:1045E000FF920F93DF93CF93CDB7DEB70E94321DBA
:1045F00084E06FEF0E94791C85E06FEF0E94791CC8
:1046000081E00E94A41F85E690E00E94C2228EE510
:1046100093E260E070E04AEF50E020E030E001E03B
:10462000EE24FF24CC24DD24AA24BB240E94941170
:104630008EE693E260E070E04AEF50E020E030E088
:1046400001E0EE24FF24CC24DD24AA24BB240E9414
:1046500094110E94EC14FFCFDF93CF9300D0CDB71D
:10466000DEB79A83898386E060E041E00E94FF1A0A
:10467000A5E3B0E0E5E3F0E0908181E089278C9349
:1046800088EC90E00E945813F3CFDF93CF9300D0D3
:10469000CDB7DEB79A83898386E061E041E00E946E
:1046A000FF1AA5E3B0E0E5E3F0E0908182E089271E
:1046B0008C9388EE93E00E945813F3CFDF93CF934F
:1046C00000D0CDB7DEB79A8389838CE690E00E9454
:1046D000C22284EF91E00E945813F7CFDF93CF936B
:1046E00000D0CDB7DEB79A83898385E690E00E943B
:1046F000C22284EF91E00E945813F7CFAA1BBB1B84
:1047000051E107C0AA1FBB1FA617B70710F0A61BD1
:10471000B70B881F991F5A95A9F780959095BC01F2
:10472000CD0108952F923F924F925F926F927F92A8
:104730008F929F92AF92BF92CF92DF92EF92FF92B1
:104740000F931F93CF93DF93CDB7DEB7CA1BDB0B5D
:104750000FB6F894DEBF0FBECDBF09942A88398802
:1047600048885F846E847D848C849B84AA84B98409
:10477000C884DF80EE80FD800C811B81AA81B98115
:10478000CE0FD11D0FB6F894DEBF0FBECDBFED0129
:104790000895FB01DC0102C001900D924150504090
:1047A000D8F70895DC0101C06D9341505040E0F707
:1047B0000895FB01DC014150504048F001900D92FA
:1047C0000020C9F701C01D9241505040E0F7089504
:0447D000F894FFCF8B
:1047D40049444C45005461736B2032005461736B3F
:0E47E4002031000000000000000000FFFF0078
:00000001FF
