:100000000C942A000C943C000C943C000C943C0092
:100010000C943C000C943C000C943C000C943C0070
:100020000C943C000C943C000C94C2050C943C00D5
:100030000C943C000C943C000C943C000C943C0050
:100040000C943C000C943C000C943C000C943C0040
:100050000C943C0011241FBECFE5D8E0DEBFCDBF1D
:1000600010E0A0E6B0E001C01D92A437B107E1F7AF
:100070000E9479050C9415060C940000DF93CF9331
:10008000CDB7DEB727970FB6F894DEBF0FBECDBF52
:1000900089836A834B838B81813009F06FC08981AA
:1000A000282F30E03F832E838E819F818130910500
:1000B00049F12E813F81223031052CF48E819F81C0
:1000C000009761F0D2C02E813F812230310571F15D
:1000D0008E819F8183309105E9F1C7C0ABE3B0E029
:1000E000EBE3F0E08081482F8A81282F30E081E027
:1000F00090E0022E02C0880F991F0A94E2F7842B29
:100100008C93B3C0A8E3B0E0E8E3F0E08081482F2F
:100110008A81282F30E081E090E0022E02C0880F13
:10012000991F0A94E2F7842B8C939FC0A5E3B0E05B
:10013000E5E3F0E08081482F8A81282F30E081E0DC
:1001400090E0022E02C0880F991F0A94E2F7842BD8
:100150008C938BC0A2E3B0E0E2E3F0E08081482F13
:100160008A81282F30E081E090E0022E02C0880FC3
:10017000991F0A94E2F7842B8C9377C08B81882394
:1001800009F073C08981282F30E03D832C838C8156
:100190009D818130910559F12C813D8122303105BD
:1001A0002CF48C819D81009769F05FC02C813D818A
:1001B0002230310589F18C819D818330910509F4CC
:1001C00040C053C0ABE3B0E0EBE3F0E08081482FE8
:1001D0008A81282F30E081E090E0022E02C0880F53
:1001E000991F0A94E2F7809584238C933EC0A8E37C
:1001F000B0E0E8E3F0E08081482F8A81282F30E0EA
:1002000081E090E0022E02C0880F991F0A94E2F765
:10021000809584238C9329C0A5E3B0E0E5E3F0E06A
:100220008081482F8A81282F30E081E090E0022EE3
:1002300002C0880F991F0A94E2F7809584238C935B
:1002400014C0A2E3B0E0E2E3F0E08081482F8A81AD
:10025000282F30E081E090E0022E02C0880F991F25
:100260000A94E2F7809584238C9327960FB6F8942E
:10027000DEBF0FBECDBFCF91DF910895DF93CF9347
:10028000CDB7DEB727970FB6F894DEBF0FBECDBF50
:1002900089836A834B838B81813009F06FC08981A8
:1002A000282F30E03F832E838E819F8185309105FA
:1002B00051F12E813F812630310534F48E819F81AA
:1002C0008430910561F05AC02E813F81263031057E
:1002D00071F18E819F8187309105E9F14FC0AAE3CA
:1002E000B0E0EAE3F0E08081482F8A81282F30E0F7
:1002F00081E090E0022E02C0880F991F0A94E2F775
:10030000842B8C933BC0A7E3B0E0E7E3F0E080816F
:10031000482F8A81282F30E081E090E0022E02C031
:10032000880F991F0A94E2F7842B8C9327C0A4E3CB
:10033000B0E0E4E3F0E08081482F8A81282F30E0AC
:1003400081E090E0022E02C0880F991F0A94E2F724
:10035000842B8C9313C0A1E3B0E0E1E3F0E0808153
:10036000482F8A81282F30E081E090E0022E02C0E1
:10037000880F991F0A94E2F7842B8C938B81882332
:1003800009F074C08981282F30E03D832C838C8153
:100390009D818530910561F12C813D8126303105AB
:1003A00034F48C819D818430910569F05FC02C818B
:1003B0003D812630310589F18C819D818730910501
:1003C00009F440C053C0AAE3B0E0EAE3F0E0808162
:1003D000482F8A81282F30E081E090E0022E02C071
:1003E000880F991F0A94E2F7809584238C933EC06E
:1003F000A7E3B0E0E7E3F0E08081482F8A81282F6F
:1004000030E081E090E0022E02C0880F991F0A942C
:10041000E2F7809584238C9329C0A4E3B0E0E4E361
:10042000F0E08081482F8A81282F30E081E090E041
:10043000022E02C0880F991F0A94E2F78095842348
:100440008C9314C0A1E3B0E0E1E3F0E08081482F99
:100450008A81282F30E081E090E0022E02C0880FD0
:10046000991F0A94E2F7809584238C9327960FB600
:10047000F894DEBF0FBECDBFCF91DF910895DF931B
:10048000CF9300D000D00F92CDB7DEB78A836B83B5
:100490008A81282F30E03D832C834C815D8141305F
:1004A000510541F18C819D818230910534F42C817C
:1004B0003D812115310561F052C04C815D81423092
:1004C000510551F18C819D8183309105B9F147C06F
:1004D000E9E3F0E08081282F30E08B81882F90E0E5
:1004E000A90102C0559547958A95E2F7CA01817026
:1004F000898335C0E6E3F0E08081282F30E08B81EE
:10050000882F90E0A90102C0559547958A95E2F79A
:10051000CA018170898323C0E3E3F0E08081282F42
:1005200030E08B81882F90E0A90102C05595479556
:100530008A95E2F7CA018170898311C0E0E3F0E097
:100540008081282F30E08B81882F90E0A90102C0A4
:10055000559547958A95E2F7CA018170898389810B
:100560000F900F900F900F900F90CF91DF91089503
:10057000DF93CF9300D000D000D0CDB7DEB7898312
:100580006A838981282F30E03E832D838D819E816F
:1005900085309105D9F02D813E812630310534F426
:1005A0008D819E818430910561F01EC02D813E8138
:1005B0002630310581F08D819E818730910581F053
:1005C00013C0EAE3F0E08A8180830EC0E7E3F0E045
:1005D0008A81808309C0E4E3F0E08A81808304C0DB
:1005E000E1E3F0E08A8180838981282F30E03C8339
:1005F0002B838B819C8185309105D9F02B813C81A7
:100600002630310534F48B819C818430910561F072
:100610001EC02B813C812630310581F08B819C816D
:100620008730910581F013C0EAE3F0E08A8180838E
:100630000EC0E7E3F0E08A81808309C0E4E3F0E0E4
:100640008A81808304C0E1E3F0E08A81808326967A
:100650000FB6F894DEBF0FBECDBFCF91DF910895E6
:10066000DF93CF9300D000D0CDB7DEB789836A8304
:100670008981282F30E03C832B838B819C818130C2
:100680009105D1F02B813C81223031052CF48B81F6
:100690009C81009761F01EC02B813C812230310586
:1006A00081F08B819C818330910581F013C0EBE355
:1006B000F0E08A8180830EC0E8E3F0E08A818083E5
:1006C00009C0E5E3F0E08A81808304C0E2E3F0E062
:1006D0008A8180830F900F900F900F90CF91DF91C0
:1006E0000895DF93CF93CDB7DEB7A5E5B0E0E5E59C
:1006F000F0E0808182608C93A5E5B0E0E5E5F0E074
:1007000080818E7F8C93ABE5B0E0EBE5F0E08081FB
:1007100080688C93CF91DF910895DF93CF93CDB70D
:10072000DEB7A5E5B0E0E5E5F0E0808182608C937E
:10073000A5E5B0E0E5E5F0E080818E7F8C93ABE548
:10074000B0E0EBE5F0E0808180648C93CF91DF91A5
:100750000895DF93CF93CDB7DEB7A5E5B0E0E5E52B
:10076000F0E0808182608C93A5E5B0E0E5E5F0E003
:10077000808181608C93ABE5B0E0EBE5F0E08081B7
:1007800080648C93CF91DF910895DF93CF93CDB7A1
:10079000DEB7A5E5B0E0E5E5F0E0808182608C930E
:1007A000A5E5B0E0E5E5F0E080818E7F8C93ABE5D8
:1007B000B0E0EBE5F0E0808180628C93CF91DF9137
:1007C0000895DF93CF93CDB7DEB7AFE5B0E0EFE5A7
:1007D000F0E0808180688C93CF91DF910895DF9362
:1007E000CF93CDB7DEB7AFE5B0E0EFE5F0E08081C5
:1007F0008F778C93CF91DF910895DF93CF9300D0C3
:10080000CDB7DEB79A83898389819A8190936500F9
:10081000809364000F900F90CF91DF910895DF9344
:10082000CF9300D000D00F92CDB7DEB789837B8302
:100830006A835D834C838981882F90E0880F991F9C
:10084000880F991FFC01EA59FF4F8A819B81918390
:1008500080838981882F90E0880F991F0196880FE7
:10086000991FFC01EA59FF4F8C819D819183808300
:100870000F900F900F900F900F90CF91DF910895F0
:10088000DF93CF930F92CDB7DEB780916000909148
:10089000610001969093610080936000198228C0E6
:1008A00040916000509161008981882F90E0880F0D
:1008B000991F880F991FFC01EA59FF4F2081318150
:1008C000CA01B9010E940106009779F48981882F35
:1008D00090E0880F991F0196880F991FFC01EA5933
:1008E000FF4F0190F081E02D099589818F5F898309
:1008F00089818330A8F20F90CF91DF910895DF9323
:10090000CF93CDB7DEB7A3E5B0E0E3E5F0E08081BB
:100910008F7B8C93A3E5B0E0E3E5F0E08081877FF7
:100920008C93E2E5F0E08BE78083A9E5B0E0E9E5B0
:10093000F0E0808181608C93A3E5B0E0E3E5F0E036
:10094000808181608C93A3E5B0E0E3E5F0E08081F5
:100950008D7F8C93A3E5B0E0E3E5F0E080818460D7
:100960008C93CF91DF910895DF93CF93CDB7DEB70E
:10097000A3E5B0E0E3E5F0E080818F7B8C93A3E515
:10098000B0E0E3E5F0E08081877F8C93E2E5F0E082
:100990001082A9E5B0E0E9E5F0E0808181608C9308
:1009A000A3E5B0E0E3E5F0E080818E7F8C93A3E5E2
:1009B000B0E0E3E5F0E0808182608C93A3E5B0E0F5
:1009C000E3E5F0E0808184608C93CF91DF9108951E
:1009D000DF93CF93CDB7DEB7A3E5B0E0E3E5F0E07A
:1009E00080818F7B8C93A3E5B0E0E3E5F0E080812C
:1009F00088608C93ECE5F0E08DE78083A3E5B0E0C0
:100A0000E3E5F0E080818F7E8C93A3E5B0E0E3E541
:100A1000F0E0808180628C93A9E5B0E0E9E5F0E048
:100A2000808182608C93A3E5B0E0E3E5F0E0808113
:100A300081608C93A3E5B0E0E3E5F0E08081826023
:100A40008C93A3E5B0E0E3E5F0E080818B7F8C93AD
:100A5000CF91DF910895DF93CF93CDB7DEB7A3E5B4
:100A6000B0E0E3E5F0E0808180648C93A3E5B0E042
:100A7000E3E5F0E0808188608C93ECE5F0E080E2D3
:100A80008083A3E5B0E0E3E5F0E080818F7E8C9386
:100A9000A3E5B0E0E3E5F0E0808180628C93A3E51C
:100AA000B0E0E3E5F0E080818E7F8C93A3E5B0E0D9
:100AB000E3E5F0E0808182608C93A3E5B0E0E3E5BC
:100AC000F0E080818B7F8C93CF91DF910895DF934D
:100AD000CF9300D0CDB7DEB79A83898389819A817D
:100AE00090937300809372000F900F90CF91DF91DD
:100AF0000895DF93CF93CDB7DEB786E06FEF0E9406
:100B0000B8020E94E8040E94E1032EE935E080E08B
:100B100061E070E0A9010E940F042AEA35E081E05B
:100B200062E070E0A9010E940F0426EB35E082E04C
:100B300063E070E0A9010E940F04FFCFDF93CF9321
:100B4000CDB7DEB782E060E041E00E943E00CF9189
:100B5000DF910895DF93CF93CDB7DEB782E061E0F8
:100B600041E00E943E00CF91DF910895DF93CF9343
:100B7000CDB7DEB782E062E041E00E943E00CF9157
:100B8000DF9108951F920F920FB60F9211242F93A9
:100B90003F934F935F936F937F938F939F93AF9305
:100BA000BF93EF93FF93DF93CF93CDB7DEB78091E1
:100BB00062009091630001969093630080936200BD
:100BC000809162009091630023E0883E920731F4A7
:100BD0000E9440041092630010926200CF91DF9156
:100BE000FF91EF91BF91AF919F918F917F916F9105
:100BF0005F914F913F912F910F900FBE0F901F90DB
:100C00001895AA1BBB1B51E107C0AA1FBB1FA61743
:100C1000B70710F0A61BB70B881F991F5A95A9F7A5
:0E0C200080959095BC01CD010895F894FFCF0A
:00000001FF
