:100000000C942A000C9447000C9447000C94470071
:100010000C9447000C9447000C9447000C94470044
:100020000C9447000C9447000C9447000C94470034
:100030000C9447000C9447000C9447000C94470024
:100040000C9447000C9447000C9447000C94470014
:100050000C94470011241FBECFE5D8E0DEBFCDBF12
:1000600015E0A0E6B0E0ECE3F9E302C005900D92E4
:10007000AC34B107D9F715E0ACE4B5E001C01D928E
:10008000A136B107E1F70E947D100C949C1C0C94E2
:100090000000EF92FF920F931F937B018C0120E0F1
:1000A00030E040E05FE40E94490388238CF0C801FF
:1000B000B70120E030E040E05FE40E94C1010E940F
:1000C000A9039B01AC01205030404040504806C07D
:1000D000C801B7010E94A9039B01AC01B901CA0183
:1000E0001F910F91FF90EF900895A0E0B0E0EBE733
:1000F000F0E00C94651CDC012B01FA019C9192301C
:1001000008F439C1EB018881823008F433C194309E
:1001100069F4843009F02FC111969C91119789815F
:10012000981709F428C1ABEDB2E025C1843009F479
:1001300021C18230A9F4923009F01DC19A01AD01AC
:1001400088E0EA010990AE01E90109929E0181501F
:10015000C1F7E201898111969C918923818308C1AD
:10016000923009F407C112962D903C901397EB0141
:100170008A819B811496AD90BD90CD90DC901797AD
:10018000EC80FD800E811F819101281B390BB90184
:1001900037FF04C066277727621B730B6032710537
:1001A0000CF061C0121613066CF537014801062EDB
:1001B00004C096948794779467940A94D2F721E0C8
:1001C00030E040E050E004C0220F331F441F551FB1
:1001D0006A95D2F721503040404050402E213F21B7
:1001E00040235123211531054105510521F021E01E
:1001F00030E040E050E079018A01E628F72808293C
:1002000019293CC0232BD1F1260E371E350146019A
:10021000062E04C096948794779467940A94D2F734
:1002200021E030E040E050E004C0220F331F441FC3
:10023000551F6A95D2F721503040404050402A2146
:100240003B214C215D21211531054105510521F04E
:1002500021E030E040E050E059016A01A628B728CB
:10026000C828D9280BC0821593052CF01C01AA249C
:10027000BB24650103C0EE24FF24870111969C91E5
:10028000D20111968C91981709F445C0992339F041
:10029000A80197012A193B094C095D0906C0A6016E
:1002A00095012E193F09400B510B57FD08C01182D3
:1002B0003382228224833583468357831DC081E0A5
:1002C00081833382228288279927DC01821B930B4A
:1002D000A40BB50B84839583A683B7830DC0220F2F
:1002E000331F441F551F24833583468357838281E0
:1002F000938101979383828324813581468157813D
:10030000DA01C9010197A109B1098F5F9F4FAF4F72
:10031000BF4328F30BC0918333822282EA0CFB1C7B
:100320000C1D1D1DE482F5820683178383E0808304
:10033000248135814681578157FF1AC0C901AA27F8
:1003400097FDA095BA2F81709070A070B0705695EF
:10035000479537952795822B932BA42BB52B848318
:100360009583A683B7838281938101969383828349
:10037000DF0101C0D201CD01CDB7DEB7E2E10C94BF
:10038000811CA0E2B0E0E7ECF1E00C94711C698301
:100390007A838B839C832D833E834F835887E9E048
:1003A000EE2EF12CEC0EFD1ECE010196B7010E943F
:1003B000D2048E010F5E1F4FCE010596B8010E9438
:1003C000D2048A8991E089278A8BC701B801AE01DE
:1003D000475E5F4F0E9475000E94FD03A096E6E015
:1003E0000C948D1CA0E2B0E0E8EFF1E00C94711CDD
:1003F00069837A838B839C832D833E834F835887C5
:10040000F9E0EF2EF12CEC0EFD1ECE010196B701A6
:100410000E94D2048E010F5E1F4FCE010596B801D7
:100420000E94D204C701B801AE01475E5F4F0E942F
:1004300075000E94FD03A096E6E00C948D1CA0E2DE
:10044000B0E0E5E2F2E00C94651C69837A838B836B
:100450009C832D833E834F835887CE010196BE0136
:10046000675F7F4F0E94D204CE010596BE016F5E8A
:100470007F4F0E94D2049985923088F0898982301A
:10048000C8F0943019F4823051F404C0843029F457
:10049000923081F48BED92E0C6C0923049F420E0B6
:1004A0009A858A89981321E02A87CE010996BBC0D4
:1004B000823049F420E09A858A89981321E02A8BBA
:1004C000CE014196B0C02D843E844F8458886D88FB
:1004D0007E888F88988CEE24FF248701AA24BB2471
:1004E000650140E050E060E070E0E0E0F0E0C10174
:1004F00081709070892BE9F0E60CF71C081D191D1E
:100500009A01AB012A0D3B1D4C1D5D1D80E090E062
:10051000A0E0B0E0E614F7040805190520F481E036
:1005200090E0A0E0B0E0BA01A901480F591F6A1F8E
:100530007B1FAA0CBB1CCC1CDD1C97FE08C081E0F5
:1005400090E0A0E0B0E0A82AB92ACA2ADB2A3196B6
:10055000E032F10549F0660C771C881C991C569412
:10056000479437942794C3CFFA85EA892B893C892D
:100570008B859C85280F391F2E5F3F4F17C0CA01FE
:1005800081709070892B61F016950795F794E79428
:1005900080E090E0A0E0B0E8E82AF92A0A2B1B2BC3
:1005A00076956795579547952F5F3F4F77FDE7CF36
:1005B0000CC0440F551F661F771F17FD4160EE0CDE
:1005C000FF1C001F111F21503040403090E05907A0
:1005D00090E0690790E4790760F32B8F3C8FDB0193
:1005E000CA018F779070A070B07080349105A1051A
:1005F000B10561F447FD0AC0E114F10401051105DC
:1006000029F0405C5F4F6F4F7F4F40781A8EFE1786
:1006100011F081E08A8F4D8F5E8F6F8F78A383E01A
:10062000898FCE0149960E94FD03A096E2E10C94C9
:10063000811CA8E1B0E0EFE1F3E00C94711C698348
:100640007A838B839C832D833E834F83588789E0F5
:10065000E82EF12CEC0EFD1ECE010196B7010E9492
:10066000D2048E010F5E1F4FCE010596B8010E9485
:10067000D2048985823040F08989823028F0C70110
:10068000B8010E944A0501C08FEF6896E6E00C941D
:100690008D1CA8E1B0E0EFE4F3E00C94711C6983D9
:1006A0007A838B839C832D833E834F83588789E095
:1006B000E82EF12CEC0EFD1ECE010196B7010E9432
:1006C000D2048E010F5E1F4FCE010596B8010E9425
:1006D000D2048985823040F08989823028F0C701B0
:1006E000B8010E944A0501C08FEF6896E6E00C94BD
:1006F0008D1CA8E1B0E0EFE7F3E00C94711C698376
:100700007A838B839C832D833E834F83588789E034
:10071000E82EF12CEC0EFD1ECE010196B7010E94D1
:10072000D2048E010F5E1F4FCE010596B8010E94C4
:10073000D2048985823040F08989823028F0C7014F
:10074000B8010E944A0501C081E06896E6E00C9479
:100750008D1CACE0B0E0EFEAF3E00C94751C69830B
:100760007A838B839C83CE010196BE016B5F7F4FA2
:100770000E94D2048D81823061F1823050F1843048
:1007800021F48E81882351F12EC02F81388537FDC9
:1007900020C06E812F3131051CF06623F9F023C093
:1007A0008EE190E0821B930B29853A854B855C8511
:1007B00004C056954795379527958A95D2F76623B5
:1007C000B1F050954095309521953F4F4F4F5F4F79
:1007D0000EC020E030E040E050E009C02FEF3FEFD6
:1007E0004FEF5FE704C020E030E040E050E8B9019F
:1007F000CA012C96E2E00C94911CDF92EF92FF92DA
:100800000F931F93FC01E480F58006811781D1804E
:100810008081823048F480E090E0A0E1B0E0E82AF6
:10082000F92A0A2B1B2BA5C0843009F49FC0823003
:1008300021F4EE24FF24870105C0E114F104010531
:10084000110519F4E0E0F0E096C0628173819FEF3A
:10085000623879070CF05BC022E83FEF261B370BAC
:100860002A3131052CF020E030E040E050E02AC091
:10087000B801A701022E04C0769567955795479554
:100880000A94D2F781E090E0A0E0B0E004C0880FC5
:10089000991FAA1FBB1F2A95D2F70197A109B10979
:1008A0008E219F21A023B1230097A105B10521F03E
:1008B00081E090E0A0E0B0E09A01AB01282B392B59
:1008C0004A2B5B2BDA01C9018F779070A070B07052
:1008D00080349105A105B10539F427FF09C0205CDA
:1008E0003F4F4F4F5F4F04C0215C3F4F4F4F5F4F13
:1008F000E0E0F0E02030A0E03A07A0E04A07A0E402
:100900005A0710F0E1E0F0E079018A0127C0603871
:10091000710564F5FB01E158FF4FD801C7018F77DE
:100920009070A070B07080349105A105B10539F4C4
:10093000E7FE0DC080E490E0A0E0B0E004C08FE3EB
:1009400090E0A0E0B0E0E80EF91E0A1F1B1F17FFA1
:1009500005C016950795F794E794319687E01695AC
:100960000795F794E7948A95D1F705C0EE24FF2404
:100970008701EFEFF0E06E2F679566276795902F60
:100980009F77D794DD24D7948E2F8695492F462BB9
:10099000582F5D29B701CA011F910F91FF90EF9069
:1009A000DF900895FC01DB01408151812281622F9B
:1009B0006F7770E0221F2227221F9381892F880FD3
:1009C000822B282F30E0991F9927991F11969C930D
:1009D000119721153105A9F54115510561057105DD
:1009E00011F482E037C082E89FEF13969C938E93B8
:1009F00012979A01AB0167E0220F331F441F551F66
:100A00006A95D1F783E08C930DC0220F331F441FEA
:100A1000551F12968D919C911397019713969C9355
:100A20008E931297203080E0380780E0480780E4FA
:100A3000580758F314962D933D934D935C93179755
:100A400008952F3F310579F4411551056105710570
:100A500019F484E08C93089564FF03C081E08C93C3
:100A600012C01C9210C02F57304013963C932E9307
:100A7000129783E08C9387E0440F551F661F771F02
:100A80008A95D1F7706414964D935D936D937C9322
:100A9000179708951F93DC01FB019C91923008F495
:100AA00047C08081823008F443C0943051F41196DD
:100AB0001C91843099F58181682F70E0611B710968
:100AC0003FC0843021F0923031F48230B9F181811D
:100AD000882389F12DC011961C9111978230F1F075
:100AE00081811817D9F412962D913C911397828128
:100AF00093818217930794F028173907BCF0149656
:100B00008D919D910D90BC91A02D248135814681C0
:100B10005781281739074A075B0718F4112341F05A
:100B20000AC082179307A407B50740F4112319F0F0
:100B300061E070E005C06FEF7FEF02C060E070E041
:100B4000CB011F910895DF93CF93CDB7DEB780E03F
:100B500060E040E00E94D60580E061E041E00E9454
:100B6000D605CF91DF910895DF93CF93CDB7DEB750
:100B700080E061E040E00E94D60580E060E041E076
:100B80000E94D605CF91DF910895DF93CF93CDB723
:100B9000DEB780E061E040E00E94D60580E060E0E2
:100BA00040E00E94D605CF91DF910895DF93CF9367
:100BB000CDB7DEB727970FB6F894DEBF0FBECDBF17
:100BC00089836A834B838B81813009F06FC089816F
:100BD000282F30E03F832E838E819F8181309105C5
:100BE00049F12E813F81223031052CF48E819F8185
:100BF000009761F0D2C02E813F812230310571F122
:100C00008E819F8183309105E9F1C7C0ABE3B0E0ED
:100C1000EBE3F0E08081482F8A81282F30E081E0EB
:100C200090E0022E02C0880F991F0A94E2F7842BED
:100C30008C93B3C0A8E3B0E0E8E3F0E08081482FF4
:100C40008A81282F30E081E090E0022E02C0880FD8
:100C5000991F0A94E2F7842B8C939FC0A5E3B0E020
:100C6000E5E3F0E08081482F8A81282F30E081E0A1
:100C700090E0022E02C0880F991F0A94E2F7842B9D
:100C80008C938BC0A2E3B0E0E2E3F0E08081482FD8
:100C90008A81282F30E081E090E0022E02C0880F88
:100CA000991F0A94E2F7842B8C9377C08B81882359
:100CB00009F073C08981282F30E03D832C838C811B
:100CC0009D818130910559F12C813D812230310582
:100CD0002CF48C819D81009769F05FC02C813D814F
:100CE0002230310589F18C819D818330910509F491
:100CF00040C053C0ABE3B0E0EBE3F0E08081482FAD
:100D00008A81282F30E081E090E0022E02C0880F17
:100D1000991F0A94E2F7809584238C933EC0A8E340
:100D2000B0E0E8E3F0E08081482F8A81282F30E0AE
:100D300081E090E0022E02C0880F991F0A94E2F72A
:100D4000809584238C9329C0A5E3B0E0E5E3F0E02F
:100D50008081482F8A81282F30E081E090E0022EA8
:100D600002C0880F991F0A94E2F7809584238C9320
:100D700014C0A2E3B0E0E2E3F0E08081482F8A8172
:100D8000282F30E081E090E0022E02C0880F991FEA
:100D90000A94E2F7809584238C9327960FB6F894F3
:100DA000DEBF0FBECDBFCF91DF910895DF93CF930C
:100DB000CDB7DEB727970FB6F894DEBF0FBECDBF15
:100DC00089836A834B838B81813009F06FC089816D
:100DD000282F30E03F832E838E819F8185309105BF
:100DE00051F12E813F812630310534F48E819F816F
:100DF0008430910561F05AC02E813F812630310543
:100E000071F18E819F8187309105E9F14FC0AAE38E
:100E1000B0E0EAE3F0E08081482F8A81282F30E0BB
:100E200081E090E0022E02C0880F991F0A94E2F739
:100E3000842B8C933BC0A7E3B0E0E7E3F0E0808134
:100E4000482F8A81282F30E081E090E0022E02C0F6
:100E5000880F991F0A94E2F7842B8C9327C0A4E390
:100E6000B0E0E4E3F0E08081482F8A81282F30E071
:100E700081E090E0022E02C0880F991F0A94E2F7E9
:100E8000842B8C9313C0A1E3B0E0E1E3F0E0808118
:100E9000482F8A81282F30E081E090E0022E02C0A6
:100EA000880F991F0A94E2F7842B8C938B818823F7
:100EB00009F074C08981282F30E03D832C838C8118
:100EC0009D818530910561F12C813D812630310570
:100ED00034F48C819D818430910569F05FC02C8150
:100EE0003D812630310589F18C819D8187309105C6
:100EF00009F440C053C0AAE3B0E0EAE3F0E0808127
:100F0000482F8A81282F30E081E090E0022E02C035
:100F1000880F991F0A94E2F7809584238C933EC032
:100F2000A7E3B0E0E7E3F0E08081482F8A81282F33
:100F300030E081E090E0022E02C0880F991F0A94F1
:100F4000E2F7809584238C9329C0A4E3B0E0E4E326
:100F5000F0E08081482F8A81282F30E081E090E006
:100F6000022E02C0880F991F0A94E2F7809584230D
:100F70008C9314C0A1E3B0E0E1E3F0E08081482F5E
:100F80008A81282F30E081E090E0022E02C0880F95
:100F9000991F0A94E2F7809584238C9327960FB6C5
:100FA000F894DEBF0FBECDBFCF91DF910895DF93E0
:100FB000CF9300D000D00F92CDB7DEB78A836B837A
:100FC0008A81282F30E03D832C834C815D81413024
:100FD000510541F18C819D818230910534F42C8141
:100FE0003D812115310561F052C04C815D81423057
:100FF000510551F18C819D8183309105B9F147C034
:10100000E9E3F0E08081282F30E08B81882F90E0A9
:10101000A90102C0559547958A95E2F7CA018170EA
:10102000898335C0E6E3F0E08081282F30E08B81B2
:10103000882F90E0A90102C0559547958A95E2F75F
:10104000CA018170898323C0E3E3F0E08081282F07
:1010500030E08B81882F90E0A90102C0559547951B
:101060008A95E2F7CA018170898311C0E0E3F0E05C
:101070008081282F30E08B81882F90E0A90102C069
:10108000559547958A95E2F7CA01817089838981D0
:101090000F900F900F900F900F90CF91DF910895C8
:1010A000DF93CF9300D000D000D0CDB7DEB78983D7
:1010B0006A838981282F30E03E832D838D819E8134
:1010C00085309105D9F02D813E812630310534F4EB
:1010D0008D819E818430910561F01EC02D813E81FD
:1010E0002630310581F08D819E818730910581F018
:1010F00013C0EAE3F0E08A8180830EC0E7E3F0E00A
:101100008A81808309C0E4E3F0E08A81808304C09F
:10111000E1E3F0E08A8180838981282F30E03C83FD
:101120002B838B819C8185309105D9F02B813C816B
:101130002630310534F48B819C818430910561F037
:101140001EC02B813C812630310581F08B819C8132
:101150008730910581F013C0EAE3F0E08A81808353
:101160000EC0E7E3F0E08A81808309C0E4E3F0E0A9
:101170008A81808304C0E1E3F0E08A81808326963F
:101180000FB6F894DEBF0FBECDBFCF91DF910895AB
:10119000DF93CF9300D000D0CDB7DEB789836A83C9
:1011A0008981282F30E03C832B838B819C81813087
:1011B0009105D1F02B813C81223031052CF48B81BB
:1011C0009C81009761F01EC02B813C81223031054B
:1011D00081F08B819C818330910581F013C0EBE31A
:1011E000F0E08A8180830EC0E8E3F0E08A818083AA
:1011F00009C0E5E3F0E08A81808304C0E2E3F0E027
:101200008A8180830F900F900F900F90CF91DF9184
:1012100008950F931F93DF93CF93CDB7DEB7C654D6
:10122000D0400FB6F894DEBF0FBECDBFFE01ED5B20
:10123000FF4F80E090E0A0E2B2E480839183A2833C
:10124000B3838E01015C1F4FFE01ED5BFF4F608198
:1012500071818281938120E030E04AEF54E40E9462
:101260001F02DC01CB01F80180839183A283B38349
:10127000FE01FF96608171818281938120E030E0E0
:1012800040E85FE30E94790388232CF481E090E03A
:101290009EAF8DAF46C0FE01FF9660817181828155
:1012A000938120E03FEF4FE757E40E94190318169F
:1012B00064F5FE01ED5BFF4F608171818281938156
:1012C00020E030E040E251E40E941F02DC01CB014B
:1012D000BC01CD010E944900DC01CB019EAF8DAF66
:1012E0000FC088EC90E09CAF8BAF8BAD9CAD0197AD
:1012F000F1F79CAF8BAF8DAD9EAD01979EAF8DAFDB
:101300008DAD9EAD009769F716C0FE01FF96608116
:101310007181828193810E944900DC01CB019EAFE3
:101320008DAF8DAD9EAD9AAF89AF89AD9AAD019766
:10133000F1F79AAF89AF88E30E947B0B80E090E0E1
:10134000A0E8BFE38DAB9EABAFABB8AF6DA97EA9F4
:101350008FA998AD20E030E04AEF54E40E941F02CC
:10136000DC01CB0189AB9AABABABBCAB69A97AA969
:101370008BA99CA920E030E040E85FE30E9479035C
:1013800088232CF481E090E098AB8FA73FC069A937
:101390007AA98BA99CA920E03FEF4FE757E40E9470
:1013A000190318164CF56DA97EA98FA998AD20E0F8
:1013B00030E040E251E40E941F02DC01CB01BC019D
:1013C000CD010E944900DC01CB0198AB8FA70FC073
:1013D00088EC90E09EA78DA78DA59EA50197F1F7BB
:1013E0009EA78DA78FA598A9019798AB8FA78FA5CA
:1013F00098A9009769F714C069A97AA98BA99CA933
:101400000E944900DC01CB0198AB8FA78FA598A95A
:101410009CA78BA78BA59CA50197F1F79CA78BA7F1
:101420008CE00E947B0B80E090E0A0E8BFE38FA3FC
:1014300098A7A9A7BAA76FA178A589A59AA520E022
:1014400030E04AEF54E40E941F02DC01CB018BA381
:101450009CA3ADA3BEA36BA17CA18DA19EA120E006
:1014600030E040E85FE30E94790388232CF481E0B8
:1014700090E09AA389A33FC06BA17CA18DA19EA1FE
:1014800020E03FEF4FE757E40E94190318164CF590
:101490006FA178A589A59AA520E030E040E251E44B
:1014A0000E941F02DC01CB01BC01CD010E9449005A
:1014B000DC01CB019AA389A30FC088EC90E098A32C
:1014C0008F8F8F8D98A10197F1F798A38F8F89A1A6
:1014D0009AA101979AA389A389A19AA1009769F774
:1014E00014C06BA17CA18DA19EA10E944900DC01CA
:1014F000CB019AA389A389A19AA19E8F8D8F8D8DEF
:101500009E8D0197F1F79E8F8D8F81E00E947B0B5E
:1015100080E090E0A0E0B0E4898F9A8FAB8FBC8F21
:10152000698D7A8D8B8D9C8D20E030E04AEF54E4FC
:101530000E941F02DC01CB018D8B9E8BAF8BB88F7D
:101540006D897E898F89988D20E030E040E85FE3E7
:101550000E94790388232CF481E090E09C8B8B8B94
:101560003FC06D897E898F89988D20E03FEF4FE7DE
:1015700057E40E94190318164CF5698D7A8D8B8DEE
:101580009C8D20E030E040E251E40E941F02DC012B
:10159000CB01BC01CD010E944900DC01CB019C8B39
:1015A0008B8B0FC088EC90E09A8B898B89899A8904
:1015B0000197F1F79A8B898B8B899C8901979C8B7A
:1015C0008B8B8B899C89009769F714C06D897E8904
:1015D0008F89988D0E944900DC01CB019C8B8B8BFD
:1015E0008B899C89988B8F878F8598890197F1F7D4
:1015F000988B8F878AE00E947B0B80E090E0A0E8C8
:10160000BFE38B879C87AD87BE876B857C858D8587
:101610009E8520E030E04AEF54E40E941F02DC0186
:10162000CB018F839887A987BA876F817885898551
:101630009A8520E030E040E85FE30E947903882348
:101640002CF481E090E09E838D833FC06F8178858C
:1016500089859A8520E03FEF4FE757E40E94190300
:1016600018164CF56B857C858D859E8520E030E0D5
:1016700040E251E40E941F02DC01CB01BC01CD011C
:101680000E944900DC01CB019E838D830FC088EC52
:1016900090E09C838B838B819C810197F1F79C83E5
:1016A0008B838D819E8101979E838D838D819E8109
:1016B000009769F714C06F81788589859A850E94A3
:1016C0004900DC01CB019E838D838D819E819A83AD
:1016D000898389819A810197F1F79A838983CA5B0B
:1016E000DF4F0FB6F894DEBF0FBECDBFCF91DF91B5
:1016F0001F910F910895DF93CF93CDB7DEB76D970C
:101700000FB6F894DEBF0FBECDBF8D8F80E062E0D4
:1017100040E00E94D60580E060E040E00E94D605EF
:1017200080E061E040E00E94D60581E06D8D0E947E
:10173000C80880E090E0A0E8BFE3898F9A8FAB8F64
:10174000BC8F698D7A8D8B8D9C8D20E030E04AEFC7
:1017500054E40E941F02DC01CB018D8B9E8BAF8B6A
:10176000B88F6D897E898F89988D20E030E040E8C0
:101770005FE30E94790388232CF481E090E09C8B46
:101780008B8B3FC06D897E898F89988D20E03FEFDC
:101790004FE757E40E94190318164CF5698D7A8DAE
:1017A0008B8D9C8D20E030E040E251E40E941F02CE
:1017B000DC01CB01BC01CD010E944900DC01CB0161
:1017C0009C8B8B8B0FC088EC90E09A8B898B8989DE
:1017D0009A890197F1F79A8B898B8B899C8901975C
:1017E0009C8B8B8B8B899C89009769F714C06D89C2
:1017F0007E898F89988D0E944900DC01CB019C8BEA
:101800008B8B8B899C89988B8F878F859889019783
:10181000F1F7988B8F8780E062E041E00E94D60567
:1018200080E090E0A0E8BFE38B879C87AD87BE8710
:101830006B857C858D859E8520E030E04AEF54E401
:101840000E941F02DC01CB018F839887A987BA878A
:101850006F81788589859A8520E030E040E85FE3F4
:101860000E94790388232CF481E090E09E838D838D
:101870003FC06F81788589859A8520E03FEF4FE7EB
:1018800057E40E94190318164CF56B857C858D85ED
:101890009E8520E030E040E251E40E941F02DC011E
:1018A000CB01BC01CD010E944900DC01CB019E832C
:1018B0008D830FC088EC90E09C838B838B819C810F
:1018C0000197F1F79C838B838D819E8101979E8385
:1018D0008D838D819E81009769F714C06F81788513
:1018E00089859A850E944900DC01CB019E838D8306
:1018F0008D819E819A83898389819A810197F1F7ED
:101900009A83898380E062E040E00E94D6056D966C
:101910000FB6F894DEBF0FBECDBFCF91DF91089513
:10192000DF93CF93CDB7DEB76D970FB6F894DEBFD8
:101930000FBECDBF8D8F80E062E040E00E94D605F3
:1019400080E060E041E00E94D60580E061E040E098
:101950000E94D60581E06D8D0E94C80880E090E06D
:10196000A0E8BFE3898F9A8FAB8FBC8F698D7A8D8A
:101970008B8D9C8D20E030E04AEF54E40E941F02E2
:10198000DC01CB018D8B9E8BAF8BB88F6D897E89EF
:101990008F89988D20E030E040E85FE30E94790372
:1019A00088232CF481E090E09C8B8B8B3FC06D8969
:1019B0007E898F89988D20E03FEF4FE757E40E94A2
:1019C000190318164CF5698D7A8D8B8D9C8D20E04E
:1019D00030E040E251E40E941F02DC01CB01BC0177
:1019E000CD010E944900DC01CB019C8B8B8B0FC089
:1019F00088EC90E09A8B898B89899A890197F1F715
:101A00009A8B898B8B899C8901979C8B8B8B8B897B
:101A10009C89009769F714C06D897E898F89988D9C
:101A20000E944900DC01CB019C8B8B8B8B899C89AC
:101A3000988B8F878F8598890197F1F7988B8F877F
:101A400080E062E041E00E94D60580E090E0A0E8FE
:101A5000BFE38B879C87AD87BE876B857C858D8533
:101A60009E8520E030E04AEF54E40E941F02DC0132
:101A7000CB018F839887A987BA876F8178858985FD
:101A80009A8520E030E040E85FE30E9479038823F4
:101A90002CF481E090E09E838D833FC06F81788538
:101AA00089859A8520E03FEF4FE757E40E941903AC
:101AB00018164CF56B857C858D859E8520E030E081
:101AC00040E251E40E941F02DC01CB01BC01CD01C8
:101AD0000E944900DC01CB019E838D830FC088ECFE
:101AE00090E09C838B838B819C810197F1F79C8391
:101AF0008B838D819E8101979E838D838D819E81B5
:101B0000009769F714C06F81788589859A850E944E
:101B10004900DC01CB019E838D838D819E819A8358
:101B2000898389819A810197F1F79A83898380E07B
:101B300062E040E00E94D6056D960FB6F894DEBFD5
:101B40000FBECDBFCF91DF910895DF93CF9300D02B
:101B5000CDB7DEB789836A838981882F90E000241E
:101B6000969587950794969587950794982F802D3D
:101B7000982F8A81890F80680E947B0B0F900F90AD
:101B8000CF91DF910895DF93CF93CDB7DEB727973D
:101B90000FB6F894DEBF0FBECDBF9C838B836D83E1
:101BA0004E832F838D81882F90E0880F991F880F97
:101BB000991F880F991F8983898180640E947B0BFC
:101BC0001A820EC08A81282F30E08B819C81FC0113
:101BD000E20FF31F80810E94900C8A818F5F8A83BD
:101BE0008A81883078F38E816F810E94A50D8D8166
:101BF0000E94900C27960FB6F894DEBF0FBECDBFA3
:101C0000CF91DF910895DF93CF93CDB7DEB72E97B5
:101C10000FB6F894DEBF0FBECDBF98878F832DB768
:101C20003EB73E872D878DB79EB79A8789871C82DE
:101C30008F8198859A8389830DC089819A812AE052
:101C400030E0B9010E943E1CCB019A8389838C81CC
:101C50008F5F8C8389819A81009779F78C81882F97
:101C600090E02DB73EB7281B390B0FB6F8943EBF56
:101C70000FBE2DBF8DB79EB701969C878B878B8536
:101C80009C8500969C878B872B853C853E832D8386
:101C90008C818B8320C08B81882F90E0FC01319751
:101CA0008F8198852AE030E0B9010E943E1C282FE0
:101CB000205D8D819E81E80FF91F20838F8198859B
:101CC0002AE030E0B9010E943E1CCB0198878F8347
:101CD0008B8181508B838B818823E9F61B820EC018
:101CE0008B81282F30E08D819E81FC01E20FF31F54
:101CF00080810E94900C8B818F5F8B839B818C8174
:101D0000981770F389859A850FB6F8949EBF0FBE19
:101D10008DBF2D853E850FB6F8943EBF0FBE2DBFFB
:101D20002E960FB6F894DEBF0FBECDBFCF91DF91D8
:101D30000895DF93CF9300D00F92CDB7DEB79B838A
:101D40008A8319820EC08981282F30E08A819B8185
:101D5000FC01E20FF31F80810E94900C89818F5F4C
:101D600089838981282F30E08A819B81FC01E20FE1
:101D7000F31F8081882339F70F900F900F90CF9138
:101D8000DF910895DF93CF93CDB7DEB7AFE4B0E036
:101D9000EFE4F0E0808180688C93AFE4B0E0EFE4A2
:101DA000F0E080818F7B8C93AFE4B0E0EFE4F0E073
:101DB000808182608C93AFE4B0E0EFE4F0E080815A
:101DC0008E7F8C93AEE4B0E0EEE4F0E0808188603A
:101DD0008C93AEE4B0E0EEE4F0E0808180618C931F
:101DE000E6E4F0E088EE93E091838083EAE4F0E0BB
:101DF0008EEE92E091838083AEE4B0E0EEE4F0E01A
:101E000080818E7F8C93AEE4B0E0EEE4F0E08081E0
:101E100082608C93AEE4B0E0EEE4F0E080818B7FF2
:101E20008C93CF91DF910895DF93CF93CDB7DEB739
:101E3000AFE4B0E0EFE4F0E080818D7F8C93AFE41D
:101E4000B0E0EFE4F0E080818E7F8C93AEE4B0E010
:101E5000EEE4F0E08081877F8C93AEE4B0E0EEE4C6
:101E6000F0E080818F7E8C93ECE4F0E011821082B0
:101E7000A9E5B0E0E9E5F0E0808184608C93AEE410
:101E8000B0E0EEE4F0E080818E7F8C93AEE4B0E0D1
:101E9000EEE4F0E080818D7F8C93AEE4B0E0EEE480
:101EA000F0E0808184608C93CF91DF910895DF937F
:101EB000CF93CDB7DEB7AEE4B0E0EEE4F0E08081E2
:101EC0008F7B8C93A9E5B0E0E9E5F0E0808180624A
:101ED0008C93CF91DF910895DF93CF930F92CDB77D
:101EE000DEB71982AAE2B0E0EAE2F0E08081806128
:101EF0008C93AAE2B0E0EAE2F0E0808188608C9303
:101F000089818068898389818460898389818260ED
:101F10008983E0E4F0E089818083E9E2F0E083E313
:101F200080830F90CF91DF910895DF93CF930F922D
:101F3000CDB7DEB78983EBE2F0E0808182958695AC
:101F40008770882F90E0817090700097A1F3ECE289
:101F5000F0E0898180830F90CF91DF910895DF9326
:101F6000CF93CDB7DEB7EBE2F0E080818823DCF7DA
:101F7000ECE2F0E08081CF91DF910895DF93CF9381
:101F800000D00F92CDB7DEB79B838A8319820EC033
:101F90008981282F30E08A819B81FC01E20FF31FA9
:101FA00080810E94950F89818F5F89838981282F85
:101FB00030E08A819B81FC01E20FF31F808188233E
:101FC00039F70F900F900F90CF91DF910895DF9325
:101FD000CF93CDB7DEB72E970FB6F894DEBF0FBE06
:101FE000CDBF98878F832DB73EB73E872D878DB79E
:101FF0009EB79A8789871C828F8198859A83898367
:102000000DC089819A812AE030E0B9010E943E1C0E
:10201000CB019A8389838C818F5F8C8389819A819C
:10202000009779F78C81882F90E02DB73EB7281B59
:10203000390B0FB6F8943EBF0FBE2DBF8DB79EB7BC
:1020400001969C878B878B859C8500969C878B87C8
:102050002B853C853E832D838C818B8320C08B8197
:10206000882F90E0FC0131978F8198852AE030E03D
:10207000B9010E943E1C282F205D8D819E81E80FB2
:10208000F91F20838F8198852AE030E0B9010E94F2
:102090003E1CCB0198878F838B8181508B838B81F2
:1020A0008823E9F61B820EC08B81282F30E08D81BA
:1020B0009E81FC01E20FF31F80810E94950F8B81AE
:1020C0008F5F8B839B818C81981770F389859A85AC
:1020D0000FB6F8949EBF0FBE8DBF2D853E850FB6FF
:1020E000F8943EBF0FBE2DBF2E960FB6F894DEBFFC
:1020F0000FBECDBFCF91DF910895DF93CF93CDB7C2
:10210000DEB784E06FEF0E94500885E06FEF0E9419
:1021100050080E9409098CE00E947B0B0E946C0F02
:1021200087E065E041E00E94D60687E067E041E095
:102130000E94D60687E066E041E00E94D6060E9433
:10214000A410CF91DF9108950F931F93DF93CF9346
:10215000CDB7DEB7CE5AD0400FB6F894DEBF0FBE73
:10216000CDBFFE01E255FF4F81E0808380E064E057
:102170000E94A50D80E690E00E94990E88E690E00E
:102180000E94BE0FFE01EB55FF4F80E090E8ABE3ED
:10219000B5E480839183A283B3838E010F551F4FD3
:1021A000FE01EB55FF4F608171818281938120E0B8
:1021B00030E04AEF54E40E941F02DC01CB01F80139
:1021C00080839183A283B383FE01EF55FF4F60812B
:1021D00071818281938120E030E040E85FE30E94DA
:1021E0007903882344F4FE01E156FF4F81E090E03B
:1021F0009183808364C0FE01EF55FF4F6081718140
:102200008281938120E03FEF4FE757E40E9419035A
:1022100018160CF043C0FE01EB55FF4F6081718131
:102220008281938120E030E040E251E40E941F026D
:10223000DC01CB018E0101561F4FBC01CD010E9474
:102240004900DC01CB01F801918380831FC0FE01AE
:10225000E356FF4F88EC90E091838083FE01E356C4
:10226000FF4F808191810197F1F7FE01E356FF4F07
:1022700091838083DE01A156BF4FFE01E156FF4FDF
:1022800080819181019711969C938E93FE01E15676
:10229000FF4F808191810097D1F627C08E010156B2
:1022A0001F4FFE01EF55FF4F608171818281938145
:1022B0000E944900DC01CB01F80191838083DE019B
:1022C000A556BF4FFE01E156FF4F808191818D934E
:1022D0009C93FE01E556FF4F808191810197F1F7B4
:1022E000FE01E556FF4F9183808381E00E947B0BC6
:1022F00080E061E00E94A50D81E890E00E94990EC7
:102300008BE890E00E94BE0FFE01E755FF4F88EC7E
:1023100080830E94AF0FFE01E755FF4F80838091BD
:102320005205882309F035C2FE01E755FF4F808131
:10233000883C09F464C0FE01E755FF4F808180337B
:10234000B1F1FE01E755FF4F8081813381F1FE013C
:10235000E755FF4F8081823351F1FE01E755FF4F72
:102360008081833321F1FE01E755FF4F8081843363
:10237000F1F0FE01E755FF4F80818533C1F0FE018A
:10238000E755FF4F8081863391F0FE01E755FF4FFF
:102390008081873361F0FE01E755FF4F80818833EC
:1023A00031F0FE01E755FF4F8081893341F580917F
:1023B0004E0590914F059C01220F331FC901880FD4
:1023C000991F880F991F280F391FFE01E755FF4FEE
:1023D0008081882F90E0820F931FC09790934F05C4
:1023E00080934E05FE01E755FF4F80810E94900CBF
:1023F000FE01E755FF4F80810E94950F85CFFE01BA
:10240000E755FF4F8081883C09F47ECFFE01E755F8
:10241000FF4F80818D3309F077CF81E080935205A3
:1024200080914E0590914F050E94341BFE01E455AA
:10243000FF4F9183808380914E0590914F0590933B
:10244000600580935F0513C080915F0590916005E2
:102450002AE030E0B9010E943E1CCB019093600558
:1024600080935F0580914C058F5F80934C05809130
:102470005F0590916005009739F780914C05843095
:1024800009F0C3C0FE01E956FF4F80E090E0AAE7E3
:10249000B4E480839183A283B3838E010D561F4FD2
:1024A000FE01E956FF4F608171818281938120E0B6
:1024B00030E04AEF54E40E941F02DC01CB01F80136
:1024C00080839183A283B383FE01ED56FF4F608129
:1024D00071818281938120E030E040E85FE30E94D7
:1024E0007903882344F4FE01EF56FF4F81E090E02A
:1024F0009183808364C0FE01ED56FF4F608171813E
:102500008281938120E03FEF4FE757E40E94190357
:1025100018160CF043C0FE01E956FF4F608171812F
:102520008281938120E030E040E251E40E941F026A
:10253000DC01CB018E010F561F4FBC01CD010E9463
:102540004900DC01CB01F801918380831FC0FE01AB
:10255000E157FF4F88EC90E091838083FE01E157C3
:10256000FF4F808191810197F1F7FE01E157FF4F05
:1025700091838083DE01AF56BF4FFE01EF56FF4FC0
:1025800080819181019711969C938E93FE01EF5665
:10259000FF4F808191810097D1F627C08E010F56A1
:1025A0001F4FFE01ED56FF4F608171818281938143
:1025B0000E944900DC01CB01F80191838083DE0198
:1025C000A357BF4FFE01EF56FF4F808191818D933E
:1025D0009C93FE01E357FF4F808191810197F1F7B2
:1025E000FE01E357FF4F9183808381E00E947B0BC4
:1025F00080E061E00E94A50D82EA90E00E94990EC1
:102600008CEA90E00E94BE0F7FCE81E062E00E94E3
:10261000A50D8FEC90E00E94990E8CED90E00E9449
:10262000BE0FFE01E757FF4F80E090E8ABE3B5E453
:1026300080839183A283B3838E010B571F4FFE01CA
:10264000E757FF4F608171818281938120E030E004
:102650004AEF54E40E941F02DC01CB01F8018083A1
:102660009183A283B383FE01EB57FF4F6081718199
:102670008281938120E030E040E85FE30E947903AB
:10268000882344F4FE01ED57FF4F81E090E09183F1
:10269000808364C0FE01EB57FF4F608171818281AE
:1026A000938120E03FEF4FE757E40E94190318168B
:1026B0000CF043C0FE01E757FF4F608171818281BA
:1026C000938120E030E040E251E40E941F02DC01EF
:1026D000CB018E010D571F4FBC01CD010E94490057
:1026E000DC01CB01F801918380831FC0FE01EF570D
:1026F000FF4F88EC90E091838083FE01EF57FF4FFE
:10270000808191810197F1F7FE01EF57FF4F91838F
:102710008083DE01AD57BF4FFE01ED57FF4F808133
:102720009181019711969C938E93FE01ED57FF4F77
:10273000808191810097D1F627C08E010D571F4FE0
:10274000FE01EB57FF4F60817181828193810E946E
:102750004900DC01CB01F80191838083DE01A1589F
:10276000BF4FFE01ED57FF4F808191818D939C9368
:10277000FE01E158FF4F808191810197F1F7FE0141
:10278000E158FF4F9183808381E00E947B0B0C9482
:10279000281B80915205813009F07EC3FE01E75568
:1027A000FF4F8081883C09F464C0FE01E755FF4F6C
:1027B00080818033B1F1FE01E755FF4F8081813385
:1027C00081F1FE01E755FF4F8081823351F1FE0117
:1027D000E755FF4F8081833321F1FE01E755FF4F1D
:1027E00080818433F1F0FE01E755FF4F808185330E
:1027F000C1F0FE01E755FF4F8081863391F0FE0165
:10280000E755FF4F8081873361F0FE01E755FF4FA9
:102810008081883331F0FE01E755FF4F8081893395
:1028200041F580915005909151059C01220F331F75
:10283000C901880F991F880F991F280F391FFE01A2
:10284000E755FF4F8081882F90E0820F931FC0973C
:102850009093510580935005FE01E755FF4F80810D
:102860000E94900CFE01E755FF4F80810E94950F5A
:102870004BCDFE01E755FF4F8081883C09F444CDE4
:10288000FE01E755FF4F80818D3309F03DCD8091EA
:102890005005909151050E94661BFE01E655FF4FC1
:1028A00091838083809150059091510590935E05AE
:1028B00080935D0513C080915D0590915E052AE0CF
:1028C00030E0B9010E943E1CCB0190935E058093DD
:1028D0005D0580914D058F5F80934D0580915D056D
:1028E00090915E05009739F780914D05843009F08D
:1028F00029C1FE01E455FF4F0190F081E02D2081B8
:10290000FE01E655FF4F80819181FC013396808165
:10291000281709F017C1FE01E455FF4F808191810E
:10292000FC0131962081FE01E655FF4F80819181A7
:10293000FC0132968081281709F004C1FE01E4559C
:10294000FF4F80819181FC0132962081FE01E65586
:10295000FF4F80819181FC0131968081281709F019
:10296000F1C0FE01E455FF4F80819181FC01339657
:102970009081FE01E655FF4F0190F081E02D8081AE
:10298000981709F0DFC081E00E947B0B80E061E0D6
:102990000E94A50D83E191E00E94990E81E291E0F1
:1029A0000E94BE0F82E591E00E94BE0F89E691E091
:1029B0000E94BE0F8BE791E00E94BE0F8EE891E06F
:1029C0000E94BE0F8FE991E00E94BE0F83EB91E061
:1029D0000E94BE0FFE01E558FF4F80E090E8ABE398
:1029E000B5E480839183A283B3838E0109581F4F7E
:1029F000FE01E558FF4F608171818281938120E063
:102A000030E04AEF54E40E941F02DC01CB01F801E0
:102A100080839183A283B383FE01E958FF4F6081D5
:102A200071818281938120E030E040E85FE30E9481
:102A30007903882344F4FE01EB58FF4F81E090E0D6
:102A40009183808364C0FE01E958FF4F60817181EA
:102A50008281938120E03FEF4FE757E40E94190302
:102A600018160CF043C0FE01E558FF4F60817181DC
:102A70008281938120E030E040E251E40E941F0215
:102A8000DC01CB018E010B581F4FBC01CD010E9410
:102A90004900DC01CB01F801918380831FC0FE0156
:102AA000ED58FF4F88EC90E091838083FE01ED5854
:102AB000FF4F808191810197F1F7FE01ED58FF4FA3
:102AC00091838083DE01AB58BF4FFE01EB58FF4F6F
:102AD00080819181019711969C938E93FE01EB5812
:102AE000FF4F808191810097D1F628C08E010B584D
:102AF0001F4FFE01E958FF4F6081718182819381F0
:102B00000E944900DC01CB01F80191838083DE0142
:102B1000AF58BF4FFE01EB58FF4F80819181119656
:102B20009C938E93FE01EF58FF4F80819181019716
:102B3000F1F7FE01EF58FF4F9183808382E080938D
:102B40005205E2CBFE01E255FF4F8081843008F050
:102B5000DDC081E00E947B0B80E061E00E94A50D5A
:102B600088EC91E00E94990EFE01E359FF4F80E04E
:102B700090E0AAE7B4E480839183A283B3838E01BB
:102B800007591F4FFE01E359FF4F60817181828118
:102B9000938120E030E04AEF54E40E941F02DC0100
:102BA000CB01F80180839183A283B383FE01E759AF
:102BB000FF4F608171818281938120E030E040E8A5
:102BC0005FE30E947903882344F4FE01E959FF4F33
:102BD00081E090E09183808364C0FE01E759FF4F5C
:102BE000608171818281938120E03FEF4FE757E45C
:102BF0000E94190318160CF043C0FE01E359FF4F61
:102C0000608171818281938120E030E040E251E473
:102C10000E941F02DC01CB018E0109591F4FBC012C
:102C2000CD010E944900DC01CB01F8019183808332
:102C30001FC0FE01EB59FF4F88EC90E09183808329
:102C4000FE01EB59FF4F808191810197F1F7FE0161
:102C5000EB59FF4F91838083DE01A959BF4FFE01DD
:102C6000E959FF4F80819181019711969C938E9332
:102C7000FE01E959FF4F808191810097D1F627C06D
:102C80008E0109591F4FFE01E759FF4F6081718185
:102C9000828193810E944900DC01CB01F80191837C
:102CA0008083DE01AD59BF4FFE01E959FF4F80819E
:102CB00091818D939C93FE01ED59FF4F808191810D
:102CC0000197F1F7FE01ED59FF4F9183808381E079
:102CD00061E00E94A50D82EA90E00E94990E85EDC8
:102CE00091E00E94BE0FDE01A255BF4FFE01E255EA
:102CF000FF4F80818F5F8C9381E08093520510920B
:102D000051051092500510924D05FECA81E00E94B7
:102D10007B0B80E063E00E94A50D86E092E00E94BC
:102D2000990E88E392E00E94BE0FFE01E15AFF4F28
:102D300080E090E8ABE3B5E480839183A283B38322
:102D40008E01055A1F4FFE01E15AFF4F60817181CC
:102D50008281938120E030E04AEF54E40E941F0218
:102D6000DC01CB01F80180839183A283B383FE0150
:102D7000E55AFF4F608171818281938120E030E0CC
:102D800040E85FE30E947903882344F4FE01E75A98
:102D9000FF4F81E090E09183808364C0FE01E55A9B
:102DA000FF4F608171818281938120E03FEF4FE787
:102DB00057E40E94190318160CF043C0FE01E15AB3
:102DC000FF4F608171818281938120E030E040E299
:102DD00051E40E941F02DC01CB018E01075A1F4FF4
:102DE000BC01CD010E944900DC01CB01F8019183B7
:102DF00080831FC0FE01E95AFF4F88EC90E0918369
:102E00008083FE01E95AFF4F808191810197F1F79C
:102E1000FE01E95AFF4F91838083DE01A75ABF4F1D
:102E2000FE01E75AFF4F80819181019711969C9393
:102E30008E93FE01E75AFF4F808191810097D1F672
:102E400027C08E01075A1F4FFE01E55AFF4F6081D0
:102E50007181828193810E944900DC01CB01F801DC
:102E600091838083DE01AB5ABF4FFE01E75AFF4FCB
:102E7000808191818D939C93FE01EB5AFF4F80815D
:102E800091810197F1F7FE01EB5AFF4F9183808307
:102E900081E00E947B0BDCC380915205823009F0F7
:102EA00033CAFE01E755FF4F8081883C09F42CCAE4
:102EB000FE01E755FF4F80818033F9F0FE01E755B1
:102EC000FF4F80818133C9F0FE01E755FF4F8081BC
:102ED000823399F0FE01E755FF4F8081833369F01B
:102EE000FE01E755FF4F8081843339F0FE01E7553D
:102EF000FF4F8081853309F007CAFE01E755FF4F78
:102F000080818133A9F481E00E947B0B80E061E045
:102F10000E94A50D8CE692E00E94990E83E792E054
:102F20000E94BE0F83E067E041E00E94D605ECC935
:102F3000FE01E755FF4F80818233A9F481E00E94B2
:102F40007B0B80E061E00E94A50D8BE792E00E9480
:102F5000990E83E892E00E94BE0F83E067E040E0B4
:102F60000E94D605D1C9FE01E755FF4F808183330A
:102F700009F0CDC10E94C20E81E00E947B0B80E06F
:102F800061E00E94A50D8CE892E00E94990E87E90D
:102F900092E00E94BE0F89E295E068E20E94981BD1
:102FA000FE01EF5AFF4F80E090E0AAE7B4E480838F
:102FB0009183A283B3838E01035B1F4FFE01EF5AFF
:102FC000FF4F608171818281938120E030E04AEF80
:102FD00054E40E941F02DC01CB01F801808391833D
:102FE000A283B383FE01E35BFF4F60817181828125
:102FF000938120E030E040E85FE30E94790388237A
:1030000044F4FE01E55BFF4F81E090E09183808313
:1030100064C0FE01E35BFF4F608171818281938117
:1030200020E03FEF4FE757E40E94190318160CF019
:1030300043C0FE01EF5AFF4F60817181828193810D
:1030400020E030E040E251E40E941F02DC01CB01AD
:103050008E01055B1F4FBC01CD010E944900DC01C0
:10306000CB01F801918380831FC0FE01E75BFF4F16
:1030700088EC90E091838083FE01E75BFF4F8081C5
:1030800091810197F1F7FE01E75BFF4F9183808308
:10309000DE01A55BBF4FFE01E55BFF4F80819181A3
:1030A000019711969C938E93FE01E55BFF4F808103
:1030B00091810097D1F627C08E01055B1F4FFE015D
:1030C000E35BFF4F60817181828193810E9449009F
:1030D000DC01CB01F80191838083DE01A95BBF4F46
:1030E000FE01E55BFF4F808191818D939C93FE01F2
:1030F000E95BFF4F808191810197F1F7FE01E95B68
:10310000FF4F9183808385E793E064E10E94981BE1
:10311000FE01ED5BFF4F80E090E0AAE7B4E480831E
:103120009183A283B3838E01015C1F4FFE01ED5B8F
:10313000FF4F608171818281938120E030E04AEF0E
:1031400054E40E941F02DC01CB01F80180839183CB
:10315000A283B383FE01FF96608171818281938196
:1031600020E030E040E85FE30E94790388232CF4FC
:1031700081E090E09EAF8DAF46C0FE01FF9660817A
:1031800071818281938120E03FEF4FE757E40E94F5
:103190001903181664F5FE01ED5BFF4F6081718124
:1031A0008281938120E030E040E251E40E941F02DE
:1031B000DC01CB01BC01CD010E944900DC01CB0147
:1031C0009EAF8DAF0FC088EC90E09CAF8BAF8BAD06
:1031D0009CAD0197F1F79CAF8BAF8DAD9EAD019784
:1031E0009EAF8DAF8DAD9EAD009769F716C0FE0105
:1031F000FF9660817181828193810E944900DC0188
:10320000CB019EAF8DAF8DAD9EAD9AAF89AF89AD2D
:103210009AAD0197F1F79AAF89AF83EE92E061E141
:103220000E94981B80E090E0AAE7B4E48DAB9EABCF
:10323000AFABB8AF6DA97EA98FA998AD20E030E003
:103240004AEF54E40E941F02DC01CB0189AB9AAB28
:10325000ABABBCAB69A97AA98BA99CA920E030E0F3
:1032600040E85FE30E94790388232CF481E090E03A
:1032700098AB8FA740C069A97AA98BA99CA920E027
:103280003FEF4FE757E40E941903181654F56DA954
:103290007EA98FA998AD20E030E040E251E40E9481
:1032A0001F02DC01CB01BC01CD010E944900DC0101
:1032B000CB0198AB8FA70FC088EC90E09EA78DA79D
:1032C0008DA59EA50197F1F79EA78DA78FA598A91B
:1032D000019798AB8FA78FA598A9009769F70C94D1
:1032E000841169A97AA98BA99CA90E944900DC01D3
:1032F000CB0198AB8FA78FA598A99CA78BA78BA56F
:103300009CA50197F1F79CA78BA70C948411FE0153
:10331000E755FF4F8081843309F089C083E066E080
:1033200041E00E94D60581E00E947B0B80E061E0D5
:103330000E94A50D83EA92E00E94990E8CEA92E029
:103340000E94BE0F80E090E4ACE1B6E48FA398A7A2
:10335000A9A7BAA76FA178A589A59AA520E030E012
:103360004AEF54E40E941F02DC01CB018BA39CA313
:10337000ADA3BEA36BA17CA18DA19EA120E030E0F6
:1033800040E85FE30E94790388232CF481E090E019
:103390009AA389A340C06BA17CA18DA19EA120E02E
:1033A0003FEF4FE757E40E941903181654F56FA139
:1033B00078A589A59AA520E030E040E251E40E947A
:1033C0001F02DC01CB01BC01CD010E944900DC01E0
:1033D000CB019AA389A30FC088EC90E098A38F8FAC
:1033E0008F8D98A10197F1F798A38F8F89A19AA14A
:1033F00001979AA389A389A19AA1009769F70C94D0
:1034000084116BA17CA18DA19EA10E944900DC01C9
:10341000CB019AA389A389A19AA19E8F8D8F8D8DAF
:103420009E8D0197F1F79E8F8D8F0C948411FE0174
:10343000E755FF4F8081853309F089C083E066E05E
:1034400040E00E94D60581E00E947B0B80E061E0B5
:103450000E94A50D86EB92E00E94990E80EC92E00E
:103460000E94BE0F80E090E4ACE1B6E4898F9A8FB1
:10347000AB8FBC8F698D7A8D8B8D9C8D20E030E079
:103480004AEF54E40E941F02DC01CB018D8B9E8B1E
:10349000AF8BB88F6D897E898F89988D20E030E061
:1034A00040E85FE30E94790388232CF481E090E0F8
:1034B0009C8B8B8B40C06D897E898F89988D20E095
:1034C0003FEF4FE757E40E941903181654F5698D32
:1034D0007A8D8B8D9C8D20E030E040E251E40E949B
:1034E0001F02DC01CB01BC01CD010E944900DC01BF
:1034F000CB019C8B8B8B0FC088EC90E09A8B898BD7
:1035000089899A890197F1F79A8B898B8B899C8994
:1035100001979C8B8B8B8B899C89009769F70C9406
:1035200084116D897E898F89988D0E944900DC0104
:10353000CB019C8B8B8B8B899C89988B8F878F85FC
:1035400098890197F1F7988B8F870C948411FE016D
:10355000E755FF4F8081803311F00C9484118BEC80
:1035600092E00E94BE0F80E090E8ABE3B5E48B8769
:103570009C87AD87BE876B857C858D859E8520E089
:1035800030E04AEF54E40E941F02DC01CB018F833C
:103590009887A987BA876F81788589859A8520E081
:1035A00030E040E85FE30E94790388232CF481E057
:1035B00090E09E838D833FC06F81788589859A8551
:1035C00020E03FEF4FE757E40E94190318164CF52F
:1035D0006B857C858D859E8520E030E040E251E45E
:1035E0000E941F02DC01CB01BC01CD010E944900F9
:1035F000DC01CB019E838D830FC088EC90E09C831F
:103600008B838B819C810197F1F79C838B838D81C8
:103610009E8101979E838D838D819E81009769F79E
:1036200014C06F81788589859A850E944900DC01E4
:10363000CB019E838D838D819E819A83898389812D
:103640009A810197F1F79A83898381E00E947B0B2D
:10365000C255DF4F0FB6F894DEBF0FBECDBFCF917E
:10366000DF911F910F910895DF93CF9300D00F92B8
:10367000CDB7DEB79B838A8385E089831CC08981AF
:10368000882F90E0FC0132978A819B812AE030E00C
:10369000B9010E943E1CED5AFA4F80838A819B81BA
:1036A0002AE030E0B9010E943E1CCB019B838A8353
:1036B0008981815089838981823008F783E595E08B
:1036C0000F900F900F90CF91DF910895DF93CF93DC
:1036D00000D00F92CDB7DEB79B838A8385E08983C4
:1036E0001CC08981882F90E0FC0132978A819B81E0
:1036F0002AE030E0B9010E943E1CE95AFA4F80836B
:103700008A819B812AE030E0B9010E943E1CCB01F6
:103710009B838A838981815089838981823008F7DC
:1037200087E595E00F900F900F90CF91DF9108956E
:10373000DF93CF93CDB7DEB765970FB6F894DEBFB2
:103740000FBECDBF9C8B8B8B6D8B8D89282F30E06E
:1037500088EE93E0AC01249FC001259F900D349F1B
:10376000900D11249C878B8775C0EB89FC89808123
:103770009181988B8F878B899C8902969C8B8B8BF0
:10378000EB89FC89808191819A8B898B8B899C89BB
:1037900002969C8B8B8B8F8598898130910529F4BB
:1037A000EAE4F0E0118210820CC0EAE4F0E084E682
:1037B00090E091838083E6E4F0E08F85988991839F
:1037C00080831E861D8637C08B859C859A87898756
:1037D00089859A850197F1F79A8789878B859C85DA
:1037E00098878F838F8198850197F1F798878F83CA
:1037F0008B859C859E838D838D819E810197F1F7BA
:103800009E838D838B859C859C838B838B819C8100
:103810000197F1F79C838B838B859C859A838983A1
:1038200089819A810197F1F79A8389838D859E8595
:1038300001969E878D8780E290E029893A89B901B7
:103840000E94521CCB019C018D859E858217930797
:103850000CF4BACFEB89FC8980819181009709F043
:1038600084CFEAE4F0E01182108265960FB6F894F6
:10387000DEBF0FBECDBFCF91DF910895AA1BBB1B4A
:1038800051E107C0AA1FBB1FA617B70710F0A61B60
:10389000B70B881F991F5A95A9F780959095BC0181
:1038A000CD01089597FB092E07260AD077FD04D095
:1038B000E5DF06D000201AF4709561957F4F0895DA
:1038C000F6F7909581959F4F08952F923F924F92D2
:1038D0005F926F927F928F929F92AF92BF92CF92A0
:1038E000DF92EF92FF920F931F93CF93DF93CDB7A9
:1038F000DEB7CA1BDB0B0FB6F894DEBF0FBECDBF21
:1039000009942A88398848885F846E847D848C84F1
:103910009B84AA84B984C884DF80EE80FD800C81FA
:103920001B81AA81B981CE0FD11D0FB6F894DEBFDD
:0C3930000FBECDBFED010895F894FFCF4D
:10393C0057454C434F4D450057656C636F6D652083
:10394C00544F20596F75722073797374656D200D07
:10395C0000456E7465722049443A00706C65617361
:10396C006520656E74657220796F757220494420EC
:10397C000D0050617373776F72643A000D54686177
:10398C006E6B732C204E6F7720456E7465722059C8
:10399C006F75722050617373776F7264200D0049DC
:1039AC004420496E76616C6964210D000D796F7548
:1039BC007220494420697320496E76616C696420D9
:1039CC00536F727279207765206861766520746F09
:1039DC0020636C6F736520746865207379737465EC
:1039EC006D0D0053797374656D20556E6C6F636B40
:1039FC00000D48656C6C6F2057616C616120686FBD
:103A0C00772063616E20492068656C7020796F7532
:103A1C003F20706C656173652063686F6F73652EF2
:103A2C000D0030202D20636C6F7365207468652049
:103A3C0073797374656D200D0031202D20747572AF
:103A4C006E206C6564206F6E200D0032202D20746A
:103A5C0075726E206C6564206F6666200D003320D5
:103A6C002D20706C6179206D75736963200D0034A5
:103A7C00202D207475726E206D6F746F72206F6EB6
:103A8C00200D0035202D207475726E206D6F746FB3
:103A9C0072206F6666200D000D547279206167618B
:103AAC00696E3A0D000D796F7520656E74657265DF
:103ABC006420412077726F6E672070617373776F2B
:103ACC00726420706C656161736520547279204159
:103ADC006761696E0D00796F752068617665206588
:103AEC006E74657265642077726F6E672070617397
:103AFC0073776F726420332074696D6573202C208A
:103B0C0042796520427965000D796F752068617680
:103B1C006520656E74657265642077726F6E6720C0
:103B2C0070617373776F726420332074696D657381
:103B3C00202C20427965204279650D004C45445F6C
:103B4C004F4E004C6564204F6E0D004C45445F4F4A
:103B5C004646004C6564204F66660D00506C6179DA
:103B6C00204D7573696300506C6179204D757369D4
:103B7C00630D004D6F746F72204F6E004D6F746F3C
:103B8C0072204F6E0D004D6F746F72204F66660081
:103B9C004D6F746F72204F66660D00676F6F6420F7
:103BAC006279652C2077616C616100000000000077
:103BBC00000000C2100800C2100800010010002F05
:103BCC000B08002F0B0800010010008E0C100001D8
:103BDC000010004D0D100001001000EE0E10000141
:103BEC000010006108080061080800010010002F97
:103BFC000B0800010010008E0C1000010010004D8D
:103C0C000D100001001000EE0E10000100100061FC
:103C1C0008080061080800010010002F0B080001C3
:103C2C000010008E0C1000010010004D0D10000152
:103C3C000010008E0C100001001000EE0E0800EEBB
:103C4C000E08000000ED05080047060800ED050809
:103C5C000047060800ED050800E9070800A706085C
:103C6C000077070800E108080001000800EE0E08C4
:103C7C0000DA0B0800E1080800E90704000100085D
:103C8C0000DA0B080068090800E907080077070448
:103C9C000001000800DA0B0800DA0B0800470608E0
:103CAC0000ED05080047060800ED050800E90708C7
:103CBC0000A706080077070800E1080800010008C3
:103CCC0000EE0E0800DA0B0800E1080800E9070412
:103CDC000001000800DA0B080077070800E9070864
:103CEC0000E10804000000EE130800B317080001FF
:103CFC00001000B3171000B3171000EE131000C122
:103D0C001110009A1A0800010010009A1A1000B342
:103D1C001710005F160800EE0E0800EE0E1000EEF5
:103D2C000E1000D20F1000EE131000C1111000EE97
:103D3C001310005F161000B317080001001000EEFE
:103D4C00131000C1111000C1110800C11110004D59
:103D5C000D1000EE0E1000D20F1000D20F1000EE5E
:103D6C000E1000C1111000EE13080001001000DD50
:103D7C001D10009A1A1000B3171000C1111000C1C9
:103D8C00111000EE1308000000FC040400FC0404F5
:103D9C000070040400FC040400BC030400F40304DD
:103DAC000000000800FC040400FC0404007004047F
:103DBC0000FC04040053030400BC030400000008CE
:103DCC0000FC040400FC0404007E020400F602045F
:103DDC0000BC030400F40304007004040000000899
:103DEC00009805040098050400F6020400BC0304C6
:103DFC000053030400BC03040077070800A706085F
:103E0C0000ED05080098050800FC04080070040883
:0C3E1C0000F4030800BC030800000000D4
:00000001FF
