:100000000C942A000C9447000C9447000C94470071
:100010000C9447000C9447000C9447000C94470044
:100020000C9447000C9447000C9447000C94470034
:100030000C9447000C9447000C9447000C94470024
:100040000C9447000C9447000C9447000C94470014
:100050000C94470011241FBECFE5D8E0DEBFCDBF12
:1000600011E0A0E6B0E0E6E2FBE302C005900D92ED
:10007000AA30B107D9F711E0AAE0B1E001C01D92A2
:10008000AD31B107E1F70E9437140C94911D0C9427
:100090000000EF92FF920F931F937B018C0120E0F1
:1000A00030E040E05FE40E94490388238CF0C801FF
:1000B000B70120E030E040E05FE40E94C1010E940F
:1000C000A9039B01AC01205030404040504806C07D
:1000D000C801B7010E94A9039B01AC01B901CA0183
:1000E0001F910F91FF90EF900895A0E0B0E0EBE733
:1000F000F0E00C945A1DDC012B01FA019C91923026
:1001000008F439C1EB018881823008F433C194309E
:1001100069F4843009F02FC111969C91119789815F
:10012000981709F428C1A2EEB0E025C1843009F483
:1001300021C18230A9F4923009F01DC19A01AD01AC
:1001400088E0EA010990AE01E90109929E0181501F
:10015000C1F7E201898111969C918923818308C1AD
:10016000923009F407C112962D903C901397EB0141
:100170008A819B811496AD90BD90CD90DC901797AD
:10018000EC80FD800E811F819101281B390BB90184
:1001900037FF04C066277727621B730B6032710537
:1001A0000CF061C0121613066CF537014801062EDB
:1001B00004C096948794779467940A94D2F721E0C8
:1001C00030E040E050E004C0220F331F441F551FB1
:1001D0006A95D2F721503040404050402E213F21B7
:1001E00040235123211531054105510521F021E01E
:1001F00030E040E050E079018A01E628F72808293C
:1002000019293CC0232BD1F1260E371E350146019A
:10021000062E04C096948794779467940A94D2F734
:1002200021E030E040E050E004C0220F331F441FC3
:10023000551F6A95D2F721503040404050402A2146
:100240003B214C215D21211531054105510521F04E
:1002500021E030E040E050E059016A01A628B728CB
:10026000C828D9280BC0821593052CF01C01AA249C
:10027000BB24650103C0EE24FF24870111969C91E5
:10028000D20111968C91981709F445C0992339F041
:10029000A80197012A193B094C095D0906C0A6016E
:1002A00095012E193F09400B510B57FD08C01182D3
:1002B0003382228224833583468357831DC081E0A5
:1002C00081833382228288279927DC01821B930B4A
:1002D000A40BB50B84839583A683B7830DC0220F2F
:1002E000331F441F551F24833583468357838281E0
:1002F000938101979383828324813581468157813D
:10030000DA01C9010197A109B1098F5F9F4FAF4F72
:10031000BF4328F30BC0918333822282EA0CFB1C7B
:100320000C1D1D1DE482F5820683178383E0808304
:10033000248135814681578157FF1AC0C901AA27F8
:1003400097FDA095BA2F81709070A070B0705695EF
:10035000479537952795822B932BA42BB52B848318
:100360009583A683B7838281938101969383828349
:10037000DF0101C0D201CD01CDB7DEB7E2E10C94BF
:10038000761DA0E2B0E0E7ECF1E00C94661D698315
:100390007A838B839C832D833E834F835887E9E048
:1003A000EE2EF12CEC0EFD1ECE010196B7010E943F
:1003B000D2048E010F5E1F4FCE010596B8010E9438
:1003C000D2048A8991E089278A8BC701B801AE01DE
:1003D000475E5F4F0E9475000E94FD03A096E6E015
:1003E0000C94821DA0E2B0E0E8EFF1E00C94661DF1
:1003F00069837A838B839C832D833E834F835887C5
:10040000F9E0EF2EF12CEC0EFD1ECE010196B701A6
:100410000E94D2048E010F5E1F4FCE010596B801D7
:100420000E94D204C701B801AE01475E5F4F0E942F
:1004300075000E94FD03A096E6E00C94821DA0E2E8
:10044000B0E0E5E2F2E00C945A1D69837A838B8375
:100450009C832D833E834F835887CE010196BE0136
:10046000675F7F4F0E94D204CE010596BE016F5E8A
:100470007F4F0E94D2049985923088F0898982301A
:10048000C8F0943019F4823051F404C0843029F457
:10049000923081F482EE90E0C6C0923049F420E0C0
:1004A0009A858A89981321E02A87CE010996BBC0D4
:1004B000823049F420E09A858A89981321E02A8BBA
:1004C000CE014196B0C02D843E844F8458886D88FB
:1004D0007E888F88988CEE24FF248701AA24BB2471
:1004E000650140E050E060E070E0E0E0F0E0C10174
:1004F00081709070892BE9F0E60CF71C081D191D1E
:100500009A01AB012A0D3B1D4C1D5D1D80E090E062
:10051000A0E0B0E0E614F7040805190520F481E036
:1005200090E0A0E0B0E0BA01A901480F591F6A1F8E
:100530007B1FAA0CBB1CCC1CDD1C97FE08C081E0F5
:1005400090E0A0E0B0E0A82AB92ACA2ADB2A3196B6
:10055000E032F10549F0660C771C881C991C569412
:10056000479437942794C3CFFA85EA892B893C892D
:100570008B859C85280F391F2E5F3F4F17C0CA01FE
:1005800081709070892B61F016950795F794E79428
:1005900080E090E0A0E0B0E8E82AF92A0A2B1B2BC3
:1005A00076956795579547952F5F3F4F77FDE7CF36
:1005B0000CC0440F551F661F771F17FD4160EE0CDE
:1005C000FF1C001F111F21503040403090E05907A0
:1005D00090E0690790E4790760F32B8F3C8FDB0193
:1005E000CA018F779070A070B07080349105A1051A
:1005F000B10561F447FD0AC0E114F10401051105DC
:1006000029F0405C5F4F6F4F7F4F40781A8EFE1786
:1006100011F081E08A8F4D8F5E8F6F8F78A383E01A
:10062000898FCE0149960E94FD03A096E2E10C94C9
:10063000761DA8E1B0E0EFE1F3E00C94661D69835C
:100640007A838B839C832D833E834F83588789E0F5
:10065000E82EF12CEC0EFD1ECE010196B7010E9492
:10066000D2048E010F5E1F4FCE010596B8010E9485
:10067000D2048985823040F08989823028F0C70110
:10068000B8010E944A0501C08FEF6896E6E00C941D
:10069000821DA8E1B0E0EFE4F3E00C94661D6983ED
:1006A0007A838B839C832D833E834F83588789E095
:1006B000E82EF12CEC0EFD1ECE010196B7010E9432
:1006C000D2048E010F5E1F4FCE010596B8010E9425
:1006D000D2048985823040F08989823028F0C701B0
:1006E000B8010E944A0501C08FEF6896E6E00C94BD
:1006F000821DA8E1B0E0EFE7F3E00C94661D69838A
:100700007A838B839C832D833E834F83588789E034
:10071000E82EF12CEC0EFD1ECE010196B7010E94D1
:10072000D2048E010F5E1F4FCE010596B8010E94C4
:10073000D2048985823040F08989823028F0C7014F
:10074000B8010E944A0501C081E06896E6E00C9479
:10075000821DACE0B0E0EFEAF3E00C946A1D69831F
:100760007A838B839C83CE010196BE016B5F7F4FA2
:100770000E94D2048D81823061F1823050F1843048
:1007800021F48E81882351F12EC02F81388537FDC9
:1007900020C06E812F3131051CF06623F9F023C093
:1007A0008EE190E0821B930B29853A854B855C8511
:1007B00004C056954795379527958A95D2F76623B5
:1007C000B1F050954095309521953F4F4F4F5F4F79
:1007D0000EC020E030E040E050E009C02FEF3FEFD6
:1007E0004FEF5FE704C020E030E040E050E8B9019F
:1007F000CA012C96E2E00C94861DDF92EF92FF92E4
:100800000F931F93FC01E480F58006811781D1804E
:100810008081823048F480E090E0A0E1B0E0E82AF6
:10082000F92A0A2B1B2BA5C0843009F49FC0823003
:1008300021F4EE24FF24870105C0E114F104010531
:10084000110519F4E0E0F0E096C0628173819FEF3A
:10085000623879070CF05BC022E83FEF261B370BAC
:100860002A3131052CF020E030E040E050E02AC091
:10087000B801A701022E04C0769567955795479554
:100880000A94D2F781E090E0A0E0B0E004C0880FC5
:10089000991FAA1FBB1F2A95D2F70197A109B10979
:1008A0008E219F21A023B1230097A105B10521F03E
:1008B00081E090E0A0E0B0E09A01AB01282B392B59
:1008C0004A2B5B2BDA01C9018F779070A070B07052
:1008D00080349105A105B10539F427FF09C0205CDA
:1008E0003F4F4F4F5F4F04C0215C3F4F4F4F5F4F13
:1008F000E0E0F0E02030A0E03A07A0E04A07A0E402
:100900005A0710F0E1E0F0E079018A0127C0603871
:10091000710564F5FB01E158FF4FD801C7018F77DE
:100920009070A070B07080349105A105B10539F4C4
:10093000E7FE0DC080E490E0A0E0B0E004C08FE3EB
:1009400090E0A0E0B0E0E80EF91E0A1F1B1F17FFA1
:1009500005C016950795F794E794319687E01695AC
:100960000795F794E7948A95D1F705C0EE24FF2404
:100970008701EFEFF0E06E2F679566276795902F60
:100980009F77D794DD24D7948E2F8695492F462BB9
:10099000582F5D29B701CA011F910F91FF90EF9069
:1009A000DF900895FC01DB01408151812281622F9B
:1009B0006F7770E0221F2227221F9381892F880FD3
:1009C000822B282F30E0991F9927991F11969C930D
:1009D000119721153105A9F54115510561057105DD
:1009E00011F482E037C082E89FEF13969C938E93B8
:1009F00012979A01AB0167E0220F331F441F551F66
:100A00006A95D1F783E08C930DC0220F331F441FEA
:100A1000551F12968D919C911397019713969C9355
:100A20008E931297203080E0380780E0480780E4FA
:100A3000580758F314962D933D934D935C93179755
:100A400008952F3F310579F4411551056105710570
:100A500019F484E08C93089564FF03C081E08C93C3
:100A600012C01C9210C02F57304013963C932E9307
:100A7000129783E08C9387E0440F551F661F771F02
:100A80008A95D1F7706414964D935D936D937C9322
:100A9000179708951F93DC01FB019C91923008F495
:100AA00047C08081823008F443C0943051F41196DD
:100AB0001C91843099F58181682F70E0611B710968
:100AC0003FC0843021F0923031F48230B9F181811D
:100AD000882389F12DC011961C9111978230F1F075
:100AE00081811817D9F412962D913C911397828128
:100AF00093818217930794F028173907BCF0149656
:100B00008D919D910D90BC91A02D248135814681C0
:100B10005781281739074A075B0718F4112341F05A
:100B20000AC082179307A407B50740F4112319F0F0
:100B300061E070E005C06FEF7FEF02C060E070E041
:100B4000CB011F910895DF93CF93CDB7DEB72797E1
:100B50000FB6F894DEBF0FBECDBF89836A834B8387
:100B60008B81813009F06FC08981282F30E03F836D
:100B70002E838E819F818130910549F12E813F81A5
:100B8000223031052CF48E819F81009761F0D2C014
:100B90002E813F812230310571F18E819F8183301A
:100BA0009105E9F1C7C0ABE3B0E0EBE3F0E0808191
:100BB000482F8A81282F30E081E090E0022E02C089
:100BC000880F991F0A94E2F7842B8C93B3C0A8E393
:100BD000B0E0E8E3F0E08081482F8A81282F30E000
:100BE00081E090E0022E02C0880F991F0A94E2F77C
:100BF000842B8C939FC0A5E3B0E0E5E3F0E0808117
:100C0000482F8A81282F30E081E090E0022E02C038
:100C1000880F991F0A94E2F7842B8C938BC0A2E370
:100C2000B0E0E2E3F0E08081482F8A81282F30E0B5
:100C300081E090E0022E02C0880F991F0A94E2F72B
:100C4000842B8C9377C08B81882309F073C08981B2
:100C5000282F30E03D832C838C819D81813091054C
:100C600059F12C813D81223031052CF48C819D81FC
:100C7000009769F05FC02C813D812230310589F1F8
:100C80008C819D818330910509F440C053C0ABE352
:100C9000B0E0EBE3F0E08081482F8A81282F30E03C
:100CA00081E090E0022E02C0880F991F0A94E2F7BB
:100CB000809584238C933EC0A8E3B0E0E8E3F0E0A5
:100CC0008081482F8A81282F30E081E090E0022E39
:100CD00002C0880F991F0A94E2F7809584238C93B1
:100CE00029C0A5E3B0E0E5E3F0E08081482F8A81E8
:100CF000282F30E081E090E0022E02C0880F991F7B
:100D00000A94E2F7809584238C9314C0A2E3B0E0A8
:100D1000E2E3F0E08081482F8A81282F30E081E0F3
:100D200090E0022E02C0880F991F0A94E2F7809586
:100D300084238C9327960FB6F894DEBF0FBECDBFE9
:100D4000CF91DF910895DF93CF93CDB7DEB727978B
:100D50000FB6F894DEBF0FBECDBF89836A834B8385
:100D60008B81813009F06FC08981282F30E03F836B
:100D70002E838E819F818530910551F12E813F8197
:100D80002630310534F48E819F818430910561F0E5
:100D90005AC02E813F812630310571F18E819F81AD
:100DA00087309105E9F14FC0AAE3B0E0EAE3F0E053
:100DB0008081482F8A81282F30E081E090E0022E48
:100DC00002C0880F991F0A94E2F7842B8C933BC0D2
:100DD000A7E3B0E0E7E3F0E08081482F8A81282F85
:100DE00030E081E090E0022E02C0880F991F0A9443
:100DF000E2F7842B8C9327C0A4E3B0E0E4E3F0E0B7
:100E00008081482F8A81282F30E081E090E0022EF7
:100E100002C0880F991F0A94E2F7842B8C9313C0A9
:100E2000A1E3B0E0E1E3F0E08081482F8A81282F40
:100E300030E081E090E0022E02C0880F991F0A94F2
:100E4000E2F7842B8C938B81882309F074C089810D
:100E5000282F30E03D832C838C819D818530910546
:100E600061F12C813D812630310534F48C819D81E6
:100E70008430910569F05FC02C813D8126303105B9
:100E800089F18C819D818730910509F440C053C060
:100E9000AAE3B0E0EAE3F0E08081482F8A81282FBE
:100EA00030E081E090E0022E02C0880F991F0A9482
:100EB000E2F7809584238C933EC0A7E3B0E0E7E39C
:100EC000F0E08081482F8A81282F30E081E090E097
:100ED000022E02C0880F991F0A94E2F7809584239E
:100EE0008C9329C0A4E3B0E0E4E3F0E08081482FD4
:100EF0008A81282F30E081E090E0022E02C0880F26
:100F0000991F0A94E2F7809584238C9314C0A1E37F
:100F1000B0E0E1E3F0E08081482F8A81282F30E0C3
:100F200081E090E0022E02C0880F991F0A94E2F738
:100F3000809584238C9327960FB6F894DEBF0FBE5E
:100F4000CDBFCF91DF910895DF93CF9300D000D034
:100F50000F92CDB7DEB78A836B838A81282F30E06A
:100F60003D832C834C815D814130510541F18C8161
:100F70009D818230910534F42C813D81211531050C
:100F800061F052C04C815D814230510551F18C813C
:100F90009D8183309105B9F147C0E9E3F0E080819C
:100FA000282F30E08B81882F90E0A90102C0559551
:100FB00047958A95E2F7CA018170898335C0E6E3D7
:100FC000F0E08081282F30E08B81882F90E0A9010C
:100FD00002C0559547958A95E2F7CA0181708983C9
:100FE00023C0E3E3F0E08081282F30E08B81882F5D
:100FF00090E0A90102C0559547958A95E2F7CA018C
:101000008170898311C0E0E3F0E08081282F30E017
:101010008B81882F90E0A90102C0559547958A954C
:10102000E2F7CA018170898389810F900F900F9038
:101030000F900F90CF91DF910895DF93CF9300D061
:1010400000D000D0CDB7DEB789836A838981282F8D
:1010500030E03E832D838D819E8185309105D9F0CE
:101060002D813E812630310534F48D819E8184307E
:10107000910561F01EC02D813E812630310581F041
:101080008D819E818730910581F013C0EAE3F0E005
:101090008A8180830EC0E7E3F0E08A81808309C003
:1010A000E4E3F0E08A81808304C0E1E3F0E08A8138
:1010B00080838981282F30E03C832B838B819C8126
:1010C00085309105D9F02B813C812630310534F4EF
:1010D0008B819C818430910561F01EC02B813C8105
:1010E0002630310581F08B819C818730910581F01C
:1010F00013C0EAE3F0E08A8180830EC0E7E3F0E00A
:101100008A81808309C0E4E3F0E08A81808304C09F
:10111000E1E3F0E08A81808326960FB6F894DEBF83
:101120000FBECDBFCF91DF910895DF93CF9300D055
:1011300000D0CDB7DEB789836A838981282F30E05C
:101140003C832B838B819C8181309105D1F02B8155
:101150003C81223031052CF48B819C81009761F019
:101160001EC02B813C812230310581F08B819C8116
:101170008330910581F013C0EBE3F0E08A81808336
:101180000EC0E8E3F0E08A81808309C0E5E3F0E087
:101190008A81808304C0E2E3F0E08A8180830F903B
:1011A0000F900F900F90CF91DF910895DF93CF9321
:1011B00000D000D0CDB7DEB780E389831C823EC06B
:1011C00080E06C8140E00E94A3051B822CC08B81D3
:1011D000982F9C5F80E0692F0E94A4078A838A81F0
:1011E0008823F1F48B81482F50E08C81282F30E048
:1011F000CA01880F991F880F991F820F931FFC0146
:10120000E651FF4F8081898308C08B81982F9C5FB6
:1012100080E0692F0E94A4078A838A818823A9F32A
:101220008B818F5F8B838B81843088F280E06C812F
:1012300041E00E94A3058C818F5F8C838C81843078
:1012400008F4BECF89810F900F900F900F90CF912F
:10125000DF9108950F931F93DF93CF93CDB7DEB740
:10126000C654D0400FB6F894DEBF0FBECDBFFE010E
:10127000ED5BFF4F80E090E0A0E2B2E480839183D9
:10128000A283B3838E01015C1F4FFE01ED5BFF4F14
:10129000608171818281938120E030E04AEF54E4E3
:1012A0000E941F02DC01CB01F80180839183A2839D
:1012B000B383FE01FF96608171818281938120E07A
:1012C00030E040E85FE30E94790388232CF481E05A
:1012D00090E09EAF8DAF46C0FE01FF9660817181A8
:1012E0008281938120E03FEF4FE757E40E9419038A
:1012F000181664F5FE01ED5BFF4F608171818281FC
:10130000938120E030E040E251E40E941F02DC01C2
:10131000CB01BC01CD010E944900DC01CB019EAF95
:101320008DAF0FC088EC90E09CAF8BAF8BAD9CADC8
:101330000197F1F79CAF8BAF8DAD9EAD01979EAF3E
:101340008DAF8DAD9EAD009769F716C0FE01FF967B
:1013500060817181828193810E944900DC01CB010F
:101360009EAF8DAF8DAD9EAD9AAF89AF89AD9AAD71
:101370000197F1F79AAF89AF88E30E949C0B80E058
:1013800090E0A0E8BFE38DAB9EABAFABB8AF6DA96B
:101390007EA98FA998AD20E030E04AEF54E40E9486
:1013A0001F02DC01CB0189AB9AABABABBCAB69A92B
:1013B0007AA98BA99CA920E030E040E85FE30E9475
:1013C000790388232CF481E090E098AB8FA73FC08D
:1013D00069A97AA98BA99CA920E03FEF4FE757E4C0
:1013E0000E94190318164CF56DA97EA98FA998AD16
:1013F00020E030E040E251E40E941F02DC01CB011A
:10140000BC01CD010E944900DC01CB0198AB8FA744
:101410000FC088EC90E09EA78DA78DA59EA5019793
:10142000F1F79EA78DA78FA598A9019798AB8FA7D5
:101430008FA598A9009769F714C069A97AA98BA903
:101440009CA90E944900DC01CB0198AB8FA78FA516
:1014500098A99CA78BA78BA59CA50197F1F79CA7A2
:101460008BA78CE00E949C0B80E090E0A0E8BFE39B
:101470008FA398A7A9A7BAA76FA178A589A59AA5B0
:1014800020E030E04AEF54E40E941F02DC01CB016F
:101490008BA39CA3ADA3BEA36BA17CA18DA19EA198
:1014A00020E030E040E85FE30E94790388232CF4D9
:1014B00081E090E09AA389A33FC06BA17CA18DA19C
:1014C0009EA120E03FEF4FE757E40E941903181652
:1014D0004CF56FA178A589A59AA520E030E040E2FF
:1014E00051E40E941F02DC01CB01BC01CD010E942E
:1014F0004900DC01CB019AA389A30FC088EC90E0DE
:1015000098A38F8F8F8D98A10197F1F798A38F8F54
:1015100089A19AA101979AA389A389A19AA1009769
:1015200069F714C06BA17CA18DA19EA10E94490006
:10153000DC01CB019AA389A389A19AA19E8F8D8FEB
:101540008D8D9E8D0197F1F79E8F8D8F81E00E948A
:101550009C0B80E090E0A0E0B0E4898F9A8FAB8F85
:10156000BC8F698D7A8D8B8D9C8D20E030E04AEFA9
:1015700054E40E941F02DC01CB018D8B9E8BAF8B4C
:10158000B88F6D897E898F89988D20E030E040E8A2
:101590005FE30E94790388232CF481E090E09C8B28
:1015A0008B8B3FC06D897E898F89988D20E03FEFBE
:1015B0004FE757E40E94190318164CF5698D7A8D90
:1015C0008B8D9C8D20E030E040E251E40E941F02B0
:1015D000DC01CB01BC01CD010E944900DC01CB0143
:1015E0009C8B8B8B0FC088EC90E09A8B898B8989C0
:1015F0009A890197F1F79A8B898B8B899C8901973E
:101600009C8B8B8B8B899C89009769F714C06D89A3
:101610007E898F89988D0E944900DC01CB019C8BCB
:101620008B8B8B899C89988B8F878F859889019765
:10163000F1F7988B8F878AE00E949C0B80E090E006
:10164000A0E8BFE38B879C87AD87BE876B857C85D1
:101650008D859E8520E030E04AEF54E40E941F0211
:10166000DC01CB018F839887A987BA876F81788542
:1016700089859A8520E030E040E85FE30E947903A5
:1016800088232CF481E090E09E838D833FC06F819E
:10169000788589859A8520E03FEF4FE757E40E94DF
:1016A000190318164CF56B857C858D859E8520E089
:1016B00030E040E251E40E941F02DC01CB01BC019A
:1016C000CD010E944900DC01CB019E838D830FC0B8
:1016D00088EC90E09C838B838B819C810197F1F750
:1016E0009C838B838D819E8101979E838D838D81C9
:1016F0009E81009769F714C06F81788589859A85E6
:101700000E944900DC01CB019E838D838D819E81E7
:101710009A83898389819A810197F1F79A838983D2
:10172000CA5BDF4F0FB6F894DEBF0FBECDBFCF91BF
:10173000DF911F910F910895DF93CF93CDB7DEB75F
:101740006D970FB6F894DEBF0FBECDBF8D8F82E0D0
:1017500062E040E00E94A30582E060E040E00E9479
:10176000A30582E061E040E00E94A30583E06D8D67
:101770000E94950880E090E0A0E8BFE3898F9A8FEF
:10178000AB8FBC8F698D7A8D8B8D9C8D20E030E086
:101790004AEF54E40E941F02DC01CB018D8B9E8B2B
:1017A000AF8BB88F6D897E898F89988D20E030E06E
:1017B00040E85FE30E94790388232CF481E090E005
:1017C0009C8B8B8B3FC06D897E898F89988D20E0A3
:1017D0003FEF4FE757E40E94190318164CF5698D47
:1017E0007A8D8B8D9C8D20E030E040E251E40E94A8
:1017F0001F02DC01CB01BC01CD010E944900DC01CC
:10180000CB019C8B8B8B0FC088EC90E09A8B898BE3
:1018100089899A890197F1F79A8B898B8B899C89A1
:1018200001979C8B8B8B8B899C89009769F714C0DF
:101830006D897E898F89988D0E944900DC01CB01DA
:101840009C8B8B8B8B899C89988B8F878F859889B4
:101850000197F1F7988B8F8782E062E041E00E9468
:10186000A30580E090E0A0E8BFE38B879C87AD876D
:10187000BE876B857C858D859E8520E030E04AEFB4
:1018800054E40E941F02DC01CB018F839887A98753
:10189000BA876F81788589859A8520E030E040E8B5
:1018A0005FE30E94790388232CF481E090E09E831B
:1018B0008D833FC06F81788589859A8520E03FEFD1
:1018C0004FE757E40E94190318164CF56B857C8589
:1018D0008D859E8520E030E040E251E40E941F02A9
:1018E000DC01CB01BC01CD010E944900DC01CB0130
:1018F0009E838D830FC088EC90E09C838B838B81CB
:101900009C810197F1F79C838B838D819E81019748
:101910009E838D838D819E81009769F714C06F81AE
:10192000788589859A850E944900DC01CB019E83D8
:101930008D838D819E819A83898389819A81019784
:10194000F1F79A83898382E062E040E00E94A30578
:101950006D960FB6F894DEBF0FBECDBFCF91DF916D
:101960000895DF93CF93CDB7DEB76D970FB6F89498
:10197000DEBF0FBECDBF8D8F82E062E040E00E94EF
:10198000A30582E060E041E00E94A30582E061E0FF
:1019900040E00E94A30583E06D8D0E94950880E0E1
:1019A00090E0A0E8BFE3898F9A8FAB8FBC8F698DE1
:1019B0007A8D8B8D9C8D20E030E04AEF54E40E94BC
:1019C0001F02DC01CB018D8B9E8BAF8BB88F6D8995
:1019D0007E898F89988D20E030E040E85FE30E94A7
:1019E000790388232CF481E090E09C8B8B8B3FC0A3
:1019F0006D897E898F89988D20E03FEF4FE757E40E
:101A00000E94190318164CF5698D7A8D8B8D9C8D6B
:101A100020E030E040E251E40E941F02DC01CB01F3
:101A2000BC01CD010E944900DC01CB019C8B8B8B5A
:101A30000FC088EC90E09A8B898B89899A890197ED
:101A4000F1F79A8B898B8B899C8901979C8B8B8B67
:101A50008B899C89009769F714C06D897E898F896D
:101A6000988D0E944900DC01CB019C8B8B8B8B896C
:101A70009C89988B8F878F8598890197F1F7988B30
:101A80008F8782E062E041E00E94A30580E090E061
:101A9000A0E8BFE38B879C87AD87BE876B857C857D
:101AA0008D859E8520E030E04AEF54E40E941F02BD
:101AB000DC01CB018F839887A987BA876F817885EE
:101AC00089859A8520E030E040E85FE30E94790351
:101AD00088232CF481E090E09E838D833FC06F814A
:101AE000788589859A8520E03FEF4FE757E40E948B
:101AF000190318164CF56B857C858D859E8520E035
:101B000030E040E251E40E941F02DC01CB01BC0145
:101B1000CD010E944900DC01CB019E838D830FC063
:101B200088EC90E09C838B838B819C810197F1F7FB
:101B30009C838B838D819E8101979E838D838D8174
:101B40009E81009769F714C06F81788589859A8591
:101B50000E944900DC01CB019E838D838D819E8193
:101B60009A83898389819A810197F1F79A8389837E
:101B700082E062E040E00E94A3056D960FB6F89403
:101B8000DEBF0FBECDBFCF91DF910895DF93CF931E
:101B900000D0CDB7DEB789836A838981882F90E032
:101BA0000024969587950794969587950794982F86
:101BB000802D982F8A81890F80680E949C0B0F903E
:101BC0000F90CF91DF910895DF93CF93CDB7DEB71C
:101BD00027970FB6F894DEBF0FBECDBF9C838B83D3
:101BE0006D834E832F838D81882F90E0880F991FFE
:101BF000880F991F880F991F8983898180640E94AB
:101C00009C0B1A820EC08A81282F30E08B819C8128
:101C1000FC01E20FF31F80810E94B10C8A818F5F6B
:101C20008A838A81883078F38E816F810E94C60D05
:101C30008D810E94B10C27960FB6F894DEBF0FBEBF
:101C4000CDBFCF91DF910895DF93CF93CDB7DEB7AE
:101C50002E970FB6F894DEBF0FBECDBF98878F8347
:101C60002DB73EB73E872D878DB79EB79A87898758
:101C70001C828F8198859A8389830DC089819A817E
:101C80002AE030E0B9010E94461DCB019A83898386
:101C90008C818F5F8C8389819A81009779F78C8101
:101CA000882F90E02DB73EB7281B390B0FB6F8945C
:101CB0003EBF0FBE2DBF8DB79EB701969C878B8709
:101CC0008B859C8500969C878B872B853C853E83E6
:101CD0002D838C818B8320C08B81882F90E0FC0129
:101CE00031978F8198852AE030E0B9010E94461D26
:101CF000282F205D8D819E81E80FF91F20838F8121
:101D000098852AE030E0B9010E94461DCB019887F2
:101D10008F838B8181508B838B818823E9F61B8293
:101D20000EC08B81282F30E08D819E81FC01E20F57
:101D3000F31F80810E94B10C8B818F5F8B839B810D
:101D40008C81981770F389859A850FB6F8949EBF99
:101D50000FBE8DBF2D853E850FB6F8943EBF0FBEDA
:101D60002DBF2E960FB6F894DEBF0FBECDBFCF911C
:101D7000DF910895DF93CF9300D00F92CDB7DEB7F8
:101D80009B838A8319820EC08981282F30E08A8143
:101D90009B81FC01E20FF31F80810E94B10C8981BD
:101DA0008F5F89838981282F30E08A819B81FC01A4
:101DB000E20FF31F8081882339F70F900F900F9067
:101DC000CF91DF910895DF93CF9300D000D0CDB7AE
:101DD000DEB789836A838981282F30E03C832B8397
:101DE0008B819C818530910509F465C02B813C81F4
:101DF0002630310514F58B819C818230910509F4E0
:101E00004BC02B813C812330310554F48B819C8164
:101E10000097C1F12B813C8121303105C1F163C0B4
:101E20008B819C818330910509F43BC02B813C81DF
:101E30002430310509F43AC056C08B819C8188302A
:101E4000910509F447C02B813C81293031055CF4B0
:101E50008B819C818630910599F12B813C812730C3
:101E6000310599F140C08B819C8189309105B9F190
:101E70002B813C8120323105B1F58A8160E00E94DE
:101E8000950831C08A816FE30E9495082CC08A8131
:101E900066E00E94950827C08A816BE50E9495083C
:101EA00022C08A816FE40E9495081DC08A8166E67F
:101EB0000E94950818C08A816DE60E94950813C09B
:101EC0008A816DE70E9495080EC08A8167E00E94B2
:101ED000950809C08A816FE70E94950804C08A812D
:101EE0006FE60E9495080F900F900F900F90CF9182
:101EF000DF910895DF93CF93CDB7DEB7E8970FB6A4
:101F0000F894DEBF0FBECDBF82E067E040E00E94E4
:101F1000A30582E066E041E00E94A30582E065E05F
:101F200041E00E94A30582E064E041E00E94A30535
:101F300080E090E0A0E2B1E48DAB9EABAFABB8AF78
:101F40006DA97EA98FA998AD20E030E04AEF54E456
:101F50000E941F02DC01CB0189AB9AABABABBCABDF
:101F600069A97AA98BA99CA920E030E040E85FE349
:101F70000E94790388232CF481E090E098AB8FA72E
:101F80003FC069A97AA98BA99CA920E03FEF4FE740
:101F900057E40E94190318164CF56DA97EA98FA964
:101FA00098AD20E030E040E251E40E941F02DC01E5
:101FB000CB01BC01CD010E944900DC01CB0198ABF3
:101FC0008FA70FC088EC90E09EA78DA78DA59EA53A
:101FD0000197F1F79EA78DA78FA598A9019798ABB8
:101FE0008FA78FA598A9009769F714C069A97AA946
:101FF0008BA99CA90E944900DC01CB0198AB8FA75B
:102000008FA598A99CA78BA78BA59CA50197F1F7F5
:102010009CA78BA782E066E040E00E94A30582E0D7
:1020200067E041E00E94A30582E065E041E00E9494
:10203000A30582E064E041E00E94A30580E090E017
:10204000A0E2B1E48FA398A7A9A7BAA76FA178A52A
:1020500089A59AA520E030E04AEF54E40E941F02CF
:10206000DC01CB018BA39CA3ADA3BEA36BA17CA180
:102070008DA19EA120E030E040E85FE30E9479035B
:1020800088232CF481E090E09AA389A33FC06BA140
:102090007CA18DA19EA120E03FEF4FE757E40E9475
:1020A000190318164CF56FA178A589A59AA520E00B
:1020B00030E040E251E40E941F02DC01CB01BC0190
:1020C000CD010E944900DC01CB019AA389A30FC076
:1020D00088EC90E098A38F8F8F8D98A10197F1F7EE
:1020E00098A38F8F89A19AA101979AA389A389A107
:1020F0009AA1009769F714C06BA17CA18DA19EA144
:102100000E944900DC01CB019AA389A389A19AA16D
:102110009E8F8D8F8D8D9E8D0197F1F79E8F8D8F68
:1021200082E065E040E00E94A30582E067E041E0D4
:102130000E94A30582E066E041E00E94A30582E0E0
:1021400064E041E00E94A30580E090E0A0E2B1E4F9
:10215000898F9A8FAB8FBC8F698D7A8D8B8D9C8D7B
:1021600020E030E04AEF54E40E941F02DC01CB0182
:102170008D8B9E8BAF8BB88F6D897E898F89988D63
:1021800020E030E040E85FE30E94790388232CF4EC
:1021900081E090E09C8B8B8B3FC06D897E898F891D
:1021A000988D20E03FEF4FE757E40E94190318167F
:1021B0004CF5698D7A8D8B8D9C8D20E030E040E26E
:1021C00051E40E941F02DC01CB01BC01CD010E9441
:1021D0004900DC01CB019C8B8B8B0FC088EC90E01D
:1021E0009A8B898B89899A890197F1F79A8B898BC8
:1021F0008B899C8901979C8B8B8B8B899C89009701
:1022000069F714C06D897E898F89988D0E94490075
:10221000DC01CB019C8B8B8B8B899C89988B8F8766
:102220008F8598890197F1F7988B8F8782E064E01A
:1022300040E00E94A30582E066E041E00E94A30521
:1022400082E065E041E00E94A30582E067E041E0B2
:102250000E94A30580E090E0A0E2B1E48B879C8718
:10226000AD87BE876B857C858D859E8520E030E0BF
:102270004AEF54E40E941F02DC01CB018F83988750
:10228000A987BA876F81788589859A8520E030E0B3
:1022900040E85FE30E94790388232CF481E090E01A
:1022A0009E838D833FC06F81788589859A8520E0E4
:1022B0003FEF4FE757E40E94190318164CF56B8562
:1022C0007C858D859E8520E030E040E251E40E94CF
:1022D0001F02DC01CB01BC01CD010E944900DC01E1
:1022E000CB019E838D830FC088EC90E09C838B8311
:1022F0008B819C810197F1F79C838B838D819E81DB
:1023000001979E838D838D819E81009769F714C00C
:102310006F81788589859A850E944900DC01CB010F
:102320009E838D838D819E819A83898389819A8101
:102330000197F1F79A838983E8960FB6F894DEBF88
:102340000FBECDBFCF91DF910895DF93CF93CDB76F
:10235000DEB7E8970FB6F894DEBF0FBECDBF82E0C0
:1023600064E040E00E94A30582E066E041E00E9454
:10237000A30582E065E041E00E94A30582E067E0FA
:1023800041E00E94A30580E090E0A0E2B1E48DABC3
:102390009EABAFABB8AF6DA97EA98FA998AD20E079
:1023A00030E04AEF54E40E941F02DC01CB0189AB0C
:1023B0009AABABABBCAB69A97AA98BA99CA920E06D
:1023C00030E040E85FE30E94790388232CF481E049
:1023D00090E098AB8FA73FC069A97AA98BA99CA967
:1023E00020E03FEF4FE757E40E94190318164CF521
:1023F0006DA97EA98FA998AD20E030E040E251E4BC
:102400000E941F02DC01CB01BC01CD010E944900EA
:10241000DC01CB0198AB8FA70FC088EC90E09EA7A2
:102420008DA78DA59EA50197F1F79EA78DA78FA5D6
:1024300098A9019798AB8FA78FA598A9009769F7DE
:1024400014C069A97AA98BA99CA90E944900DC0142
:10245000CB0198AB8FA78FA598A99CA78BA78BA51D
:102460009CA50197F1F79CA78BA782E065E040E06F
:102470000E94A30582E067E041E00E94A30582E09C
:1024800066E041E00E94A30582E064E041E00E9432
:10249000A30580E090E0A0E2B1E48FA398A7A9A7EC
:1024A000BAA76FA178A589A59AA520E030E04AEFE8
:1024B00054E40E941F02DC01CB018BA39CA3ADA3BB
:1024C000BEA36BA17CA18DA19EA120E030E040E8DD
:1024D0005FE30E94790388232CF481E090E09AA3C3
:1024E00089A33FC06BA17CA18DA19EA120E03FEFFD
:1024F0004FE757E40E94190318164CF56FA178A511
:1025000089A59AA520E030E040E251E40E941F0234
:10251000DC01CB01BC01CD010E944900DC01CB01F3
:102520009AA389A30FC088EC90E098A38F8F8F8D1A
:1025300098A10197F1F798A38F8F89A19AA101978C
:102540009AA389A389A19AA1009769F714C06BA1E6
:102550007CA18DA19EA10E944900DC01CB019AA320
:1025600089A389A19AA19E8F8D8F8D8D9E8D0197B4
:10257000F1F79E8F8D8F82E066E040E00E94A30518
:1025800082E067E041E00E94A30582E065E041E06F
:102590000E94A30582E064E041E00E94A30580E080
:1025A00090E0A0E2B1E4898F9A8FAB8FBC8F698DE8
:1025B0007A8D8B8D9C8D20E030E04AEF54E40E94B0
:1025C0001F02DC01CB018D8B9E8BAF8BB88F6D8989
:1025D0007E898F89988D20E030E040E85FE30E949B
:1025E000790388232CF481E090E09C8B8B8B3FC097
:1025F0006D897E898F89988D20E03FEF4FE757E402
:102600000E94190318164CF5698D7A8D8B8D9C8D5F
:1026100020E030E040E251E40E941F02DC01CB01E7
:10262000BC01CD010E944900DC01CB019C8B8B8B4E
:102630000FC088EC90E09A8B898B89899A890197E1
:10264000F1F79A8B898B8B899C8901979C8B8B8B5B
:102650008B899C89009769F714C06D897E898F8961
:10266000988D0E944900DC01CB019C8B8B8B8B8960
:102670009C89988B8F878F8598890197F1F7988B24
:102680008F8782E067E040E00E94A30582E066E079
:1026900041E00E94A30582E065E041E00E94A305BD
:1026A00082E064E041E00E94A30580E090E0A0E2C7
:1026B000B1E48B879C87AD87BE876B857C858D85D4
:1026C0009E8520E030E04AEF54E40E941F02DC01C6
:1026D000CB018F839887A987BA876F817885898591
:1026E0009A8520E030E040E85FE30E947903882388
:1026F0002CF481E090E09E838D833FC06F817885CC
:1027000089859A8520E03FEF4FE757E40E9419033F
:1027100018164CF56B857C858D859E8520E030E014
:1027200040E251E40E941F02DC01CB01BC01CD015B
:102730000E944900DC01CB019E838D830FC088EC91
:1027400090E09C838B838B819C810197F1F79C8324
:102750008B838D819E8101979E838D838D819E8148
:10276000009769F714C06F81788589859A850E94E2
:102770004900DC01CB019E838D838D819E819A83EC
:10278000898389819A810197F1F79A838983E896F1
:102790000FB6F894DEBF0FBECDBFCF91DF91089585
:1027A000DF93CF9300D000D000D0CDB7DEB79E83AB
:1027B0008D831C821B828D819E81982F8827990F83
:1027C00028E631E0B9010E94461DCB019A83898336
:1027D00007C00E947A0F8B819C8101969C838B831A
:1027E0002B813C8189819A818217930790F72696E5
:1027F0000FB6F894DEBF0FBECDBFCF91DF91089525
:10280000DF93CF93CDB7DEB728970FB6F894DEBF2E
:102810000FBECDBF98878F831E821D828F819885C2
:10282000982F8827990F9A83898389819A8128E62E
:1028300031E0B9010E94461DCB019C838B8307C008
:102840008D819E8101969E838D830E94A5112D818D
:102850003E818B819C818217930790F728960FB653
:10286000F894DEBF0FBECDBFCF91DF910895DF9307
:10287000CF93CDB7DEB787E06FEF0E941D0886E0EB
:102880006FEF0E941D080E942A098CE00E949C0B99
:1028900084E06FE00E941D0880E06FEF0E949508C1
:1028A00085E06FEF0E941D080E945B1480E090E0BD
:1028B000CF91DF9108950F931F93DF93CF93CDB7FF
:1028C000DEB7C459D0400FB6F894DEBF0FBECDBFFF
:1028D000CE0185589F4FC557DF4F99838883CB58CA
:1028E000D04082E091E0C357DF4F99838883CD5871
:1028F000D04098E0C157DF4F9883CF58D040C3579E
:10290000DF4FE881F981CD58D0400080C357DF4FB9
:1029100088819981CD58D0400196C357DF4F998364
:102920008883CD58D040C557DF4FE881F981CB5817
:10293000D0400082C557DF4F88819981CB58D04065
:102940000196C557DF4F99838883CB58D040C15734
:10295000DF4F9881CF58D0409150C157DF4F9883B7
:10296000CF58D040C157DF4FE881CF58D040EE2339
:1029700031F6CE018D579F4FC057DF4F9983888323
:10298000C059D0408AEF90E0CE56DF4F99838883BC
:10299000C259D04098E0CC56DF4F9883C459D040FC
:1029A000CE56DF4FE881F981C259D0400080CE5623
:1029B000DF4F88819981C259D0400196CE56DF4FB2
:1029C00099838883C259D040C057DF4FE881F9818D
:1029D000C059D0400082C057DF4F88819981C059CB
:1029E000D0400196C057DF4F99838883C059D040AB
:1029F000CC56DF4F9881C459D0409150CC56DF4F10
:102A00009883C459D040CC56DF4FE881C459D04098
:102A1000EE2331F6FE01E658FF4F81E08083FE0190
:102A2000EC58FF4F1182108280E064E00E94C60DD6
:102A300080E690E00E94BA0EFE01E359FF4F80E06D
:102A400090E8ABE3B5E480839183A283B3838E01E6
:102A500007591F4FFE01E359FF4F60817181828149
:102A6000938120E030E04AEF54E40E941F02DC0131
:102A7000CB01F80180839183A283B383FE01E759E0
:102A8000FF4F608171818281938120E030E040E8D6
:102A90005FE30E947903882344F4FE01E959FF4F64
:102AA00081E090E09183808364C0FE01E759FF4F8D
:102AB000608171818281938120E03FEF4FE757E48D
:102AC0000E94190318160CF043C0FE01E359FF4F92
:102AD000608171818281938120E030E040E251E4A5
:102AE0000E941F02DC01CB018E0109591F4FBC015E
:102AF000CD010E944900DC01CB01F8019183808364
:102B00001FC0FE01EB59FF4F88EC90E0918380835A
:102B1000FE01EB59FF4F808191810197F1F7FE0192
:102B2000EB59FF4F91838083DE01A959BF4FFE010E
:102B3000E959FF4F80819181019711969C938E9363
:102B4000FE01E959FF4F808191810097D1F627C09E
:102B50008E0109591F4FFE01E759FF4F60817181B6
:102B6000828193810E944900DC01CB01F8019183AD
:102B70008083DE01AD59BF4FFE01E959FF4F8081CF
:102B800091818D939C93FE01ED59FF4F808191813E
:102B90000197F1F7FE01ED59FF4F9183808381E0AA
:102BA0000E949C0B80E061E00E94C60D88E690E0E8
:102BB0000E94BA0EFE01EF58FF4F80E380830E940F
:102BC000D608FE01EF58FF4F8083809110018823C3
:102BD00009F02BC2FE01EF58FF4F8081803309F4CA
:102BE0005FC0FE01EF58FF4F80818823B1F1FE01E5
:102BF000EF58FF4F8081813081F1FE01EF58FF4F88
:102C00008081823051F1FE01EF58FF4F8081833087
:102C100021F1FE01EF58FF4F80818430F1F0FE0179
:102C2000EF58FF4F80818530C1F0FE01EF58FF4F14
:102C30008081863091F0FE01EF58FF4F8081873010
:102C400061F0FE01EF58FF4F8081883031F0FE01C6
:102C5000EF58FF4F8081893019F580910C019091D8
:102C60000D019C01220F331FC901880F991F880F86
:102C7000991F280F391FFE01EF58FF4F8081882FC1
:102C800090E0820F931F90930D0180930C01FE0141
:102C9000EF58FF4F8081882F90E00E94240E8ACF4A
:102CA000FE01EF58FF4F8081803309F483CFFE018E
:102CB000EF58FF4F80818D3309F07CCF81E0809306
:102CC000100180910C0190910D010E94E21CFE0107
:102CD000E858FF4F9183808380910C0190910D0102
:102CE00090931C0180931B0113C080911B01909154
:102CF0001C012AE030E0B9010E94461DCB019093EF
:102D00001C0180931B0180910A018F5F80930A014F
:102D100080911B0190911C01009739F780910A0165
:102D2000843009F0C3C0FE01E15AFF4F80E090E01B
:102D3000AAE7B4E480839183A283B3838E01055A0A
:102D40001F4FFE01E15AFF4F6081718182819381A3
:102D500020E030E04AEF54E40E941F02DC01CB0186
:102D6000F80180839183A283B383FE01E55AFF4F6C
:102D7000608171818281938120E030E040E85FE3EF
:102D80000E947903882344F4FE01E75AFF4F81E053
:102D900090E09183808364C0FE01E55AFF4F60811B
:102DA00071818281938120E03FEF4FE757E40E94D9
:102DB000190318160CF043C0FE01E15AFF4F608161
:102DC00071818281938120E030E040E251E40E94F1
:102DD0001F02DC01CB018E01075A1F4FBC01CD0140
:102DE0000E944900DC01CB01F801918380831FC060
:102DF000FE01E95AFF4F88EC90E091838083FE0149
:102E0000E95AFF4F808191810197F1F7FE01E95A5C
:102E1000FF4F91838083DE01A75ABF4FFE01E75A1F
:102E2000FF4F80819181019711969C938E93FE01B3
:102E3000E75AFF4F808191810097D1F627C08E011C
:102E4000075A1F4FFE01E55AFF4F60817181828151
:102E500093810E944900DC01CB01F80191838083BA
:102E6000DE01AB5ABF4FFE01E75AFF4F80819181CF
:102E70008D939C93FE01EB5AFF4F808191810197C6
:102E8000F1F7FE01EB5AFF4F9183808381E00E94AE
:102E90009C0B80E061E00E94C60D82E790E00E94FA
:102EA000BA0E80E061E00E94E30E84CE81E062E031
:102EB0000E94C60D8CE790E00E94BA0EFE01EF5A08
:102EC000FF4F80E090E8ABE3B5E480839183A28379
:102ED000B3838E01035B1F4FFE01EF5AFF4F6081EA
:102EE00071818281938120E030E04AEF54E40E94B6
:102EF0001F02DC01CB01F80180839183A283B3839D
:102F0000FE01E35BFF4F608171818281938120E04C
:102F100030E040E85FE30E947903882344F4FE0137
:102F2000E55BFF4F81E090E09183808364C0FE0108
:102F3000E35BFF4F608171818281938120E03FEFED
:102F40004FE757E40E94190318160CF043C0FE0126
:102F5000EF5AFF4F608171818281938120E030E0E0
:102F600040E251E40E941F02DC01CB018E01055BAF
:102F70001F4FBC01CD010E944900DC01CB01F801CB
:102F8000918380831FC0FE01E75BFF4F88EC90E0D8
:102F900091838083FE01E75BFF4F808191810197E0
:102FA000F1F7FE01E75BFF4F91838083DE01A55BB4
:102FB000BF4FFE01E55BFF4F808191810197119624
:102FC0009C938E93FE01E55BFF4F8081918100977A
:102FD000D1F627C08E01055B1F4FFE01E35BFF4F5B
:102FE00060817181828193810E944900DC01CB0163
:102FF000F80191838083DE01A95BBF4FFE01E55B91
:10300000FF4F808191818D939C93FE01E95BFF4F7F
:10301000808191810197F1F7FE01E95BFF4F918378
:10302000808381E00E949C0BC1C48091100181309B
:1030300009F0F8C2FE01EF58FF4F8081803309F498
:103040005FC0FE01EF58FF4F80818823B1F1FE0180
:10305000EF58FF4F8081813081F1FE01EF58FF4F23
:103060008081823051F1FE01EF58FF4F8081833023
:1030700021F1FE01EF58FF4F80818430F1F0FE0115
:10308000EF58FF4F80818530C1F0FE01EF58FF4FB0
:103090008081863091F0FE01EF58FF4F80818730AC
:1030A00061F0FE01EF58FF4F8081883031F0FE0162
:1030B000EF58FF4F8081893019F580910E01909172
:1030C0000F019C01220F331FC901880F991F880F20
:1030D000991F280F391FFE01EF58FF4F8081882F5D
:1030E00090E0820F931F90930F0180930E01FE01D9
:1030F000EF58FF4F8081882F90E00E94240E5ACD18
:10310000FE01EF58FF4F8081803309F453CDFE015B
:10311000EF58FF4F80818D3309F04CCD80910E0127
:1031200090910F010E94141DFE01EA58FF4F9183F8
:10313000808380910E0190910F0190931A018093EA
:10314000190113C08091190190911A012AE030E011
:10315000B9010E94461DCB0190931A018093190179
:1031600080910B018F5F80930B01809119019091E9
:103170001A01009739F780910B01843009F0F9C0EA
:10318000FE01E858FF4F0190F081E02D2081FE0103
:10319000EA58FF4F80819181FC0133968081281786
:1031A00009F0E7C0FE01E858FF4F80819181FC01E2
:1031B00031962081FE01EA58FF4F80819181FC0108
:1031C00032968081281709F0D4C0FE01E858FF4FDD
:1031D00080819181FC0132962081FE01EA58FF4FE7
:1031E00080819181FC0131968081281709F0C1C04E
:1031F000FE01E858FF4F80819181FC013396908158
:10320000FE01EA58FF4F0190F081E02D8081981770
:1032100009F0AFC081E00E949C0B80E061E00E9459
:10322000C60D88E890E00E94BA0E81E061E00E943D
:10323000C60D86E990E00E94BA0EFE01ED5BFF4FDD
:1032400080E090E8ABE3B5E480839183A283B3830D
:103250008E01015C1F4FFE01ED5BFF4F60817181AC
:103260008281938120E030E04AEF54E40E941F0203
:10327000DC01CB01F80180839183A283B383FE013B
:10328000FF96608171818281938120E030E040E887
:103290005FE30E94790388232CF481E090E09EAFE5
:1032A0008DAF46C0FE01FF9660817181828193815E
:1032B00020E03FEF4FE757E40E941903181664F52A
:1032C000FE01ED5BFF4F608171818281938120E07F
:1032D00030E040E251E40E941F02DC01CB01BC015E
:1032E000CD010E944900DC01CB019EAF8DAF0FC024
:1032F00088EC90E09CAF8BAF8BAD9CAD0197F1F764
:103300009CAF8BAF8DAD9EAD01979EAF8DAF8DAD58
:103310009EAD009769F716C0FE01FF96608171812E
:10332000828193810E944900DC01CB019EAF8DAF69
:103330008DAD9EAD9AAF89AF89AD9AAD0197F1F78A
:103340009AAF89AF82E08093100181E00E949C0BCC
:1033500080E061E00E94C60D86EA90E00E94BA0E0D
:1033600081E061E00E94C60D86EB90E00E94BA0EFB
:1033700021CCFE01E658FF4F8081843008F0A7C0C1
:1033800081E00E949C0B80E061E00E94C60D82EC0F
:1033900090E00E94BA0EFE01E658FF4F808161E086
:1033A0000E94E30ECE018D579F4F61E040E02CE07C
:1033B0000E94E40D80E090E0AAE7B4E48DAB9EAB00
:1033C000AFABB8AF6DA97EA98FA998AD20E030E072
:1033D0004AEF54E40E941F02DC01CB0189AB9AAB97
:1033E000ABABBCAB69A97AA98BA99CA920E030E062
:1033F00040E85FE30E94790388232CF481E090E0A9
:1034000098AB8FA73FC069A97AA98BA99CA920E096
:103410003FEF4FE757E40E94190318164CF56DA9CA
:103420007EA98FA998AD20E030E040E251E40E94EF
:103430001F02DC01CB01BC01CD010E944900DC016F
:10344000CB0198AB8FA70FC088EC90E09EA78DA70B
:103450008DA59EA50197F1F79EA78DA78FA598A989
:10346000019798AB8FA78FA598A9009769F714C00B
:1034700069A97AA98BA99CA90E944900DC01CB010A
:1034800098AB8FA78FA598A99CA78BA78BA59CA568
:103490000197F1F79CA78BA781E061E00E94C60D20
:1034A00082E790E00E94BA0EDE01A658BF4FFE01EF
:1034B000E658FF4F80818F5F8C9381E080931001ED
:1034C00010920F0110920E0110920B0173CB81E04C
:1034D0000E949C0B80E063E00E94C60D8DEC90E0A2
:1034E0000E94BA0ECE0185589F4F62E040E02CE06A
:1034F0000E94E40DFE01ED58FF4F85E0808383C0FC
:10350000FE01ED58FF4F8081825061E00E94E30E82
:1035100080E090E0AAE7B4E48FA398A7A9A7BAA790
:103520006FA178A589A59AA520E030E04AEF54E480
:103530000E941F02DC01CB018BA39CA3ADA3BEA301
:103540006BA17CA18DA19EA120E030E040E85FE36B
:103550000E94790388232CF481E090E09AA389A348
:103560003FC06BA17CA18DA19EA120E03FEF4FE762
:1035700057E40E94190318164CF56FA178A589A588
:103580009AA520E030E040E251E40E941F02DC01F5
:10359000CB01BC01CD010E944900DC01CB019AA303
:1035A00089A30FC088EC90E098A38F8F8F8D98A18E
:1035B0000197F1F798A38F8F89A19AA101979AA3F8
:1035C00089A389A19AA1009769F714C06BA17CA176
:1035D0008DA19EA10E944900DC01CB019AA389A381
:1035E00089A19AA19E8F8D8F8D8D9E8D0197F1F768
:1035F0009E8F8D8FDE01AD58BF4FFE01ED58FF4FFE
:10360000808181508C93FE01ED58FF4F8081823084
:1036100008F076CF81E00E949C0B80E261E00E947E
:10362000E30EC4C180911001823079F5FE01EF589C
:10363000FF4F8081803309F4BDCAFE01EF58FF4F70
:103640008081813039F0FE01EF58FF4F8081823058
:1036500009F0B0CADE01AE58BF4FFE01EF58FF4F70
:1036600080818C9381E00E949C0B80E061E00E944D
:10367000C60D85ED90E00E94BA0E81E063E00E94E5
:10368000C60D83E08093100195CA809110018330AC
:1036900009F090CAFE01EF58FF4F8081803309F492
:1036A00061C0FE01EF58FF4F80818823B1F1FE0118
:1036B000EF58FF4F8081813081F1FE01EF58FF4FBD
:1036C0008081823051F1FE01EF58FF4F80818330BD
:1036D00021F1FE01EF58FF4F80818430F1F0FE01AF
:1036E000EF58FF4F80818530C1F0FE01EF58FF4F4A
:1036F0008081863091F0FE01EF58FF4F8081873046
:1037000061F0FE01EF58FF4F8081883031F0FE01FB
:10371000EF58FF4F8081893029F5FE01EC58FF4FAB
:10372000808191819C01220F331FC901880F991F4D
:10373000880F991F280F391FFE01EF58FF4F808116
:10374000882F90E0FE01EC58FF4F820F931F91836A
:103750008083FE01EF58FF4F8081882F90E00E9408
:10376000240E28CAFE01EF58FF4F8081803309F4F0
:1037700021CAFE01EF58FF4F80818D3309F01ACA2C
:10378000FE01EE58FF4F8081813009F07AC0FE01C2
:10379000EC58FF4F808191810E94D01380E090E827
:1037A000ABE3B5E4898F9A8FAB8FBC8F698D7A8D2F
:1037B0008B8D9C8D20E030E04AEF54E40E941F0284
:1037C000DC01CB018D8B9E8BAF8BB88F6D897E8991
:1037D0008F89988D20E030E040E85FE30E94790314
:1037E00088232CF481E090E09C8B8B8B3FC06D890B
:1037F0007E898F89988D20E03FEF4FE757E40E9444
:10380000190318164CF5698D7A8D8B8D9C8D20E0EF
:1038100030E040E251E40E941F02DC01CB01BC0118
:10382000CD010E944900DC01CB019C8B8B8B0FC02A
:1038300088EC90E09A8B898B89899A890197F1F7B6
:103840009A8B898B8B899C8901979C8B8B8B8B891D
:103850009C89009769F78EC06D897E898F89988DC4
:103860000E944900DC01CB019C8B8B8B8B899C894E
:10387000988B8F878F8598890197F1F7988B8F8721
:1038800079C0FE01EC58FF4F808191810E940014A5
:1038900080E090E4ACE1B6E48B879C87AD87BE877F
:1038A0006B857C858D859E8520E030E04AEF54E471
:1038B0000E941F02DC01CB018F839887A987BA87FA
:1038C0006F81788589859A8520E030E040E85FE364
:1038D0000E94790388232CF481E090E09E838D83FD
:1038E0003FC06F81788589859A8520E03FEF4FE75B
:1038F00057E40E94190318164CF56B857C858D855D
:103900009E8520E030E040E251E40E941F02DC018D
:10391000CB01BC01CD010E944900DC01CB019E839B
:103920008D830FC088EC90E09C838B838B819C817E
:103930000197F1F79C838B838D819E8101979E83F4
:103940008D838D819E81009769F714C06F81788582
:1039500089859A850E944900DC01CB019E838D8375
:103960008D819E819A83898389819A810197F1F75C
:103970009A83898382E08093100181E00E949C0BEE
:1039800080E061E00E94C60D86EA90E00E94BA0ED7
:1039900081E061E00E94C60D86EB90E00E94BA0EC5
:1039A000FE01EC58FF4F1182108204C9CC56DF4F44
:1039B0000FB6F894DEBF0FBECDBFCF91DF911F9140
:1039C0000F910895DF93CF9300D00F92CDB7DEB75C
:1039D0009B838A8385E089831CC08981882F90E03E
:1039E000FC0132978A819B812AE030E0B9010E9474
:1039F000461DEF5EFE4F80838A819B812AE030E086
:103A0000B9010E94461DCB019B838A838981815025
:103A100089838981823008F781E191E00F900F90CE
:103A20000F90CF91DF910895DF93CF9300D00F9245
:103A3000CDB7DEB79B838A8385E089831CC08981EB
:103A4000882F90E0FC0132978A819B812AE030E048
:103A5000B9010E94461DEB5EFE4F80838A819B81E7
:103A60002AE030E0B9010E94461DCB019B838A8386
:103A70008981815089838981823008F785E191E0CD
:103A80000F900F900F90CF91DF910895AA1BBB1B51
:103A900051E107C0AA1FBB1FA617B70710F0A61B4E
:103AA000B70B881F991F5A95A9F780959095BC016F
:103AB000CD0108952F923F924F925F926F927F9225
:103AC0008F929F92AF92BF92CF92DF92EF92FF922E
:103AD0000F931F93CF93DF93CDB7DEB7CA1BDB0BDA
:103AE0000FB6F894DEBF0FBECDBF09942A8839887F
:103AF00048885F846E847D848C849B84AA84B98486
:103B0000C884DF80EE80FD800C811B81AA81B98191
:103B1000CE0FD11D0FB6F894DEBF0FBECDBFED01A5
:063B20000895F894FFCFA8
:103B260057656C636F6D6500456E74657220494418
:103B36003A0050617373776F72643A0049442049C2
:103B46006E76616C6964210053797374656D2055D6
:103B56006E6C6F636B005374657070657220636F73
:103B66006E74726F6C00456E74657220446972657E
:103B76006374696F6E00313A43572020323A4343EB
:103B8600570054727920616761696E3A004279651F
:103B96002042796500456E74657220416E676C65DA
:103BA6003A0000000000000000000102032B04059B
:103BB600062D0708090063093D2F000A0000111FA2
:0A3BC600000000040A150A040E11A5
:00000001FF
